:20000000E04C0020A5610100FDC90110FDC90110FDC90110FDC90110FDC90110FDC9011083
:1C002000FDC90110FDC90110FDC90110FDC90110FDC90110FDC901103BCA0110A4
:20003C00000105090004081000040810020402010101010902000120181A18182C34041E41
:20005C00000C0E020B040B0A070800110F00A6AAACA4A9A9A399B19ABCB6A8313117191AD6
:20007C0021241B1D1F31313331313118191A22311C1E20313134310000000500BD00B70068
:20009C00B100BC001C00300038000800380102000000000002000000020000000A00000002
:2000BC0002000000020001000000000000000000000000000000000000000000000000001F
:2000DC00000000000E000000C003000080070000000F0000001E0000003C000000780000CB
:2000FC0000F0000000E0010000C003000080070000000F0000001E0000003C0000007800E8
:20011C000000F0000000F00038C40D00C80000008100000032000F0100C50D0090010000EC
:20013C004000000096000501952B0D00C80000002200000032000F020000000000000000CD
:20015C0000000000000000000000000000000000000000000000000000000200000002007F
:20017C000200020000000A0004000100000002000000000000000000050001000000070041
:20019C00060001000000030007000800000000000F0001000100FF00100008000000000002
:2001BC0018000800000000002200020000000000010171010101010111010101310101011F
:2001DC00010180010001100161013B001400630173017201620143010001130106013D0171
:2001FC00350004011201000100010001000104010401330133013C01440132013600000134
:20021C00000165010001350081010001050182018301000166010001000108010901030213
:20023C007102300160021102700201020202020280020002100261023A00410063027302BE
:20025C007202620243020002130238000002000204021202000200020002000204020402E4
:20027C00370037003C024402000239000002000265020002350281020002050282028302FC
:20029C00000266020002000208020902030471040204600411047004020402040104020439
:2002BC00000410046104000414046304730472046204430400041304060400040004040453
:2002DC00120400040004000400045104640000040004000444040004000400040004650456
:2002FC00000435048104640005040004830400046604000400040804090400003600010062
:20031C000600000000000000000F000000000000000000000000000000000300FFFF0000AB
:20033C000403FFFF0000FFFF0F00E8030005401F0310000101000000FF3F0F0008000E00C8
:20035C0000000000000000000300010F000009010000000000000000000000000000000064
:20037C0000000000000000000000000000000000000000000000000000000000AD000001B3
:20039C00000000000001363601010001020100010301000104010606080400000C0100346A
:2003BC000D01000F10040101140100FF1608000020020000220100FF23010001240100FE30
:2003DC00250100082602000028010001290100012A0200002C01000F2E020000300100018C
:2003FC0031010008320200FF34010007350102FF360100003701000138010001390100FF1E
:20041C003A01000F3C0200FF3E01010F3F0100014001041F41010001420100FF43010080FC
:20043C00440800004E0100084F01000F50010001510100FF5201000A53010089540100016B
:20045C00580400005C0400006004000064040000680400006C040000700400007404000030
:20047C00780400007C040000800100FF81010001820100018301010284010001354525151C
:20049C0002030504FFFFFFFFFFFFFFFF9A1000000000000000000000000000000000000090
:2004BC00000000000000000000000000000000000000FAFA14000000000000000000000117
:2004DC000000010100000000000000000000000000000000000000000000000000000000FE
:2004FC000000000000000000000000000000000000000000000000000000000000000000E0
:20051C0000000000000000780008020030000A00000800000000000000000804FA000000F5
:20053C00FFFFFF000C1100000000000000001D1100000000000000002E010F000000FA001F
:20055C0000002F0100000000FA000000300100000000FF000000310100000000FF000000F4
:20057C00320100000000030000003301000000000300000034010000000001000000350285
:20059C0000000000FFFF0000370200000000FF000000390200000000FF0000003B02000092
:2005BC000000FFFF00003D0100000000FF0000003E0100000000010000003F010000000064
:2005DC00010000004001000000000700000041200000000000000000610200000000FFFFF4
:2005FC000000630800000000000000006B0800000000000000007308000000000000000086
:20061C007B0800000000000000008302050000005802000085010000000010000000860239
:20063C000000000032000000880200000000320000008A02000000000A00000000E94801E8
:20065C000000391E010002C7EE000000F3C0000001C7EE000000F3C000000321F50000003A
:20067C00F3C0000004EF9D010000F3C0000001019E010001FB9D010001F3C0000001F3C0C4
:20069C00000001F3C0000000BD68010001F3C0000001F3C0000001F3C0000001F3C0000094
:2006BC0002019E010002FB9D010002F3C0000000BD68010002F3C0000002F3C0000002CDCD
:2006DC004B010002F3C0000004AB7F000000F3C0000003019E010003FB9D010003C7EE0025
:2006FC000003C7EE000003F3C000000321F5000003F3C0000000BD68010003F3C0000003C2
:20071C00F3C0000004019E010004FB9D010004C7EE000004C7EE000004C7EE000004AB7F70
:20073C00000004F3C0000004F3C0000004E99D010000BD6801000000AD2C000003000000A2
:20075C0000040000E5F7010083F90100D7F90100F1F3010055F40100CDF8010059FA010005
:20077C00BFF90100A9FA0100F1F2010011F5010065F90100F9F8010065F50100B5FA0100B9
:20079C00CDFA010095FA010081FA01003BFA01002DFA0100CDF6010067FA0100A5F9010046
:2007BC000DFA010095F60100D7FA010011310100B178010001F00100B9F5010029F101008E
:2007DC00F5F90100F9680100259301000D930100B5F40100499B01003B9B010051F60100A4
:2007FC000000000000000000F19C01000D9A01000DF70100000000000000000000000000A2
:20081C00000000000300710030016000110070003102200350048000070010006100000094
:20083C0014006300730072006200430000001300060000000000040012000000000000006C
:20085C00000004000400370037003C02440000000000000000006500000035008100000069
:20087C000500000083000000660000000000080009000103710301030103010301030103D1
:20089C0022030203010300031003000300030003000300030003000342030003240306036B
:2008BC000003000304031203250323032503230304030403000300030003440300030003FA
:2008DC00230300036503210035038103000305030003000300030003250323030803090312
:2008FC001404C0A0FE0000001404C0A00A0480A0090480A008400080FE00000006088080BF
:20091C00070880800D2007C00E2007C01400C080024000800300C0800108C0801E088080FB
:20093C0009400080084000800A400080FE0000008F0000008F0001008F0002008F00030000
:20095C00900000018F00010190000002900000038F0001048F0000058F0008048F000004DE
:20097C008A000006510000007F0001003F0004003F0002003F0001007F0002007B756E6BEC
:20099C006E6F776E2D696E7374616E63652D6E616D657D007B656D7074792D696E737461B6
:2009BC006E63652D6E616D657D00C0467B7374617469632D696E7374616E63652D6E616DA6
:2009DC00657D00C000000102030410000810182004040810181C10040810181C000000003B
:2009FC0008000000000000002000000040000000600000000000000006000000020000000B
:200A1C0086000000820000006526010029450100FD9301001DAE00002DBC00002B9E0100A8
:200A3C00F13A010045CF0000319E010099100100001000400600000015000000FF00000076
:200A5C00000000000302FFFF1833002020000000010300000000000000000000FFFFFFFFEC
:200A7C00FFFFFFFF00000000000000000101010100C2010003000000000000007BC8011040
:200A9C00C5BC0110D9B2011033C20110BDAD0110C1B101106DBA011065BB01101DC00110B1
:200ABC00FFFFFFFF0000000000000000000000003A010000000000000000000000000000E3
:200ADC0029E1000009440100000000000000000101010000C33B3D3A5D3A713AA10A8F3A74
:200AFC000F3BB309495E850A2F3B853B001610160E18151C021203241858030210025800C7
:200B1C000100000000000000000000000000010000000000004002400B0000002700000003
:200B3C00FF000000030102000100060001000000240A0000902F00204C0A000041B5011022
:200B5C0095A6011015B80110010B0101010801020101000000BE040A00BE0208FFFFFFFFA3
:200B7C00FFFFFFFF48320020300B0000FF000000000000000F000000798900000000000078
:180B9C0000000000D1C0011061AD01100A000000742100209D93010090
:201000003C000000000000000000000034100000000000000000000001000000000000004F
:1C10200000000000000000000000000001000000000000000800000000000000AB
:20103C003400000000000000000000006810000000000000000000000100000000000000E7
:14105C00010000000000000000000000080000000000000077
:2010700030000000000000000000000098100000040000000000000001000000FFFFFFFF87
:10109000FF00000001000000080000000000000048
:2010A0002C0000000000000000000000C4100000040000000000000001000000FFFFFFFF2F
:0C10C000FFFFFFFF080000000000000020
:2010CC0038140000E410000095A1011091A70110A1C2011009B2011041B80110A5BC011078
:0810EC0085BC01102E0000007C
:2010F400280000000000000000000000141100000000000000000000FFFFFFFF0000000093
:081114000800000000000000CB
:20111C00341400003011000065C2011069C101101BC2011091BA011005BC0110E5BB0110EA
:04113C00300000007F
:20114000341400005411000071C20110A5B6011099BF011045B60110B5BA011025BC01104B
:04116000310000005A
:201164002400000000000000000000008011000000000000000000000000000008000000AE
:041184000000000067
:20118800240000000000000000000000A41100000000000000000000000000000800000066
:0411A8000000000043
:2011AC00240000000000000000000000C8110000000000000100000000000000080000001D
:0411CC00000000001F
:2011D00000000000DC2200200400000000000000000000002000000070100000300000000D
:2011F0001C110000E42200200400000000000000000000000C000000301300001800000021
:2012100040110000EC220020040000000000000000000000240000004813000018000000A4
:2012300000000000F422002004000000000000000000000010000000A01000002C00000078
:20125000CC100000FC220020040000000000000000000000200000006411000024000000A7
:20127000FFFFFFFF0423002004000000000000000000000028000000881100002400000032
:20129000FFFFFFFF0C230020040000000000000000000000580000003C1000003400000017
:2012B000FFFFFFFF142300200400000000000000000000001000000060130000180000002C
:2012D000FFFFFFFF1C2300200400000000000000000000001C000000AC11000024000000A2
:2012F000FFFFFFFF2423002004000000000000000000000038000000F41000002800000013
:20131000FFFFFFFF2C23002004000000000000000000000054000000001000003C000000AE
:1813300018000000000000000000000040130000080000000000000032
:1813480018000000000000000000000058130000080000000000000002
:18136000180000000000000000000000701300000800000000000000D2
:0813780001000000B00B0000B1
:041384000100000064
:0413880000000E0053
:04138C0000000F004E
:041390003200000027
:041394000100000054
:04139800E42100202C
:04139C00000200004B
:0413A000079E0100A3
:0413A400FDC901106E
:0413A8000000000041
:0413AC00000000003D
:0413B0000800000031
:0413B4000000220013
:0413B800241F0020CE
:0413BC00010000002C
:0413C000FC210020EC
:0413C400080000001D
:0413C8000000000021
:0413CC00000000001D
:0413D0000000000019
:0413D400080000000D
:0413D8000000000011
:0413DC00000000000D
:0413E0000100000008
:0413E4008420002041
:0413E80006000000FB
:0413EC0001000000FC
:0413F0004C1E00206F
:0413F40000000000F5
:0413F80000000000F1
:0413FC0000020000EB
:0414000000000000E8
:021406002900BB
:021408000100E1
:02140A002500BB
:02140C003000AE
:02140E003100AB
:021410002E00AC
:021412000100D7
:0114140001D6
:0814180003000000580B000066
:081420000000000000000000C4
:0414280000000100BF
:04142C0000000300B9
:0414300083C4011060
:041434003C14000064
:041438003C14000060
:04143C0000000000AC
:041440009000000018
:041444009000000014
:0414480000000000A0
:04144C00FC2100205F
:04145000CB99010033
:041454002000000074
:041458001C0B000069
:04145C00980A0000EA
:0414600009C30110AB
:041464005F800100A4
:04146800F78E0100FA
:04146C0095C801100E
:0414700097C8011008
:041474000000000074
:041478005207000017
:04147C00B0090000B3
:04148000C809000097
:0414840098090000C3
:0214880008005A
:02148A00090057
:02148C0001005D
:02148E0000005C
:01149000015A
:041494000000000054
:041498000000000050
:04149C00000000004C
:0414A0000000000048
:0414A400FD9E0100A8
:0414A8006971010065
:0414AC00E1870100D3
:0414B000C176010000
:0414B400BF770100FD
:0414B800C167010007
:0414BC007920010092
:0414C000739B010019
:0414C400714B010067
:0414C8000DC801103A
:0414CC001DC8011026
:0414D0000800000010
:0414D40024000000F0
:0414D80018000000F8
:0414DC0028000000E4
:0414E00020000000E8
:0414E4003C000000C8
:0414E8000C000000F4
:0414EC0034000000C8
:2014F000CB482DE9F04F0C4601210170DFF82893DFF82883DFF828B3DFF828A3C5494FF0DA
:20151000000C2027ADF14C0D65461F4081F800C0CC49109391F880630F9205EA020008BFB1
:2015300000287AD10F984FF0E047194662460F4002EA000008BF002843D1109E0F9B4FF43B
:201550008600B9F8AA10DFF800C3CDF8289012EA060700EA030008BF002819D1C64812EA9A
:20157000060700EA030008BF00286FD0374640460F9E048100F138034181002F83E8C000B6
:2015900004BF331CB3F1806F60D102295ED111E0374640460F9E048100F138034181002FC8
:2015B00083E8C00004BF331CB3F5803F4ED1B1F5505F4BD1006A674643693868214698473E
:2015D00042E046465946B6F9087091F90000BC42A0F10100087017D1728906F1380003C818
:2015F000002904BFB0F5803FB2F5505F08D0002904BFB0F1806F022A02D013F0DDF803E028
:2016100014F0F6FA17F06AFF524692F90000401E10706FF00101318114E040466FF0010167
:2016300000F1080211806EB1B4490978832902D0B34981220A704646316919B16046884775
:201650002146E8E7CDF82890B9F8AA100F9A109E02202F461040374008BF002800F0BD8388
:20167000A94A43F201408842129200F09083C01C884200F08C83584690F900005A46474687
:20169000401E1070B7F90800844205D043F60400884240F08B8387E36A4890F880C307F1E5
:2016B000380090E800034FF482062F4617EA090706EA080008BF002810D15848383003C87B
:2016D0004FF400322F4602400F4008BF002A02D113F072F86AE314F08BFA67E388488121BC
:2016F000BCF1010F18BF0278864C01702778A7702846A0816069129E427A017A357002F0FD
:20171000070301EB032152098DB234BF291F891EDFF8FC81437A8DB233F07F0340F0248357
:201730007A490988A942C0F21F830A30294610F0C7FE216A04F118000522083117F03AFF60
:20175000ED1E4FF0000BADB20C960520E17E227FA37E3C4EA081C1F3011A227103EB0120C1
:2017700096F880136081002908BFBAF1020F00F0FB82BAF1020F00F3F78269B110F0070FE6
:2017900000F0F28241B15D490978862904D100F00701022940F0E882011301F00201022948
:2017B00054DA6378DFF8549100F0070002283BD1D8F80460002B37D1216A09A801220D3123
:2017D00017F0F8FE0620A081B047824699F800701C48D8F808104268CDF82C80862F88460B
:2017F00002D05046884710E09DF9240018F070FB9DF924705077584690775046D777C04704
:20181000608900F0100011F00DFE17F0E7FCAFE2652200205C220020C4180020A01D00202A
:20183000632200206222002099F800005E46862808BF0126CDF82C805EB1584614F024FA3E
:20185000A77805E008020020981F0020CDF82C8063789FB193B9012F00F083826089022F4C
:2018700003D110F0070F40F07C82032F07D100F00701032903D074E200000C8C608901095E
:201890004FEAE00C09D310F4405F00F06A82BB4991F82474002F00F06482011301F0020186
:2018B000022902DA810A80F05C82B3490978C1F381098E11B9F1010F00F05382012E00F040
:2018D0005082AC49BAF1020F09D08A5D11F809108918CFB216B3C10920D3BF1E0BE0721899
:2018F0004944127909798918CFB2C10912D259EA060313D0BF1CFFB210E0C0469F330020CB
:201910009B330020F03200209D330020362200209C19002059EA060308BF0227C0F300203B
:20193000391A60718D42C0F21C82ED1B5FEA5C010544A8B2208128BF4FF0250B58447430CC
:2019500080B217F08BF965782061002800F009820021742211F0BEF90020E070B4F80A80A4
:201970001DB90C9908F0200008700C9B002094F805B01D780E90002D3DD0BBF1000F3AD111
:2019900008F00708B8F1030F06D0B8F1010F23D17A4890F86E04F8B17848B0F85C000023A6
:2019B000810809D3754991F88A509DB94D681DB16D7E35F07F050DD163B98008984606D3EB
:2019D00085498D6888780DB12846804710B9B8F1000F01D00420E070684890F8800310B1FF
:2019F000BAF1020F01DA16F075FEB4F80A80E07894F805B00E90216901F1740048608865D5
:201A100025890D812089A1F85C005FEA18100ED3CBF1030082B2A1F85C20886DCD4917F070
:201A3000C9FD2169B1F85C20886D801888655248C84D00780E9BC0F301122878A1F80C804C
:201A500000F07800104318430874FF258D732079BBF1000F0D9018BF002081F8306081F856
:201A70003A9081F84900A089002FA0EB0B0085B2A58100F06B81BA46216AE780684652466B
:201A90004919083117F096FD3B487F19BDB2A5810078C0F30111119121690A7C6E4680101E
:201AB00010F0030F00F0030702F0400943D011980023022801D1D0090BD29DF801209DF8F3
:201AD000000000EB0220A1F844000DF10206A1F84200C84AB1F84400B2F85A20824203D071
:201AF0004FF6FF72824223D1032F12D072783078C04B00EB022082B24A86B3F85810B61CC1
:201B10000120914213D04FF6FF71914218BF00200DE0C64800683146323018F090F9C34887
:201B3000B44900684F31323017F066FB08360346002B00F0118110480078831126D01199AE
:201B50002069022903D0017CC90903D309E059EA070706D172783178B61C01EB0221A0F8AC
:201B70004210032B0CD07178327802EB012202850CE0C046700B00000B33002008020020DA
:201B9000AA4800683146283018F059F908F00708B8F1030F07D0B8F1010F39D1A54890F8E1
:201BB0006E04002834D0A3482669D0F880704FF00008E7B17B7E33F07F0314D096F8300026
:201BD00002280BD003280ED107F1700006F1280117F012FB38B11BE068220020B7F870009D
:201BF000318D884214D057F80C7C002FE2D1B8F1000F0DD18E4F574B4046E070387842468D
:201C1000C0F3011118780E9200F0780008433074884890F8800310B1119802280CDA0C986F
:201C300007784FB1BBF1000F06D10D980E9912F08FF8A589B4F806A0206981890909C0F0D9
:201C50008580806D6946524617F0B4FC2169886D50448865276AB1F85C0001225044A1F89E
:201C70005C000DF125007919083117F0A3FC6E1CB5B2A58121699DF82500896D0870216911
:201C90009DF825709DF82530886D401C8865B1F85C00401CA1F85C0007F0070081F82400F1
:201CB000C3F3C10781F8257091F8246020898046002E51D05B497F183E78361D8642E6804B
:201CD0004ADC216A324605A84919083117F072FC38789DF817209DF814109DF816304019A5
:201CF0003D78001D01EB026180B201EB0341A0819DF81530206901EB032181616DB14B482A
:201D100000686D1E06A92A461C3017F053FC397820696944C97D80F82610806D05A9324611
:201D300017F048FC2169886D80198865B1F85C00A8EB06078019A1F85C00781E82B22281A3
:201D5000B1F85C000A818018A1F85C0000F082FC0EE0C0460A33002017F076FF12F02CFDF0
:201D700006E017F093FD03E017F090FDCDF82C80DDF82C80D8F804008047216A0A680023B2
:201D9000137109682162D8F8081088470EE04046807841465F46401C887097F900005946E9
:201DB000401E087012F008FD17F0E0F921480A99104F00226FF0010690F88003A1F8AA20F5
:201DD0003E8110B11298007808B917F087FB1A48194990F90000401E0870184890F90000FB
:201DF00010B9114800210170134890F9000080B102E0C046A01D00200F9A109F02214FF08B
:201E1000E040114038400EBF00290B4890F9000002E0002003F0C6FF0949002013B0087090
:201E3000BDE8F08F3C0000005A220020003300200B33002008020020622200206322002072
:201E5000652200202DE9F047054668784FF00009ADF1200D401E0E2809D92F38142817D937
:201E7000203800F0BA83401E00F0B383AEE3DFE810F09E039503E1037803DB03D703D303CB
:201E900013030603AD03AD03CF03CB03F702F002DFE810F0D60188007800B6036B00600006
:201EB00052003800B203AF039C039C039C039C039C039C032F002400AB031500A703A88877
:201ED000022838BF272407D3A868024617F086FE911C17F057FB04464320CEE2A88828B955
:201EF000C54918201DF074F9C4B200E027244120C3E2A88818B917F0BBFB044600E0272438
:201F10004020BAE2A888CDF80090012818BF27240CD1A868C84902786B4618201DF058F926
:201F30000099C4B20DF1110014F071FF8DF810403720052104AA11E3A888012818BF272490
:201F500006D1A868BD49027818201DF041F9C4B2362092E2A88828B9CD4918201DF038F9AE
:201F7000C4B200E02724352087E2A888082818BF272405D1C949AA6818201DF029F9C4B299
:201F900034207AE2A888022818BF272408D1A86817F024FECB49024618201DF019F94C46AE
:201FB00032206AE2A9880529C0F04281A8680678B6F1710000F02281401E012840F23681F8
:201FD0005E3800F0FB80401E00F0D480401E00F0BA80401E00F09C80401E63D0401E44D059
:201FF0003046813801280FD9801E11D0801E01280ED9801E0AD0401E0AD0401E012805D94F
:20201000801E18BFFF2004D1022002E0082000E00120491F814240F00B8116F069F8071CA9
:2020300000F0D380A86831468139012900F1050017D9891E12D0891E01290FD9891E07D03C
:20205000491E0BD0491E012902D9891E79D108E001683A4611604068506072E000783870C5
:202070006FE017F0BBFD38806BE0092940F0E080052016F03DF8071C00F0A780A868401C77
:2020900010F8041B397010F8011B797010F8011BB97010F8011BF9700478494604B1012197
:2020B00039714EE0182940F0C380182016F020F8071C00F08A80082016F01AF80028386110
:2020D00000F08380A868401C034617F087FD3880181D17F083FDB880981D17F07FFDF88061
:2020F00003F1080107F1080017F090FD187C494600B1012103F11100397517F0A2FA396951
:20211000086003F1150017F069FD3969888018E0192940F08D80182015F0EAFF071C54D043
:20213000A868401C044617F059FD1022241D38802146B81C0FF092F804F1100017F081FA06
:2021500078613A465DE0072972D1062015F0D0FF071C3AD0A868401C024617F03FFD921C9A
:20217000388012F8020BB87012F8010BF87010783871E6E709295BD1082015F0B9FF071C76
:2021900023D0A868401C024617F028FD921C3880104617F023FD921C7880104617F01EFD5B
:2021B000921CB88012F8014B484604B10120B8711078494600B10121F971C2E70F2937D109
:2021D0000E2015F095FF021C01D11A2431E0A868401C034617F002FD1080981C10F8021BC5
:2021F00091704468D71C7C6003683B60017A397210F8091F117304E00D8B0100052917D1E0
:202210004A46AA60AB68CF49182032461F461CF0DFFFC4B26FB1D42E04D1A868006908B14B
:2022300016F08CFB384616F089FB02E0F42400E02724312021E1C0460D03010055AB00006A
:20225000A888052840F00281A86890F80080461C1A2440467138022840F2F6805F381FD01F
:20227000401E17D0401E10D0401E0BD0401E06D0401E1CBF0825281C14D105200BE0182087
:2022900005460FE0182019250CE00620072509E06DC400000820092504E0C046CDB0000069
:2022B0000E200F2515F024FF071C00F0CB804046D038022811D9C01E13D0401E04D0401E33
:2022D0000FD012E01D4201003078387070787870082015F00DFF386107E0B078B870F0782C
:2022F000F8703078387070787870D149182042461CF06EFFD349182042463B461CF068FF23
:20231000C4B2002C40F09480681C80B215F0F0FE5FEA000A00F08B800646404606F8014BB4
:20233000D03867D0401E56D0401E4CD0401E3AD0401E1ED0401E06D02A46304639460EF005
:202350008DFF29466AE03978304600F8011B4D4600F8015B00F8015B00F8015B797800F875
:20237000011BB97800F8011BF97800F8011B397950E03988304617F02BFCB98817F028FCB4
:20239000F98817F025FC07F1080117F03FFC397D017039690968401C14F039FD39698988BE
:2023B00017F016FC38E03988304617F011FC1022851CB91C28460EF051FF796905F1100045
:2023D00014F025FD28E03988304617F001FCB97800F8021BC8E73988304617F0F9FB79885C
:2023F00017F0F6FBB98817F0F3FBB97900F8011BF9790FE03988304617F0EAFBB978FD1C8B
:2024100000F8021B2A6802606B6843602A7A0272397B093000F8011B801BC1B2491C302051
:20243000524617F01DFC504616F088FA00E01A24B8F1D40F03D1386908B116F07FFA3846E1
:2024500016F07CFA1CB9F8E0F42400E02724302013E0A888012814BF272426240F200CE0E1
:20247000A888012818BF272406D1A8687649027818201CF0ADFEC4B20E20214694E0A88813
:20249000002808BF272105D0A9680878491C16F011FF0146092087E00A202727ADF80C0014
:2024B000AE888DF81870012E0CD1A8680478452C05D166491820462203AB1CF089FEBDF8A5
:2024D0000C0038B99DF81800002840D1BDF80C00401C3DE0BDF80C00401C80B215F008FE75
:2024F000071C31D0452C07D0791C204603AA15F077F98DF818000DE0452001A90DF10E029C
:2025100015F06EF90199BDF80C208DF81800781C0EF0A4FE9DF8180038709DF818000028C9
:2025300006BFBDF80C00401C0120ADF80C00BDF80C103A46082017F093FB384616F0FEF94E
:202550007BE0C046A56D00001A208DF818000120ADF80C00BDF80C1006AA082017F080FB24
:202570006BE0A888042818BF272115D1A86801788DF80810401C10F8011B8DF8091010F853
:20259000011B8DF80B103249007802AA8DF80A0018201CF01DFEC1B2042005E0A88800280E
:2025B0000CBF49462721022017F084F945E0A888012818BF272107D1A9680978484601B17C
:2025D000012017F05FF801460120EDE74FF0260933E0284612F0AAFC2FE0284612F056FEC6
:2025F0002BE0284612F07CFE27E0284613F08EFA23E039202621D7E7284610F059FC1CE0B6
:2026100028460EF0B5FB18E0284613F06FF914E028460DF005F910E0284611F065FB0CE0B5
:20263000284610F091FB08E028460AF0E3F904E0C55D010028460BF017FC484608B0BDE8F6
:20265000F087C046E58E00001D9A01001D610100819D01002DE9F04FB44C20692589216A0D
:20267000A689806DADF1440D2A468919083116F0A1FF2169886D40198865216A7619B6B207
:2026900001220DF13E008919083116F093FF216A761CB5B2042204A8A5814919083116F03B
:2026B00089FF9DF813109DF8100000EB016023699DF812102D1D00EB01409DF81110A58144
:2026D00000EB0120049017F0A5F8D863049816F0F9FCA3F84000EA2016F0DEFD0221C248E1
:2026F00025690170297CE078084328749DF93E0017F0EEFB85F8460029899DF93E00DFF803
:20271000ECB285F8480005F17400A865B5F85C00401A69684FF0000AA14640180246686003
:20273000A88985F847A041124B0818D2010952D310F0070F07D000F00700032812BF101C29
:202750006868401C43E06968C87800F00702401000F0380000EB42004018001D37E048088F
:202770002FD369684878C7112BD12C89696650464B780A7803F07F035B0003EBE2137E2B27
:202790000DD07F2B09D002F07F0280188918801C891C80B28442EBDC09E0514600E001219B
:2027B00085F860102989801C80B2814201DA504605E06968091869602989091A2981A5F8AC
:2027D0006800686E10B1B5F86800B8B168686861A889000918D295F86000002800F0168113
:2027F000284613F077FAD9F81050E86C002800F00D81B5F85000002840F0088117F012FACB
:202810005046C9F8100034E250462C4605905646069005A906AA07AB94F824700796284621
:2028300005F0AAFA002840F0E480B4F85C1060690091019026896168401A311A88B2029047
:202850000698001D03900598A36DA1693A4615300FF056FA002840F0CC80BC482689C15DDA
:20287000701A208195F8600010B1284613F032FAA58905F00705032D02D160680078E0730D
:2028900094F80F80732009A915F05AFC832010A906F020FB5146DC460AE0C278012A03D124
:2028B000002F08BFDC2028D0001D491C0990C9B29DF84000884240F39B8009988278032DD0
:2028D00007D00378AB420DD09CF800600EB1022D08D0032DE8D10378032BE5D103465B78AE
:2028F0004345E1D1BB10B3EBA20F05DA02F0030207F003039A42D0DD504680460598E77BBD
:2029100090F814E0514601E0491CC9B28E4569DD06694B00032D06EB030209D1F35C032B83
:20293000F2D15278BA42EFD10BE0C046F03200201278AA4205D09CF80020002AE4D0022DFF
:20295000E2D10698077C002F08BFB8F1DC0F4FD0A069B0F1FF3F43D0712008A915F0F0FBBD
:20297000B648078947B3089D51468446059A95421CD19CF80AE0BEF1000F08BF50460CD0E1
:202990000698C2687346504696888E4205D05B1E02F1080200F10100F6D186451ED0069AC5
:2029B000D268A36952F830209A4217D87F1E05F12C0501F10101D9D1C2000698A169C36865
:2029D000491CD150C0681058B0F1FF3F02D107980121C17084F801A050460BE0DB2009E0AB
:2029F000DB2006E0DC2004E09B33002088050020DD206070D9F810506870A8696F786865D0
:202A100027B1F22016F048FCD9F810509B4C94F88003002800F0AD80A989DFF8648201F026
:202A30000702022A65D199F80170002F61D16F78002F5ED1D9F810108DF83FA00DF13600EA
:202A5000283117F0FCF9D9F810100BA80A22283116F0B0FD414601F11002D9F81070D4F88D
:202A7000A4331088401C1080786E04210DF13F029847454609F1100B28B9606818B19DF81B
:202A90003F1080F86810D9F8107097F83000022812D1DBF8000004F57B710E460222283042
:202AB000203115F04DFE38B906F116010DF1360017F0C5F9D9F8107072480078862807D164
:202AD000688A401C6882B88900F0100010F0AAFC94F8800328B1D4F8C81311B1D9F8100095
:202AF000884717F09FF85046C9F8100016F076FBC1E0654A1778002F30D0C1F3013102295C
:202B10002CD16878002840F0B4809DF83E005F49464699F803700870B08A05F128021C350E
:202B3000002F00F10100B0820CBF50460820584953460B6000900195B4F81234117A0D2034
:202B500005F02CFA20B915F0C5FD03E04000000016F0E2FA5846D9F81050007848B1D4F899
:202B7000C81331B1284688472046D9F8105090F88003AF890A9507F0070760B1A87BFF2872
:202B900073D0032F05D1284640680078042802DD6BE0012F69D1381C3AD0401E50D0801E12
:202BB00063D1A889C0F30130022803D16868007807282BD02889002857D0284641684A1CCF
:202BD00042600F78AC46C7739CF824606EB9002F4BD00A2F49DA2F490089C95D814209D0E8
:202BF000082F42D1082805D03FE0C07B00283CD00A283ADA28460189491E0181C17B0B3149
:202C100001700A99C87B401CC8731BE0322018E094F8F9030F280BD016F01AFE40B90A981E
:202C30008189091301F00201022901DA2169884794F82F040A9D2874152002E02822002088
:202C5000162028700A9904F1840014F017FD124D6868804794F88C10491C84F88C10A968B6
:202C70008847202016F032FF3DE70AA814F058F839E711F0A1FD11B0BDE8F08F0802002006
:202C9000102100209F3300209D33002036230020F81F0020470000009C1900202DE9F04FD0
:202CB0000C46A24F01683960416880687960ADF12C0DB860204614F0C3F94FF008084FF0B2
:202CD000010BADF8088002A8ADF80AB0396808908847974E9DF80C1071700499716108B1FB
:202CF00016F010F9206880477868804709904FF40055ADF808801E203968ADF80A00089833
:202D10000395884714F0D8F88A4C206C40688047206CC16868468847206C83686A4600201E
:202D300001469847E06308B916F0ECF816F0DAFA814DC4F8DC50814BC4F8E030D449C4F86E
:202D5000E810D4483061D44AC4F8E4200025A4F85C50D24BC4F8EC3004F5C871C4F86C1113
:202D700004F1DC00C4F87401CD4AC4F8F02004F1C803C4F8703115F0A7F804F1A00304F50C
:202D90001E70C4F87C31C74BC4F87801B4F85C20C4F8B83042F00102A4F85C2003F16E0169
:202DB000C4F8BC1003F1DC00C4F8C400BE4BC4F81031BE49C4F8141142F00202A4F85C20EF
:202DD00004F14C03C4F88031B949A160BB4AE26104F1F403C4F8843104F16000C4F88C01EC
:202DF000B449E160B84AA266B34BA36104F17001C4F88811B24B2366B64AC4F82822B14938
:202E10006166B24BE366B249C4F81812B24BC4F83832B249216115F041F8B14BB14A636418
:202E3000B149A264B4F85C00616140F01000A4F85C0004F14403C4F88031AC48C4F81C010A
:202E500015F02CF8AA4BC4F88433AA4AC4F88823A949C4F88C13A94BC4F89033A84AC4F808
:202E70009423A849C4F89813A74BC4F89C33A74AC4F8A023A649C4F8A41384F88053A54BA5
:202E9000B560A54AC4F8A833A449C4F8AC23B4F85C00C4F8B01340F00800A4F85C00A04B6D
:202EB000C4F8B4339F4AC4F8B8239F49C4F8BC139E4BC4F8C0339E4AC4F8C4239D49C4F8A7
:202ED000C8139D4BC4F8CC339C4AC4F8D0239C49C4F8D4139B4BC4F8D8339B4AC4F8DC23FA
:202EF0009A49C4F8E0139A4BC4F8E433994AC4F8E82399490D60994B83F800B002205D8071
:202F100015F0AEFAFF210222F06216F0E7FFF01CFF21022216F0E2FF022015F0A1FADFF8A2
:202F30004092C9F8000068B90AE0C0469C190020C41F0020080200205D920000294801007A
:202F500015F0E0FF484600682946022216F0C6FF07A806A913F0CCFFF06A9DF81C10421C84
:202F700001709DF81C00107025709DF81C00B07015F034FDB061DDF820903968ADF808809F
:202F90001420ADF80A00484688471523ADF808800398ADF80A303968F06148468847724BF6
:202FB0000398DFF8CCA1714A1D70801E30626D4E1570BAF80E10357001F10E00757080B2DE
:202FD000356115F04BFE8DF80C508146CDF808906849C6F814909DF80D0065F301008DF865
:202FF0000D009DF80D0065F383008DF80D00BAF80E009DF80D30088065F307138DF80D3057
:20301000ADF80E007069424602A916F0D3FA7562C6F8209013F046F9574E3078012802D03F
:20303000284602F0BFFE55480570554B1D703078012802D0284602F0B5FEB96809988847DD
:2030500001F072FA15F02AFE94F82F0412F0AEFF584602F0A7FE10F08CFA4A4805703078FE
:20307000012802D0284602F09DFE11F0EFFC1820454EADF80880454DADF80A0039680396EB
:2030900008980495884703F0ABFA0BB0BDE8F08FA5DC0000315D0100658E010059EC000058
:2030B000612C0100CC010000B9DB000015FE000049460100B55B01005F9D01009D9A010028
:2030D000B9C6000061BD00009D5E010089750100ED530100492E0100439E0100F9A3000011
:2030F000A501010049D00000F1B500004D8C0100610F01005972000085350100916E010089
:20311000C9830000B1F900007960000035360000372301004D8B000091DD0000BD96010070
:2031300069970000ED5901007D85010061DF0000C1AC000005700000BF8E010071FA00005A
:20315000254C010061800100D9600100AD880100DD920100F59D01007C330020382300204E
:2031700090330020F03200209B3300209D3300202822002084190020652200209F3300207C
:20319000973300209C33002047490100E02100202DE9FE4FDD4981460122A1F130000260FD
:2031B000D8480768002FFCD0D74AE34EC027D848D84B17603268920808D2324652F8042C82
:2031D00003F14104120C42F0F00222704FF0000A8346C1F800A0DFF88CC3DBF80810E04F27
:2031F0000191880E43D2480E41D3802018744FF6D802A3F8512018703868C0F30464162C3C
:20321000A8BF203C1E460F3E307800F01F001628A8BF2038844223D0624602F1980EE44A4E
:20323000CEF800A0251A022D05DC15F1020FB8BF6FF0010500E002254019156800F01F05E5
:20325000844245F4F855A6F866504FF001051560E8D110682E4616601068CEF800501068E3
:2032700038460068C0F30420162808DB06E0A7F1D0000068C0F30460162800DB203800EB37
:203290002170401C162805DA10F10A0FB8BF6FF0090000E01520D54E00F01F0040F4F85058
:2032B000A3F85900306880083ABFD148C0F800A041F040616246C80E8E0E80F0010000F033
:2032D0000100106086F0010000F001009060019810F00CFE0146182014F016F8A7F138060B
:2032F000CD4C30683568A4F10408C0F3870105F0030041EA0021D8F80400C04D446840F291
:20331000FF32534688B22C21009028464038A047F06AC0F30D011C2013F0F6FFB549706AC8
:20333000014000F07C400143142013F0EDFF316A01F47C000904090C0143102013F0E4FFA1
:203350007D4AB06A1268C0F30351C0F30344520813D2DBF80020130511EB237103D4102917
:20337000A8BF0F2100E05146120414EB227403D4102CA8BF0F2400E0544644EA011400F426
:203390007F4200F0FF01B9F1220F42EA044241EA020124BF00F0804001430C2013F0B4FF38
:2033B000954CB9F1220F32BF01202068C0F30070B9F1220F4FEA400040F0200085F8090159
:2033D00026BF2068C0F3407001208D4EB9F1200F40F0100085F8090138BF514606D3316871
:2033F000C80C00F44070C1F384510143282013F08BFFB9F1200F26BF3068C0F301505046B3
:20341000B9F1220F4FEA400040F0600085F80C0126BF2068C0F3C0605046B9F1220F4FEA44
:20343000C00040F0800085F8010126BF2068C0F345505046B9F1200F4FEA800040F47C40C0
:20345000A5F89C0138BF6F490AD3306801038A15920501F47C1100F00F00114341EA003193
:20347000082013F051FFCC3F4FF480002860664AB86D40F21E216FF31F40814216D9386812
:20349000030E03F00F0113F00F0FC0F3034018BF491E072805D006280EBF0720801C00F001
:2034B0000F0041EA0011A2F108000170DDF804C0CCF381477F1E02D07F1E31D02CE02068E4
:2034D000810C29D24FF480412960D2F80210430AC0F3033703F0800321F08F010B4347EA1B
:2034F0000301C2F80210D2F80130060A66F30303C2F80130116800F0E70721F0E70147EA16
:2035100001000CE09402224300600C4040100940AC3F0050156208404FF000402A46106015
:2035300005480068C0F3C0070FB94020A8624FF40070286402E0C046B03F005020684027C5
:20355000C0F3C14040F0300085F8C800CCF3815080B3401E08D0FFE7401E23D0022122E0AD
:203570008813005000002043012014F0FDFB06460420314610F010FF042014F0F5FB8642FA
:20359000FAD12248066826F07F4014F0E9F9D8F81400036807214FF06022300E98474FF425
:2035B000806028600321042010F0F6FE09E0C0462C2009400420012110F0EEFE144814F041
:2035D000CFF9203C206800F03F0085F8CB0FD8F80030124ED96830680220884710480D4CCE
:2035F000076001212160BDE8FE8FC0460000094094042A43FCFCFC008C13005040A00C401C
:203610009813005000803F400A600840A83F0050BD37860094046042A40100102C200940B9
:2036300000600C402DE9F04FADF1840D1A9104461B920DF15F00CF491C93082215F0BAFF9C
:203650002046694613F0DBFD1D9018B900200146209006E202200027A41CDFF820B31E908C
:20367000C54E2097204602A911F05FFF5FEA000900F0F38120990DF14100162216F02EFCEA
:203690009DF809707F1E00F088807F1E40F0DD81B9F10A0F40F3E481A41C06A804222146F6
:2036B00015F088FF241D07A80222214615F082FF42F20B000DF11E0112F090F9BDF81E00B3
:2036D000BDF81C10884200F3CB81A41C14F8010B14F8017B14F8015B8DF8410014F8011B3A
:2036F0008DF842700DF141028DF84350204605F087FEC24909780028044400F0B1811D9D72
:20371000012905F1020500F099814FF400500DF1570112F063F90DF157000DF15F01082244
:2037300015F00EF840B11A990DF15700082215F007F8002840F0828142F2010006A906F012
:203750000BF842F20B0007A906F006F842F205000DF1410106F000F80DF1420142F2060091
:2037700005F0FAFF0DF1430142F2070005F0F4FF11A942F2090005F0EFFF9DF8440028B15A
:20379000022840F05B8142F2030001E042F20D000DF1450105F0E0FF50E1B9F1040F40F351
:2037B0005F81A41C14F8010B14F8017B14F8015B8DF8410014F8011B8DF842700DF14102EB
:2037D0008DF84350204605F01BFE0028044400F047811A9808A906F08DF89DF83E0000284C
:2037F00040F00E819DF8440000287BD1B6F84E70002F00F00081B6F85200874207D0308B46
:20381000718B884201D109F097FCB06D20E0B76D4FF4005004A912F0E1F815F02FF94FF6A6
:20383000FF78209D1F90AA46B6F84E00A84243DCB06D4FF6FF7141450AD04FEA480707EBF4
:2038500088073818808812F0F3FDB06D3F1823D1B6F84E300746002B08BF209D19D0584668
:20387000209D40681946D846BF1FBF1DFA782AB1491E05F10105F8D1BF1D0AE08047B6F8E8
:203890005210491CA6F85210D8F808108847B6F84E30AB4200F097801A980AF0CBFBB880D0
:2038B0000120F870FD788DF83E50B888ADF83F00209B8DF82B30A3E0B88811F0D7FE014648
:2038D000082204A814F03CFF40B1388801041F9816F0CBFA82453CBF8246A8466D1CBF1DAE
:2038F000ADB2A1E7B6F84C70002F00F08480B6F85000874207D0308B718B884201D109F05A
:203910001BFC706D1FE0776D4FF4005004A912F065F815F0B3F84FF6FF78209D1F90AA4659
:20393000B6F84C00A84250DC706D4FF6FF71414509D008EB48173818B0F81F0012F078FD96
:20395000706D3F1829D1B6F84C300746002B08BF209D20D0DBF80400209D1946D846213FA2
:203970002137BA7F62B1491E05F10105F8D1213711E0C046A0040000CC1000209C190020A3
:203990008047B6F85010491CA6F85010D8F808108847B6F84C30AB4215D0209938462122B2
:2039B00016F09CFA1A980AF045FBA7F81F000123FF2039462122BB770546787208A8FD7226
:2039D00015F0F8FD1CE0612057E0B7F81F0011F04DFE0146082204A814F0B2FE38B1796874
:2039F0001F9816F042FA82453CBF8246A8466D1C2137ADB294E764203FE0C0460A020020B6
:203A10009DF83E000DF14101162240F004008DF83E000AA815F0CEFD1D9D9DF84400AD1C76
:203A300048B19DF856700DF14500394611F01EF93F1A8DF83D7008A80FF0D2FD1E9809EB95
:203A50000007BF1CB8B21E9003E01D9D4C44A41CAD1C1E9885423FF705AE1E98022803DC81
:203A700020990A46672004E01D9A911C121A2098921C1B9B19801C990A8021B0BDE8F08F49
:203A90002DE9F04FBF4C0546A07AADF1340DC00014F0E6FCDFF8F092089009F10400006875
:203AB00080470B900AA9822005F014FABDF82800002834D14FF000084FF6FF76ADF82880E4
:203AD00024E0ADF81460BDF82800ADF81660FF210822ADF8100006A816F000FAA77A57B1EB
:203AF00043461946089AC8007F1E01F10101135010448680F6D18DF82480D42004A903F092
:203B100049F9BDF82800401CADF82800A088BDF828108842D5DC82200AA903F03BF9B94F39
:203B30000020A0464FF6FF79A2463988ADF8280006E0B44FBDF828003988401CADF828008C
:203B5000BDF828008142DCBF8F48816840F34F81AD4800784FF0000B01265C460FE08A4915
:203B7000B8F804008968641CA4B2ACE0BAF80600641CA4B23CE0A448641CA4B20078A04268
:203B900008DC002ED5D1BBF1000F2ED1687F0028CFD02AE0BDF828008DF802406946ADF8F3
:203BB0000000D02005F096F90028E4D19DF80C30012B08D19DF80B0028B90DF1030015F047
:203BD000D5FC0028B5D16F7B002F0CBF052209225E469F42CFD10DF1030005F10E0115F0F0
:203BF000ADF80028C7D04FF0010BB8F806000024A0425CDDBDF82800ADF802406946ADF8F9
:203C10000000D12005F066F90028AFD1BDF804008145ABD0ADF8100004A9D42005F05AF90F
:203C300000285AD106A8291D082215F087F800289CD028886F88ADF81400BBF1000FADF82B
:203C5000167022D0287B98F80A708DF82400381C08BF00200FD00899024600208B88994572
:203C700009D0BDF828609E4205D0521E01F1080100F10100F2D187422FDD0899AA69C00000
:203C9000BDF828700A5040188780D42004A903F081F8BBF1000F0AD0287F9DF80610884250
:203CB00005D08DF806006946D12003F073F8B8F80600A0427FF43DAF3349B8F80400DFF898
:203CD0004CA189680024A04240F38F80ADF81040D42004A905F0FEF818B12B4989681924C2
:203CF00086E006AB184615F041FC38B9291D1846082215F023F800283FF431AF6F8828883C
:203D1000ADF816702E7BADF8140098F80A708DF824603B1C08BF00200FD008991A460020B5
:203D30008B88994509D0BDF828609E4205D0521E01F1080100F10100F2D1874203DC124994
:203D500089681A2454E0089A2E1DBBF1000F0CBF0021A969C00011501218BDF828003146AB
:203D70009080082206A815F025FC9AF8800330B1DAF8D0231AB1BDF8101030469047002657
:203D900006E0C046282200209C190020761CB6B2B8F80600B04221DDBDF82800ADF8026064
:203DB0006946ADF80000D12005F094F8E82803D0BDF804008145E9D1BDF810000023ADF884
:203DD00004002F7F8DF8073004A98DF80670D42002F0E0FFD120694602F0DCFF0C4881684E
:203DF000B8F80400B0427FF7BEAEA042A9D000240B988847089814F0B1FD20460DB0BDE820
:203E1000F08FC0463022002033220020080200209C1900202DE9F04F054692F808B0287DA0
:203E300009AF8846ADF1240D04933528039205D0114605F170000A2215F0BCFBDFF8D4C2AD
:203E500038F07F0606BF604600884FF6FF700590E88A800934BF002008202876E88AC0085B
:203E700034BF102080206876E88A400903D260460E30007800E00020A876E88A41082CBFE1
:203E900020240024000928BF44F010046B68002108F07F08287D06915B1E02280EDB0C2803
:203EB00008DC0C2803D1022044F40854069044F0030404E00D280CBF02200120044395F884
:203ED0008C0008B144F00804E110220900D320B1AF4E96F8242412B908B1DF204DE14908B8
:203EF00073D305F12401DFF8ACA295F88D90079100EB0A011AF809300A7999182B89491D5B
:203F1000CAB29918A44B1A8808908A42C0F23781002851D0049A039905F184000BF064F9B0
:203F300007990028086044D0806AB0F1FF3F3ED06868B9F1000F4FF00003A0F1010012D017
:203F500095F88E10524600F8011912F80910491EC9B241B14A1992F88320491EC9B20029EA
:203F700000F80129F6D1079968660968896AA962090E00F8011995F82A1000F8011995F8DC
:203F90002910089A00F8011995F8281009F0030900F8011902F0070141EAC9010170696817
:203FB000091ACAB2298968608918298105E0DB2700E0F3276F70E3E00023E88A6B70C008D2
:203FD00028BF44F010046B685B1E2A6DA2B9AA6D92B996F83D14012903D12889B0F5EE7F62
:203FF00006DA200904D202290AD144F4005401E044F48054012002E044F408540220069004
:20401000B07801280CD096F8800348B195F86B00042805D1022024F48054069044F400542F
:2040300044EA8834B8F1020FA4B20CD0B8F1030F12D1A3F1070906F58661484615F0FFFEE6
:20405000A9F1010308E0B6F81604001203F8010996F8160403F80109069802280CD0B8F1F1
:20407000000F15D0BBF1000F0CD004990598814208D144F040040BE0BBF1000F08D1B8F12F
:20409000000F05D00599081203F8010903F8011944EA8B24BBF1020FA4B20BD0BBF1030FD1
:2040B00010D10399A3F10708404615F0C8FEA8F1010307E003990888001203F80109087838
:2040D00003F80109BBF1000F05D00498011203F8011903F801093878F0B930480178287D83
:2040F0000D2814D068B9286D28B996F80004411C86F800140AE096F82504411C86F82514CA
:2041100004E096F80E04411C86F80E14014603F8011903E01A06002044F48074201203F836
:2041300001091C7068682F89C01AC1B26B6078182881200920D3A86D00B1286296F8800383
:2041500010B1287D0D2817D1686A816A4A1C82622A89286AA962C71A0092D21B019090B242
:204170000290686A95F88C2015300CF0CDF900281CBF6870071C07D10020687005E0E527CC
:204190006F70F32015F088F8F8B209B0BDE8F08F080200203C00000036220020F4320020ED
:2041B0002DE9F843DFF808830F460446F80B80F08381DFF8F892B80F80F03581BD4DB8080E
:2041D00080F02A81F80A80F00081B80B80F0EE80780B80F0C080380C80F0AF803809C0F019
:2041F0008881082015F0EEFC002840F0A180802015F0E8FC002840F09B8068460DF062F914
:20421000012803D10098002800F0928000240125E0B215F0B9FA48B1867A3EB1857290F9D3
:20423000090005FA00F0C0B213F0F0F8641C032CEED34C46032020756068783015F011FEDB
:20425000B048002601680660AF4950F8082CB146324640F8089C04F1380015F010FE3046EC
:2042700014F05CFC15F054FA0146A268E069891A090BC1F1FF3282422CBF08444FF0FF30E2
:20429000E06194F820601EB12169B0EBC12F1FD914F0C4FC494600B12946081C14D09B4887
:2042B00040F60901018049464180427B65F303024273027B61F303020273416015F0C6FB5C
:2042D000418811F4406FFBD084F820504946E16112F0A0FB8E484D4649460560022014F0A9
:2042F000B1F9022013F078F811200BF075FC207818B96068403015F0D5FD8648007810B94B
:204310000E200BF069FC94F8210020B184F82150052013F061F88048B4F98C60A061B4F904
:204330008E1025758E4214BF022007200EF050F927F0080710F090F8DBE00835296839B1E1
:20435000C86840880028FBD0C86840880128F7D027F40047EEE712F01FFE38B12046A469C8
:204370006FF4807100224FF00073A0476D494C46002204F1380015F082FD0220E6682075FE
:2043900015F0C6F9D4F81C21636804F58E719A4214BF0122002226B1801B01EB8206030B95
:2043B000B360002027F48057E060C3E74046066846B1B06830B13069B6F93410B468002230
:2043D0002023A04727F4005793E015F052FD4C460546206F0646C8B1D4F88000B0B9D4F8B8
:2043F000840098B904204D4B20756068A36110B1783015F036FD3069606015F089F9E060FA
:204410004FF4006104F1B40015F058FD284615F029FE27F480676CE007F040F8286808B97D
:2044300027F0020765E015F024FD0546042013F09BFCC8B1207CB8B148460830006898B1E3
:20445000064615F065F9E168801BE060000B8842E06002D240184008E06040F6C4118142E2
:204470002CBFB0F5967FE160284615F0FBFD12F093FD80B1A56920466FF4807100224FF0EF
:204490000073A84726480068002808BF47F0020701D00FF0E1FF2046646900214FF080637F
:2044B0000A46A04727F0005723E0C046102A0020982A0020882A002015F0DBFC41460E6857
:2044D0009EB1B16A890810D2B56AB16AA943B16215F0C8FDB06850B14DB13069B6F9341049
:2044F000B4682A460023A04701E015F0BBFD27F4804727B1404639462C3015F0DFFCBDE8D8
:20451000F883C046141004408D4E0100383300200000046082220020D5E300003DCE000050
:20453000802A0020E5F500002DE9F04FD14D286A416EADF11C0D02A888474FF00009CE4F6E
:20455000CDF80890B8688DF80C9060BB13F0F6FBA8B113F0F3FB012811D013F0EFFB052830
:204570000DD013F0EBFB0C2809D013F0E7FB0D2805D013F0E3FB0B2801D013F0DFFB13F0A4
:20459000DDFB787000280CBF48460120B870286A016A07F1180088474FF4FA703885B74E36
:2045B000FE6206243C63DFF8D882EA6998F83F444FF0010A4946080100EB41108018867F70
:2045D0002EB9437F491C9C42C9B2F4D102E0417FA14204D1824202D012F032FDEA69DFF854
:2045F000A4B2686A1BC88BE81B0097F90100012805D00D2803D00E2818BF484600D10520EA
:204610008BF8000098F86D145069A44C50F82100C4F89C0014F072FD632005A911F076FD74
:2046300098F83F0413F02CFA064694F88E006AF3020084F88E0012F0DDFA042825D012F0A3
:20465000D9FA032811D094F8900040F00F0084F8900094F8970069F3030084F89700B07B44
:20467000052814BF2420292016E094F8900040F00F0084F89000292384F8943094F8970091
:2046900069F3030084F8970008E094F8900040F00F0084F89000212084F8940094F89500D7
:2046B00069F3871084F8950012F0A4FA042818D0B37A7BB99DF8140094F89510401E60F346
:2046D000050184F8951094F8960020F03F0040F0180014E09DF8141094F8950061F30500C3
:2046F00005E094F8950020F03F0040F0020084F8950094F8960020F03F0040F0200084F8D5
:204710009600B189B07BB4F88E200A23401D484390FBF3F161F3CF02A4F88E20B08994F87C
:2047300090201923800390FBF3F102F00F00D4F890200F23484390FBF3F161F31C22C4F894
:204750009020E86994F89820017F61F3020284F8982094F89810007FC01060F3C30184F8E2
:20477000981098F92E0411F0F7F9B0F1FF3F05D0010828BF4FF6FF70A4F89A0030897168AD
:204790003368EA69401E414303EB51004FF47A71B0FBF1F0A4F8A00090690078A4F88290E5
:2047B000C4F8849094F88D3084F8A4006AF3030384F88D3015F03CFAC8B9B089324A98F813
:2047D0003F64B1FBF0F0C0B21070B1FBF0F02F49022E487006D012F00DFA032807D10522B3
:2047F0005C2001E00222A820294B1A700870BB682E6A5BB3484611F077FDF87898F83F14CB
:20481000884212D13A7998F86D142E6AB8688A420DD102214A468DE80600366D80344B469F
:2048300002AA2146B047EC601BE02E6AB8687168884718482B6A80F800A01E681648803412
:204850005946224607F11803B04707E0803422461148346807F118035946A047B860686ABC
:20487000A86298F83F0498F86D64F87007B03E71BDE8F08FA01D0020901F0020572D0100C7
:204890000802002060330020CC210020342300201021002066220020B8300020C4180020AA
:2048B0002DE9F04FBA4D07466868ADF1140D80470024DFF8E0820390002F88F8034000F017
:2048D000D58013F001FB08F53B702146402215F005FBB14D29892C20484380B213F0C0FD85
:2048F000C8F81003E97A28894843410001EBC00188B213F0B5FDC8F81403E98828894843D5
:20491000800080B213F0ACFDC8F818032889800080B213F0A5FDC8F81C03288980B122461D
:20493000D8F8101389180C75D8F8101389180C71D8F81013401E114402F12C028C81EFD1AD
:20495000A946B9F80410880000EB011080B213F087FD4FF6FF7AA3462546C8F8200334E04D
:20497000304612F0C1FB029002A812F0D9F9BFE0304612F0B9FB019001A812F0D1F9B1E081
:20499000684612F0CDF99CE099F80A00C00013F067FD99F80A70D8F82013AE0006EB05168B
:2049B0008919C8607FB12146D8F820038019C368CA0042F803B0C0687F1E01F1010110440B
:2049D000A0F804A0F0D16D1CADB2B9F80400A842DADC8548FF210822C01D15F07FFA824851
:2049F000FF21082288F8FB12103015F077FA0323B9F8087088F80C33A8F80EA3B7B101262C
:204A100004252246D8F81C0391000E54D8F81C0340184570D8F81C0340188370D8F81C03EE
:204A30007F1E02F101020844C570EBD16E480121042505220227343000F8041F457082701F
:204A50007F1EC170F8D1684880F83C30B9F8040048B12146D8F82023401E0A4401F1140140
:204A7000A2F802A0F6D1022088F8F00298F8800318B1D8F8840300B180470FF0E7FF98F96E
:204A90002E0414F076FF13F035FA14F0CDFE14F019FD14F00BFD414E072556F8040B00B16B
:204AB00080476D1EF9D114F049FD454605F15400016809B112F034F93948006885F85E4055
:204AD00028B10DF041FD002800907FF459AF35480078012802D0204601F064F9324805F16B
:204AF00080060470D5F8800000287FF441AF361DD5F8840000287FF433AFC5F880402B48C3
:204B1000C5F89001C5F88440294FC5F8947185F88A40284EC5F8986185F88B40264BC5F893
:204B30009C31AC70254AC5F8A02185F88C402449C5F8A4112749C5F8C810224FC5F8A8711B
:204B5000254FC5F8CC70204EC5F8AC61234E1F4BC5F8D0600E49C5F8B031214B1C4AC5F854
:204B7000D4308968C5F8B4211E4A0398C5F8D820884705F21541522005F0B0FA95F82F04F9
:204B900011F0CCF90FF062FF204605B0BDE8F08F9C190020080200202822002018030020FC
:204BB00090330020652200209A33002047430100379E0100E1820100BD95000031E800003E
:204BD0008D8C01002175010095C5000079AF0000617A01002B1A010065B300000D38010012
:204BF00065180100B9410100F4040020B0B50446C6480768ADF1480D002F00F08581207838
:204C1000401E112800F28081DFE810F063014F013501200119010301F100E300C300B200C1
:204C30008D005D00530042007E012A001C001200F86B002800F06881684621460DF0A2FAFC
:204C5000F96B5FE1386C002800F05E816846002101220EF03FF860788DF80000396C51E1AA
:204C7000F86A002800F05081684600210E220EF031F8A11C684614F0DDFBA57BA189002200
:204C9000ADF80A1005B101228DF80C20F96A3AE1B86B002800F038816846002102220EF058
:204CB00019F8A5788DF8015060788DF80000B96B28E1786B002800F02781684621460DF0A1
:204CD00061FA796B1EE1386B08B36846002114220EF000F8A5788DF80150A3680193A28970
:204CF000ADF80820A17B8DF80A1060788DF80000E57B8DF80B50237C8DF80C3094F9112061
:204D10008DF80D2061690491396B684688476068002800F0F9800146F2200870002048704F
:204D300011F01EFEF0E0B86A002800F0ED806846002124220DF0CEFF6078A11C8DF80000D6
:204D50000DF1020014F076FB04F10C0103A814F071FB257EE08A04F119018DF818500B227B
:204D7000ADF816000DF119000CF078FAB96AC9E0786A002800F0C8806846002102220DF0E5
:204D9000A9FFA5788DF8015060788DF80000796AB8E0386A002800F0B7806846002112229C
:204DB0000DF098FF658862796078ADF8025023798DF80520E11D8DF80000A5798DF8043018
:204DD0000B220DF107008DF806500CF047FA396A98E0F869002800F09780684600210122DC
:204DF0000DF078FF60788DF80000F9698AE0B86910B1204610F01CFBA07820B9A069002885
:204E100000F0828002E0A06900287DD013F076FD7AE07869002877D06846002113220DF00F
:204E300059FF6D46A01C0168406829600B22686004F10A0102A80CF011FA796962E0386996
:204E5000002861D020460BF00BFC5DE0F86800285AD0684600210E220DF03CFF6078A11CC6
:204E70008DF800000DF1020014F0E4FAA089ADF80C00F96846E0B868002845D0684600212E
:204E900014220DF027FFA01C01686D46296040686860A07A0B2204F10B018DF808000DF105
:204EB00009000CF0DBF9B9682CE0786860B36846002110220DF00EFF60786588211D8DF856
:204ED00000000B22ADF8025001A80CF0C7F9796818E03868C0B16846002119220DF0FAFE50
:204EF000A01C01686D46296040686860A07A02A911F0AAFF0B220DF10E0004F10B010CF02C
:204F1000ADF939686846884712B0B0BD1C2200202DE9F04FBD4DDFF8FC92BF4C4FF000081A
:204F30004FF0010AADF11C0DE0694FF0FF3115F095F8D9F80400804727896689A288A4F805
:204F50000880E188A4F80A80114347EA010246EA0201A180D9F80810A4F806808847A0884C
:204F7000010A24BF20F08000A0800927D9F80010ADF802700820ADF8000068468847DDF83C
:204F900008B00028CDF80CB039D120789DF80620616A904233D139B1A078401E02D0401E12
:204FB00002D126E05846884758460DF0A5F8071C25D00C2013F0B0F8061C1DD0D9F8040090
:204FD0008047B7603B7883465BB92069314615F041F8A08840F01000A080E06915F036F811
:204FF00005E0304613F0CAFC384613F0C7FCD9F808105846884702E0384613F0BFFCA3889A
:2050100058092ED3206915F01DF8E8B9D9F8041014F0C0FDC0B988470646206915F00EF80C
:20503000071C0DD0B8684068A061B968486849880CF042FFB86813F0A1FC384613F09EFCDD
:20505000D9F8081030468847206914F0FBFF20B9E06914F0FBFFA38803E0A38823F010030C
:20507000A3809808C0F0948080E004A8514612F07FF9287800286DD0401E71D0401E5ED04C
:20509000401E47D0401E1ED0401E6FD19DF810006978A8706F68A868C91CCEB205903146AB
:2050B00014F07CFA9DF81010814205D147B1059930464246B84703E05548006813F06EFC30
:2050D00085F8008052E0AF68E8789DF81010C019C170E878401CC3B2EB7013F02FFD6978BF
:2050F000C6B2C91AB1420CDBD8193146C01C12F03FF9E87869788019C0B2E870814224D092
:2051100034E0DB1989B2DB1C184612F031F96878E8701AE09DF8100085F803809DF81070CF
:205130006870F81C12F0BCFF0028A86008BF85F8008020D06978017085F800A016E09DF8D8
:205150001000A9688870687810B9052028700DE00420FBE79DF81000FE2807D10320F5E72B
:205170009DF81000A968487002272F7013F0E6FC00287FF47AAFA38813F0E0FC002804BF4B
:2051900023F00203A38003D0E06914F05FFFA388180927D3606914F051FF071C15D0216A50
:2051B00069B1607858B1401E02D0401E0AD103E0B86811F01DFA216AB868884702E0B868E4
:2051D00011F016FA384613F0D9FB606914F03AFF20B9E06914F03AFFA38803E0A38823F0A8
:2051F0000803A380D808FFF49FAE23F004032069A38014F027FF00287FF496AEA08840F02A
:205210001000A080E06914F021FF8DE6742200207C2200209C190020640D0020BA482DE97C
:20523000F84F0025B94CB749056094F8E200002800F06381012800F02F81B54E02283CD01C
:20525000032840F05A8151F8250CD4F8B8100029A0F5C060C4F8D400B8BF49420028B8BFEB
:205270004042814226DA4FF08057D7F8A4014568B4F8BC0030214FF47F42082300903046B4
:20529000A847D7F8A4014568B4F8C00004214FF4F802122300903046A847D7F8A401B4F8D6
:2052B000D070456820214FF440620A2330460097A847012584F8D8501AE151F8258C14F0DF
:2052D00057FC2F4600B901273946924F38680028FCD0B146012609F10409D9F82CA03E60C1
:2052F00009B114F04BFCCAF30720C4F8BC0014F03FFCAA4600B9B2463B68002BFCD0D9F8F2
:2053100000B0BAF1000F3E6001D014F037FCCBF38440C4F8C00014F02BFCAA4600B9B246A3
:205330003B68002BFCD0D9F81C90BAF1000F3E6001D014F023FCC9F38120C4F8D000B8F564
:20535000C061C4F8B81000F09C8094F8D80068B9C4F8D410D4F8C000C4F8C800D4F8BC705F
:20537000C4F8C470D4F8D030C4F8CC30D4F8D400D4F8BC30002854BF02226FF0010204F19B
:20539000C8010F6800EB40008018421000EB927207EBA2000860D4F8C810C4F8C430002940
:2053B0001CDD1E293CDDD4F8CC0030B93429B4BF15391E21C4F8C81025E02A29BABFD4F875
:2053D000C8000B381E20C4F8C800D4F8C4003F28B4BF401C3F20C4F8C4001FE0D4F8CC00B4
:2053F000032812D011F10B0FC6BFD4F8C8000B30301CC4F8C800D4F8C4000028C4BF401EB7
:20541000051CC4F8C450032508E011F1150FC6BFD4F8C8001530301CC4F8C800C4F8CC504F
:205430004FF08057D7F8A401B4F8C43030214FF47F424568364800930823A847D7F8A40191
:2054500004214FF400321123456831480096A847B4F8C860D7F8A40104214FF4F8021223E4
:2054700045682B480096A847D7F8A40120214FF440620A23B4F8CC60456825480096A84739
:2054900001E084F8D85040F2FF50404502D8801C40452DD208202EE051F8251C1E4F4BF20D
:2054B000F5204843060A3868C0F3814001280AD112F06EFE11F090FA14F066FB3111C010A4
:2054D000484306EBE03694F8E50030B91348006820F07F403618760801E084F8E550104888
:2054F000310C0660012741600E4D8760287808B90B2000E0052084F8E40004F027FDBDE840
:20551000F88FC0462D400C402C500C40B017002000A00C4000800C40B43F00501020094012
:205530003C600C40ED0A0000B2492DE9F04F09781346ADF1240D814240F0598158781F784F
:205550009E780690FA2F079600F3398100F01E004FF001090A2880F22E810698A64900F0F5
:205570001F0051F82060002E089600F02481069ADD1CADF80C70079E8DF8082028468DF8D3
:20559000096032F07F04049000F01181002F4FF0040A00F0F68001781B798DF80B1021F037
:2055B00007048DF80A30083C00F0E480DFF84C82083C4ED0083C07D0083C40F0D880032F59
:2055D00008BF4FF0000ADCE0032F40F0DA80841C04944446257DADF80C900027012D30D138
:2055F000257F95422AD1627FB24227D1E27F514011F0070F22D1A17F99421DD18078A8B122
:20561000401E12D0401E032818D9001F02D0401E14D008E0607D1B1AB3F1FF3F06D00720B4
:205630000FF0E0FDA1E008270EE0B94602A849460BF062FE074604E0032705E007200FF0E7
:20565000D1FD002F00F091803A4602A82021002789E0042FC0F295808346A81C14F0BEFAFE
:205670004446054620783F1FFEB2002701282BD19DF80810227A914223D19DF80910627AB9
:2056900091421ED19DF80A10A27A914219DB9DF80BC0E37A9C4512D1A3899D420DD1914269
:2056B00006D0A1788E420DD0A1888E4205D109E002202070A1788E4204D0574602E002276F
:2056D00000E00327216927B99DF80A30042808D020E0084613F022F9504620709DF80A3012
:2056F000A372ABB902A90EC904F1080080E80E00284612F0E9FC2061002804BF20780627A6
:2057100008D000206070A670A580A581207005E007B90327042822D002281CD02169A27819
:205730009DF80A008846504380B2324640180BF104010BF093FD9DF80A00A072A088801B57
:2057500086B2A68036B9CDF81080ADF80C500627D14602E02078042801D04E46267004F1BC
:20577000080018213A4612F01DFCBA4609E04FF0050A06E07F1E401CADF80C704FF0060AB7
:205790000490D146B9F1060F15D1089902A888478146049878B10190194808210527ADF817
:2057B00000100168ADF802706846884703E0089902A888478146B9F1000F02D10FE04FF04E
:2057D00004090698079F8DF81490002103228DF8150005AB8DF81670602004F0EFFA0949F5
:2057F0000888401C0880002002210DF015FC09B0BDE8F08F640D0020E8200020C832002024
:205810009C190020001E00202DE9F04FA54E814606F120000068416EADF12C0D03A88847D7
:205830000020AE4F0790381D016808894A68C5009B48127800781035920906D340F6485270
:2058500092FBF0F2AD1805F5AF750C7D68438500352C0CBF00244FF4FA540DF12601E8201F
:2058700010F054FC9DF82600032808BF44F620642D193C466068007D352803D1D4F8E4036C
:20589000804745430220B3468DF82000884FDBF82000069507F10803826E186806A990478B
:2058B0004FF0000801208049804D087029788BF80080012901D000F075FA60680589466860
:2058D00013F00CFA3088000935D394F8807361688FB34B6A4F6E986AB0F1FF3F25D027B33A
:2058F000421C9A628862030E07F80139606890F82A0007F80109606890F8290007F8010905
:20591000606890F8280038706268106A00950190801B281A80B20290916A506A92F88C2061
:20593000334615300AF0F0FD00E0DB20D4F8C473002840F0A880294630460CF0C1FD642031
:2059500009A910F0E3FB5B4894F88013007831B994F82F0409F002FF012805D08FE009F064
:20597000FDFE012840F08B80DFF84CA1A81C87B20DF125010AF170000780E92010F0C6FB17
:205990009DF82500012805D13D46C5F3022040F0180005E02D1DADB2C5F3022040F00800F9
:2059B00006F8010D06F8015D55469DF82400A5F862800028EE670CBF404841484346039324
:2059D00002228DF8102005F12806A6F8028005F1600AC5F8B8003B4FCAF8180095F835009F
:2059F00020F00F0040F0030085F835007868A5F846808047DFF8D0800A90B9F1010F1DD021
:205A1000B9F1040F1AD0B9F1000F14D0B9F1050F0ED0B9F1030F08D194F83F0412F030F808
:205A3000C07B022818BF56460AE005F1600607E0DFF8988004E005F1440601E005F1280639
:205A5000DBF820001A4B046D002102208DE80300986803AA31464346A0471D490880B9680F
:205A700000280AD41B4A92F900006035401C10700A98CBF80C5088470EE00A9888471A2086
:205A90000CF0ECFF08E0002F08BFE420F8D0124880F80080E420B8470BB0BDE8F08FC0462B
:205AB000CC210020A01D00205B22002065220020901F002037230020C41800204E905555DB
:205AD0000E7A55559C190020B5B90000A9F60000F41F0020622200209F33002008020020AF
:205AF0002DE9F04FAC4C07460020ADF13C0DDFF8A482ADF80C00201D00688946017D252907
:205B100000F00281703005A903F0F4FE002818BFC0B240F03B8101A804A90DF0B7FA11F06D
:205B300069F8042814BF41F2081543F2C82504A901A80DF0ABFA98F82B2201993B684FF42E
:205B50007A7A504650430AFB1100C01A8542C0F2D880D8F80422521A0AFB02F1C91A8D424B
:205B700000F3CF808542A34609DD002807DD95FBFAF04FF4916100B201FB003038609DF877
:205B90001F00002857D042F204000DF136010FF025FF12F053FF0699441A42F206000DF16E
:205BB00035010FF01BFF9DF835009DF81D10FF2804BF0A208DF83500FF2908BF0A219DF87D
:205BD00035609DF81C507548B4FBF0F2701884B25646A81054437043A04298BF041C41F2E9
:205BF0000810241805A812F076FC9DF81C103D68B0FBF1F24A43821A714392B272438B1AB1
:205C1000891A5B1B491B8C4201D9002908D56142994212D2002B10D5B4FBF6F109B203E0A3
:205C30006100B1FBF6F189B23A684FF4916303FB01253D6001E03D68002006460DF1120188
:205C500002A80DF023FA0298D8F804120024B5FBFAF280180290814203D998F82B328342B5
:205C700002D998F898712FBB9DF81C00B6180004B04298BF361A9DF81F00002808BF9DF862
:205C9000200024D09DF81C00B6FBF0F085B2BDF833000FF0EBFC9DF831200146284610F0FE
:205CB000CDF9054612F004FC024608A9284610F09FFB0CE0814204D8BDF81200401CADF86D
:205CD0001200BDF8120098F89B110DF03BFB89F8000088F8F501DBF80400007D052811D112
:205CF0009BF8150470B999F8000003A9ADF80C0042F20C0003F030FDBDF80C00A8F8F0011F
:205D100000E06524204641E010F074FF042814BF41F2081543F2C825214800784FF47A748D
:205D300004FB00F13868491BA1F5FA62824206D2A1F57A61B0FBF1F24A43801A3860684665
:205D50000DF10E010DF0A2F93868009998F82B2204FB010154430091611A8D4211DCA4F57F
:205D7000FA648C42BCBF00F5FA60386098F89B11B8F878010DF0E6FA0146002089F800104B
:205D900002E099F80010652088F8F5110FB0BDE8F08FC046CC10002008020020A08601002F
:205DB000F71200202DE9F04FAD4C05466068ADF11C0D80479F4EDFF888B2012D069000F009
:205DD000D58013F0A3FB002800F0CB8092480078A0B99248007888B99148007870B99148C9
:205DF000007858B99048007840B99048007828B98F480078002808BF012700D00027306A99
:205E1000002F00F13C0000F0AC80964C0068257880476168DFF82492E368AA00401AB0FBFC
:205E3000F2F7A0684FF00008B24642469F42144672EB040101DA984205D8414687428A4150
:205E500040DA034600E0414618462A46EB17C01B71EB080113F0BAFB272607464FF47A72D7
:205E700000238846ADF80A600820ADF8080038460DF048FB7A490968039002A888470498A3
:205E900023464FF0000100F6FC02BF1A78EB0308784271EB080112DA6748026841463846E5
:205EB0000DF030FB884607464FF00001784271EB080104DA384610F03BFB002000E001207D
:205ED0004C4620704C46207800284AD1002738460DF0FEF900B101270026381C3FD15D4684
:205EF000287800283BD1DAF82000564C436CA068022102AA98479DF8080080B3DFF8488155
:205F1000DAF82020A06898F90010374611F1020F18BF01274FF0010937B1926B98F9001058
:205F30009047DAF82020A068484F97F9001011F1020F03D0926B97F9001090476FF001006F
:205F5000387088F8000085F80090304613F0A6FDDAF82000C169A06888478AF8016037488B
:205F700006703F4906988968884751E001200DF0AFF921460698896888475D46287801288D
:205F900038D1012013F08AFD12F092FB38B1287801282FD10020287013F0C4FA2AE0204613
:205FB00040688047002402278246DFF8A490306AA9F80240416E2F7002A8884702948DF8E3
:205FD0000C70306A1F4A234BD0F850C0A04602F108008DE880010068494602AAE0471E49E4
:205FF0001F4C91F90000401C0870A168C6F80C905046884712F05CFB50B929781748022973
:2060100008BF01780078012802D028780228FCD007B0BDE8F08FC0469B3300209D33002068
:206030009F3300209C3300205A2200205B2200205C220020A01D0020E01F00209E330020AB
:2060500066220020901F00205822002059220020C41800204D590100622200206522002096
:206070009C190020CC2100202DE9F04F00289A461446ADF1340D00F0F48011F47C1F40F064
:20609000ED8011F00F0F00F0EC8007460591002006900B900A904FF0000909904D46089529
:2060B0004FF0010BCDF810B0054648460790059805990BEA000021EA0B014FEA4B0B401E5C
:2060D000059100F0AB80401E70D0801E5DD0001F40F0BE8042F205000DF10E010FF07EFC4A
:2060F0009DF80E60002E00F0B3801CB1276694F86B0006900720152607F8010B022301A919
:2061100007F8016B42F2010007F8013B0FF066FC684603A90CF0BAFF06980EF00DF901463B
:20613000019A00983E4640180090824206D8801ABDF80C300090581CADF80C00009B5008DB
:206150004946804609041804030C194300044B4610EB080041EB09010BF014FC0090BDF828
:206170000C309DF80C009DF800209DF8011006F8010B181206F8010B9DF8023006F8012BA8
:206190009DF803200935BF1D42E00220152607F8010B042307F8016BBAF1000F07F8013B0C
:2061B0000CBF09989AF800002D1D4EE01CB1E76594F86B00069005201526049B07F8010BA9
:2061D0000DF10F0107F8016B42F2040007F8013B0FF004FC02A810F04BF906980EF0ACF896
:2061F00002999DF80F609DF80F30069AED1D4018000200EB6600B0FBF3F03E4602903F1DC7
:2062100006F8012B9DF808109DF809309DF80A2006F8011B06F8013B327018E003201526BE
:2062300007F8010BBAF1000F07F8016B034607F8013B04BF0B9807F8010B05D09AF80000C2
:2062500007F8010B9AF801006D1D07F8010BADB2059800287FF42BAF2E4661E011F00F0FB6
:2062700001D000205DE080468A4602264FF4803908F1020509EA0A002AEA090A4FEA490977
:20629000B0F580301AD0B0F5803014D0B0F500300ED0B0F5802009D0B0F5002004D0B0F567
:2062B00080102AD1072404E0062402E0052400E00424002704E00224012701E0012427462B
:2062D000A81C214600F030F847B104F00F04C0F30A0141EAC42141F4004105E004F07F04CC
:2062F00000F0FF0141EA042105F8011B0912871929702D18B81C6D1C86B2BAF1000FB9D1C3
:20631000022ED8BF00260BDDB01E4FF6FE7708F8010BF019C0F3022040F0A00088F80000D6
:2063300030460DB0BDE8F08FF0B504460846ADF16C0D401E70D0401E0DD0801E00F00981B1
:20635000401E00F0EF80401E00F0E180401E00F0AD80002042E142F2010007A90FF03EFBE6
:2063700042F20B0008A90FF039FB42F206000DF165010FF033FB42F207000DF166010FF080
:206390002DFB42F2050019A90FF028FB04A80AF0AFFB06460DF1670142F209000FF01EFB51
:2063B0009DF86700002808BF002503D0022011F083FC0546204607A9042213F0FBF8241D8A
:2063D00008A90222204613F0F5F8A71C9DF864009DF865309DF866109DF8674007F8010B4A
:2063F0009DF8672007F8013B2B4607F8011B610706F0070444EA916005F0030404AD40EA4B
:206410008410314607F8010B012400953846019406F010FF0A309AE042F206000DF1650132
:206430000FF0DCFA42F207000DF166010FF0D6FA42F2040019A90FF0D1FA04A80AF058FB4B
:2064500005460DF1670142F208000FF0C7FA9DF86700002808BF002303D0012011F02CFC54
:2064700003469DF864009DF8657004F8010B9DF8666004F8017B9DF867209DF8677079077D
:2064900004F8016B03F0030705F0070646EA916004AE40EA8710294604F8010B00270096BD
:2064B0002046019706F0C6FE001D50E042F2150011A90FF093FA13AF42F2160039460FF0AE
:2064D0008DFA15AD42F2170029460FF087FA17AE42F2180031460FF081FA204611A90822DD
:2064F00013F068F8083408222046394613F062F804F1080708223846294613F05BF80822E6
:2065100007F10800314613F055F8202066E042F214000DF122010FF061FABDF82210022052
:206530000A1258E009A80021202213F0D7FC42F2130009A90FF052FA09A813F0D1FC024600
:2065500009A9204613F036F809A813F0C9FC80B244E042F20E0002A90FF040FA0DF10A01E4
:2065700042F20F000FF03AFA0DF10B0142F20A000FF034FA03A942F210000FF02FFA0DF10A
:206590000D0142F211000FF029FA0DF10E0142F212000FF023FABDF808009DF80B209DF8F5
:2065B0000C709DF80D609DF80E509DF80A1004F8010B02F00102001204F8010B07F001009C
:2065D00042EA400206F0010042EA800205F0070042EA4012042004F8011B22701BB0F0BDD8
:2065F0002DE9F04FA94D05F128000068ADF11C0D0FF07EFF08B112F077FCA048DFF878B260
:20661000DFF88C82DFF87CA20068A24C059011F03BFF12F0E3F9EF69AE69B7F57A7F13D095
:20663000801B4FF47A720023A7FB00010BF0AAF981464FF47A72002312F0C8FF3A46002397
:206650000BF0A0F9301801E0A0EB0609A861DBF8000020F00200CBF8000060688047DAF8C1
:206670000010DAF804204E468919B1F57A7F0DD34FF47A73B1FBF3F3D218CAF804204FF47A
:206690007A731F46B1FBF7F25A43891ACAF80010A1688847606800968047D8F8041089196E
:2066B000C8F80410A1688847D8F8000000285AD007464FF00009606880470490BDF802008D
:2066D000002690B99DF8010078B99DF800003979884204DD0098796888420AD20BE09DF8E3
:2066F00000103879401A387108E000987968884201D3314601E07968091A7960B88878B921
:20671000FB8853B9FB6843B13B8933B1B87A19460AF04AF9F8687860B88808B9FB880BB195
:206730003B896BB9B9F1000F04BF3868C8F8000003D03868C9F8000038683E46074601E0FF
:20675000B9463F68A1680498884756B1B3882BB9F3881BB9B07A31890AF026F9304612F025
:20677000FDF8002FA7D1DBF8000040F00200CBF80000E86828B3804723E016F8060C2969FE
:20679000A6F10C07032819D0E96A9DF806000978884210D116F8080C11F0D2F9B9790129C7
:2067B00003D0022908BFB07000E03070002031460EF062F805E012F097FB02E009B13046EA
:2067D000884708200727ADF800002168ADF8027068468847029E0028CFD0294800680088FA
:2067F000C8B1606880472649096800220E880A80A1688847059A0020314628709047064696
:20681000FF202870606880471D4909680A8816430E80A168884711F037FE0746B7F1FF3F91
:206830001CD0606807B9184F296AB94238BF0F1C80471C2306466A6AADF802300820ADF8F3
:2068500000002168019268468847A96A3846491CA96210F0A3F8A1683046884708200A274C
:20687000ADF800004FF0FF36ADF802702168019668468847CBE6C04610E000E0940B000015
:2068900090330020942200208EC2F528C41F0020783300209C1900202DE9FE4F0546287DCC
:2068B000012807D195F917000FF056F9B0F1FF3F00F016819548EF7B017895481FB990F871
:2068D0008B208A4208DB012F03D190F88A208A4202DBF120BDE8FE8F80462E6A95F835000C
:2068F000B5F8289095F83470AC8B4FF0000A5FEA060B029017D098F88033002B2FD0D8F862
:20691000981300292BD006F0FF008847D8F8981306B20BF47F008847361830B2001D00B255
:20693000C83086B200E0C8260CB1241DA4B298F82404012809D147B1764802993F1897F803
:2069500004A0405C8019401D86B209EB040080195044801C80B211F005FF071C02D11A2091
:20697000BDE8FE8F09EB0A0033193881002C03EB070078600EBF0020B819801C00217822C4
:20699000C7F8A40007F10C0013F0A8FA09EB0600FF2110220019A7F84C0007F13C0013F054
:2069B0009DFA07F12C000F21102213F097FA00243C707C707868696A2A8D12F0FBFD07F1FE
:2069D000840005F12C010B2212F0F4FD07F19000294612F047FC6889A7F89A00287B87F858
:2069F0009C00687B05F10E0687F89D00326869460A60706848609DF800102046012908BFB3
:206A100001209DF80110012908BF40F004009DF80210012908BF40F008009DF803100129D8
:206A300008BF40F010009DF80410012908BF40F020009DF80510012908BF40F040009DF8B5
:206A50000610012908BF40F080009DF80710012908BF40F48070A7F89E00A87D87F8A0002D
:206A7000E87D87F8A10095F8380087F86C00AA8BA7F8A82022B1D7F8A400A96912F09AFD44
:206A9000A87F87F8AA00286AC7F8AC00B7F8A800C0B1D7F8A400A8B17868401E7860F821D6
:206AB00001707868401E78600470B7F8A810B7F8A8607868401A786038898019801C3881EC
:206AD0007868B865B7F89E00410A16D395F83710052905DB00F0040100F00100084302D043
:206AF000E820BDE8FE8F08F1900630460BF0F6FE95F83710304612F055FB98F800003946AD
:206B10000DF0BAFE2046BDE8FE8FC04628220020080200203C0000002DE9FE4F05469A46B4
:206B300093468846009513F0A4F997490CAF0C680290AC4208BF4C68944D6FF0010001908D
:206B500034B104F19C0012F041FF002840F00A8111F066FD061C00F01181DDF8009009F123
:206B7000780013F07EF9C6F80C80B5F98C009BF80430401C86F836306FF31F30A5F88C00AE
:206B9000C6F808A0B5F88C00C6F81090804BB08697E80006002106F12002202703EA0909E2
