:020000022000DC
:10700000000004205D730200B9730200BB7302002C
:10701000BD730200BF730200C173020000000000D4
:10702000000000000000000000000000C373020028
:10703000C573020000000000C7730200C97302009C
:10704000AD910200CB7302001D940200B9A20200B0
:10705000CB730200CB73020071920200CB7302006B
:10706000CB730200CB730200CB730200CB73020020
:10707000CB730200CB730200CB730200CB73020010
:10708000CB7302009D7E0200CB730200CB73020023
:10709000397F0200CB73020035B30200CB730200CC
:1070A000CB730200CB730200CB730200CB730200E0
:1070B000CB730200CB730200000000000000000050
:1070C000CB730200CB730200CB730200CB730200C0
:1070D000CB730200CB730200CB730200CB730200B0
:1070E000CB730200CB730200CB73020000000000E0
:1070F00000000000CB73020000000000CB73020010
:10710000000000000000000000000000000000007F
:10711000000000000000000000000000000000006F
:10712000000000000000000000000000000000005F
:10713000000000000000000000000000000000004F
:10714000000000000000000000000000000000003F
:10715000000000000000000000000000000000002F
:10716000000000000000000000000000000000001F
:10717000000000000000000000000000000000000F
:1071800000000000000000000000000000000000FF
:1071900000000000000000000000000000000000EF
:1071A00000000000000000000000000000000000DF
:1071B00000000000000000000000000000000000CF
:1071C00000000000000000000000000000000000BF
:1071D00000000000000000000000000000000000AF
:1071E000000000000000000000000000000000009F
:1071F000000000000000000000000000000000008F
:10720000354936480A1A02D0072291438D4634493F
:1072100034480A1A06D00722914381F309880222D2
:1072200082F3148830483149314A00F044F831483B
:107230003149324A00F03FF831483249324A00F0D1
:107240003AF832483249334A00F035F83248334987
:10725000334A00F030F833483349344A00F02BF811
:1072600033483449344A00F026F83448344900227F
:1072700000F02CF833483449002200F027F8334856
:107280003349091A082902DB002202604160314AB1
:1072900090471F481F49884205D00268043003B454
:1072A000904703BCF7E700208646EC46002000210B
:1072B000294A9047FEE7884207D0521A05D0037842
:1072C00001300B700131013AF9D17047884202D088
:1072D00002700130FAE770470000042000E003204C
:1072E000000004200000042040D20200E82A002010
:1072F000042C0020D0730200D073020004CB0200E3
:1073000040D20200E82A0020E82A0020D8CB020060
:10731000D8CB0200D8CB0200D8CB0200D8CB0200D9
:10732000D8CB0200D8CB0200D8CB020030D202006A
:107330005CD30200042C0020042C0020042C00202C
:10734000903C0020903C0020943C0020943C002085
:10735000945C00208573020091A9020000F036B809
:107360000F484FF00701884385460E4880470E4876
:10737000016841F470010160BFF34F8FBFF36F8F5D
:10738000FFF73EBF09480A490A4A884207D0521A05
:1073900005D0037801300B700131013AF9D1704703
:1073A00000000420158F020088ED00E0D8CB020019
:1073B000E82A0020E82A0020FEE7FEE7FEE7FEE7D5
:1073C000FEE7FEE7FEE7FEE7FEE7FEE7FFF7C8BFE2
:1073D00000487047883C002003460846012104F01D
:1073E0006ABB704707B5044B0093044A402300F082
:1073F00032F803B05DF804FB01740200052C002094
:107400002DE9F84389461446B2B10F4B0F4E0325C0
:10741000002743F00108224609EB0701002003F092
:10742000F1FB0744241A48B933782BB14FF47A4062
:10743000C047013D02D13570BDE8F88301233370A8
:10744000002CE8D1F8E700BFE0CB0200042C0020BC
:10745000704703F00BBCF0B595B01C4616460846C5
:107460000D4601F016FD1A9B0D93CDE9086400242A
:107470002346082205A928460A948DF82C400C942E
:1074800001F024FD079B0293069B03939DF81430A3
:107490008DF8114003F00302012A1DD1BDF81440FC
:1074A000059EC3F3C203C4F383148DF81030A20009
:1074B00008230EA9284601F009FDC6F3952608AB5E
:1074C0000093224602AB0EA9304600F049FB284645
:1074D00001F0E3FC15B0F0BD022AF8D1BDF816406A
:1074E000C3F3C203A4098DF810300827082C2646E0
:1074F00028BF08263B4632460EA9284601F0E6FC86
:10750000A41B08AB02AA31460EA8374400F08CFB3E
:10751000002CEBD1DBE7000008B5FFF79AFF042150
:10752000034800F08BFA034B01225A7108BD00BFDB
:1075300030D20200E82A0020037813F0040216D0AB
:1075400003F00303012B03D0022B09D00120704765
:107550000A6800880232C0F3831002440A60F5E72B
:107560000B684288023303EB92130B60EEE7104680
:10757000704700002DE9F04F87B000230446851CBA
:107580000DF107000F4690468DF8073000F0C8FF58
:10759000454806683E60D0E90132134401339B1B25
:1075A000824600F21C4600F5836900F21447AB42A4
:1075B0001BD30022B8F1000F70D0052363F307023C
:1075C00064F38912DAF80010DAF808309DF8070041
:1075D0000B4003330D444AF82320CAF8005000F052
:1075E000C3FF012007B0BDE8F08F0121304601F054
:1075F00053F8484601F066F8384601F063F8DAF8C7
:107600000400DAF808B0029000EA0B0003300AEB3D
:10761000800002A9FFF790FF029B50BB0BEA030218
:107620000AEB820203F1020CD2680392013303EAEF
:107630000B0B0AEB8B0B02F00302012ACDF808C0FA
:10764000DBF80C1022D0022A16D08346384601F00F
:107650003CF810B1029BCAF804305946304601F09C
:107660001BF8DAE901231344DAF8002001339B1AEE
:107670009DE70BEA0300C9E7BDF80E309B09033311
:107680004FEA114B0CEB93030293DFE7BDF80C308C
:10769000C3F383134FEA114B6344F5E7062363F307
:1076A000070264F39F528DE7182D00200B4B0C4806
:1076B000FF2210B59A600022C3F81824C3E9002203
:1076C000C3F8142483F8202401F09CFB044610B96D
:1076D000044801F005FC204610BD00BF182D002015
:1076E000A4CB020004CC020030B50A4C71B10A4AA6
:1076F0000A49121BD20800239A4201D1002030BD52
:1077000031F82350854202D00133F5E7034654F89F
:107710003300F4E72CCB0200A4CB0200E82A0020BF
:10772000094B013903EBC000032909D8DFE801F058
:107730000A020406042070470079704740797047B8
:1077400000207047022070472CCB0200034BD3E986
:107750000030C31A58425841704700BF182D00200E
:107760002DE9F04387B0FFF7F1FF0646002840F00F
:10777000FB807E4DC5F81804BFF34F8F6868AC6876
:1077800002902040033005EB800002A9FFF7D4FEF1
:10779000029B18B1D5F81824002A5FD004EA03022E
:1077A000991C013305EB8202234005EB8303D26869
:1077B000DB68049302F00303022B0392029162D16F
:1077C000BDF80E306A484FEA9318B8F1500FC14621
:1077D00028BF4FF0500969F38F1309F10801ADF884
:1077E0000E3001F027FB0746002800F0A88001F0CA
:1077F00050FB03A900230822384601F05DFB0299E3
:1078000024EA01060136B600B14535D95FFA89F997
:107810007EB3F6B2A9EB0609214003315FFA89F481
:10782000B146544E05EB810108234A46384601F023
:1078300043FB36B109F1080322463146384601F0D0
:107840003BFB029B08F1030803EB98030293D5F876
:107850001834002B4BD1D5F810445BE02A689A42CB
:1078600004D86A60304607B0BDE8F08304EA03003C
:1078700088E740493446D7E72140033108234A4688
:1078800005EB8101DAE7012B59D1BDF80C303848FE
:10789000C3F38311062928BF062161F3891302313E
:1078A0008900ADF80C3001F0C5FA0746002846D033
:1078B00001F0EFFA0023082203A9384601F0FCFA90
:1078C0000026BDF80C20C2F38312B300964203F1E8
:1078D0000803BCD202994A1C21400331029205EBF5
:1078E00081010422384601F0E7FA0136E9E738461B
:1078F00001F0D3FAFFF72AFF80F00100C6B2B1E72A
:10790000E3685B7923B1236839461B6820469847B2
:10791000E3681C68002CF3D1384601F0BEFA0DF183
:1079200007008DF8074000F0FBFDD5F818340BB9BF
:10793000029B6B609DF8070000F016FEDAE7D5F8B1
:10794000104454B90C4B0D480D49C01AC00800042E
:1079500040F0020000F06EF8CCE7236820469B68F8
:107960009847E3681C68ECE700267BE7182D0020A9
:10797000A4CB0200242D00202CCB02005CCB020003
:1079800010CC02002DE9F74F284C80460F46924656
:1079900001A9012218469B46D4F80890FFF7EAFD9A
:1079A00080B3019D0026A91C5E4506EB010233D180
:1079B00000211F4800F045FE80F310006A1C02EA17
:1079C000090204EB8202000405EA0903033340EADA
:1079D0001840D06014F8232068F3C50204F823206F
:1079E00034F8232066F3891224F8232054F8232046
:1079F00067F39F2244F8232002F0F80242F00102CC
:107A000004F8232094F820341BB1FFF7A9FE0028C6
:107A1000FBD103B0BDE8F08F09EA020204EB820259
:107A20005AF82630D3600136BEE700BF182D00207B
:107A30003431002000231A46FFF7A4BF30B50F49A8
:107A4000D1F81024002314463CB9C468237152B9FC
:107A5000C1F810042260184630BDE46825799D42C3
:107A600006D02468F0E7D268116821601060F2E760
:107A700001330A2BE7D14FF0FF33ECE7182D00203C
:107A8000094A38B50123D2F8104482F820341D4643
:107A900004B938BDE3685D71236820465B68984788
:107AA000E3681C68F4E700BF182D0020037A052B5B
:107AB00010B50C460FD0437A23B1084A0849204636
:107AC00000F066FE0749204600F062FE2046BDE851
:107AD000104000F052BE002AF8D0F3E75BCC020061
:107AE00060CC020051CE0200C38873B504460D4637
:107AF00033B1144A00921449144A284600F048FE53
:107B0000217A05291CD0637A4BB1A088FFF708FEC3
:107B10000F4B104953F82020284600F039FE227AF6
:107B20000D4BA08853F822600021FFF7DDFD0B49C3
:107B300003463246284602B0BDE8704000F028BE39
:107B400002B070BD5BCC02006BCC020063CC0200C3
:107B500028CC020060CC020090CC020083CC020052
:107B60002DE9F04385B01F460C9D002306460C46C8
:107B7000904695F80C902B7329463846FFF7B4FFD2
:107B8000B8F1060F09D8DFE808F00412181F2833EF
:107B900040003146284600F0FBFD002229463846C9
:107BA000FFF784FF85F80C9005B0BDE8F0832268EC
:107BB0003146284600F0ECFDEFE7D4E900233146DA
:107BC000284600F0E5FDE8E7A36800933146D4E9D4
:107BD0000023284600F0DCFDDFE7E3680193A3689B
:107BE00000933146D4E90023284600F0D1FDD4E7C4
:107BF00023690293E3680193A36800933146D4E9B3
:107C00000023284600F0C4FDC7E763690393236996
:107C10000293E3680193A36800933146D4E90023FB
:107C2000284600F0B5FDB8E708292DE9F84F804651
:107C30000E4617461C463AD8002593F80C901D7343
:107C400019461046FFF750FFDFF884A0DFF884B034
:107C5000AE422ED918F805205946204600F098FD6E
:107C60000135082DF4D11849DFF86CB0204600F03A
:107C70008FFD4FF0000A564520D918F80A507E2D86
:107C800003D8284603F038FD00B92E252A46594668
:107C9000204600F07DFD0AF1010ABAF1080FEAD191
:107CA000012221463846FFF701FF84F80C90BDE819
:107CB000F88F5146204600F06BFDD1E7034920467E
:107CC00000F066FDE7E700BF56CC020054CC02008E
:107CD00052CC02004CCC020058CC02001FB500214F
:107CE000039001AA44F20100CDE9011100F004F86B
:107CF00005B05DF804FB000010B572B6FFF7C0FEDA
:107D0000FFF72EFD0028FBD1104B114C1149E41A4E
:107D1000E408240444F00100FFF78CFE0E4B1B68BE
:107D2000DB0700D500BE0D4944F00200FFF782FEDC
:107D3000BFF34F8F0A490B4BCA6802F4E06213434A
:107D4000CB60BFF34F8F00BFFDE700BF2CCB02001D
:107D50005CCB0200FACC0200F0ED00E006CD0200A0
:107D600000ED00E00400FA0549B152B1531E1A407B
:107D700007D1826001608380C260104670470E2088
:107D800070470920704710B58468C2688388121B49
:107D9000934208D3C26813400268D154C3680133C8
:107DA000C360002010BD0420FCE78268C3689A42CB
:107DB0000AD08268838813400268D35C0B708368A2
:107DC000013383600020704705207047094A5378CB
:107DD00091780133DBB2994208BF002311789942B0
:107DE0001FBF03705078182303FB002014BF04301A
:107DF00000207047D431002073B5054600240DF1F2
:107E000007000E468DF8074000F08AFB0DF10600D2
:107E1000FFF7DCFF90B10670094B9DF80620456026
:107E20005A709DF8070000F09FFB24B9054B4FF4F2
:107E30008012C3F80021204602B070BD0424F0E790
:107E4000D431002000E100E0024B4FF43C6043F0ED
:107E50000103184720CD020038B50C4B0C4C4FF4F1
:107E60000032C3F8802001254FF48033C4F8483332
:107E7000C4F808336560FFF7E7FF064BA5600024F0
:107E80001C60FFF7E1FF044B1C7038BD00E100E00F
:107E900000100140F0320020E1320020F8B51F4B05
:107EA0001F491B680025C1F84051C1F84451C1F871
:107EB0004851C1F84C51C1F80051C1F804514BB3BD
:107EC000D1F8044517490968641A24F07F442F4605
:107ED0001A68A24209D8A41A15441A7CDE691AB19C
:107EE0001F74D3E905209047AEB90F4A0F4B1178A4
:107EF0001B788B4205D10133DBB2022B08BF002374
:107F0000137012780A4B43F822500A4B4FF4801238
:107F1000C3F80021F8BD3346DAE700BFF432002091
:107F200000100140F0320020ED320020EC32002041
:107F3000E432002000E100E02DE9F04FA14AA2491F
:107F400013780978A14D994285B03CD00133DBB25A
:107F5000022B08BF002313709D4912789D4B0F68B8
:107F600053F822003B1823F07F4300220B602B685C
:107F700016461446944613B942B12B6006E01968C0
:107F800081420ED902B12B60091A196001272B68B2
:107F9000DFF848A201934FF00008BEB9DFF844B201
:107FA00066E0401A0C44D968C3F800C0D3F81CE05E
:107FB00031B13A1922F07F42C3E90121DE611E4648
:107FC00001227346D7E700263746E0E73446F669D4
:107FD0007F4A63681268DFF810C2A068991A21F01E
:107FE0007F41614500F2A680014421600122227494
:107FF0002A680023C4E90133E361002A40F0A3802A
:108000002C60CAE75A1C9BF80210D2B291428BF83E
:10801000002004BF00228BF80020182202FB03B3CB
:108020001A799C68022A1CD0032A12D0012A1FD177
:10803000207CE8B9D3E90312A2605A69E2609A6928
:10804000654BA2611B78002B0CBF0B460346636097
:10805000BEE700222B681146002B67D142B12B608E
:1080600006E029680A468946002A5AD1002323746B
:108070009BF800309BF801209A42C3D12B68B8F1DD
:10808000000F04D1019A9A4201D1002F43D0002B56
:1080900073D0D3F800A0514D4D4BD5F804751C6832
:1080A000DFF848813E1B98F8003026F07F46033603
:1080B0009BB94FF48033C5F84433C5F80433484BBB
:1080C0004FF400324FF00109C3F880211A60C5F85F
:1080D0000090FFF7B9FE88F80090B2452CBF5444D9
:1080E000A41924F07F44C5F84045D5F80435DB1BBE
:1080F00023F07F43E41B033324F07F44A3420AD9D7
:10810000D5F80435C5F84035FFF79EFE344B4FF4E3
:108110000032C3F80021304B00221A7005B0BDE8D0
:10812000F08F94422CD09146D2699DE719740122B8
:10813000DB6991E7D31A23F07F43834234BFC31A2C
:108140000023236052E721681368994213D8591A13
:108150001160E26154E7091AD8691A4638B103463A
:1081600018688842F7D3401A1860184613462160F1
:10817000E061DC6111E71346F2E7FFF76DFECAE745
:108180004C4511D1CB692B6073B9DFF844E0012075
:10819000CDE90212CAF80800CEF800300E4B187074
:1081A000FFF752FEDDE902121368D269C9F81C20FC
:1081B00012B11068034413602B68994218BF4FF046
:1081C000010853E7EC320020ED320020F4320020A9
:1081D000F0320020E4320020E032002000100140A4
:1081E00000E100E0D4310020FEFF7F00E1320020FA
:1081F00008B5FFF731FE104B00200B2218809A7053
:108200000E4B18600E4B18700E4B18700E4B4FF43F
:108210008012E021C3F8802183F814131A6002F160
:108220008042A2F56F22C2F8080583F81113074BAC
:10823000D2F804251A6008BDD4310020F4320020A1
:10824000EC320020ED32002000E100E0F0320020AE
:108250002DE9F7431F4FBB7805460E469046B3B352
:10826000A8B31D4B4A1F9A422FD843697BB3437C66
:108270000024012B0DF107000CBF8946A1468DF8A3
:10828000074000F04DF90DF10600FFF79FFDD0B15A
:1082900001230370114B4560D3F80435C0E90498FD
:1082A000C0E902369DF806307B709DF8070000F0AB
:1082B0005BF924B90A4B4FF48012C3F80021204621
:1082C00003B0BDE8F0830424EFE70724F7E70824B0
:1082D000F5E700BFD4310020FAFFFF000010014095
:1082E00000E100E0064A92783AB130B1426922B129
:1082F000002202740221FFF77FBD0820704700BFF3
:10830000D43100200648074A03780749D35C01228C
:1083100013B1043001F018BD0C3001F0BFBA00BF3A
:10832000F02A00207C330020203300200648074A32
:1083300003780749D35C012213B1043001F0B0BCCB
:108340000C3001F055BA00BFF02A00207C33002029
:108350002133002037B50578012D05D0002D32D00E
:10836000022D25D003B030BD037A13B9FFF7CAFF41
:10837000F8E743681A4C19782046FFF704FD80B1EE
:108380008DF800500190174B68461B689847A1680C
:10839000E368A2885B1A9A42E8D2134B01221A7052
:1083A000E0E7A268E3689A42F1D08DF80000EAE7BE
:1083B000C3688DF800500193FFF7A4FF094B68468E
:1083C0001B689847CEE709490948FFF7EEFC10B94A
:1083D000FFF7ACFFC6E703238DF80030EEE700BFE0
:1083E000FC320020F83200200C3300202133002022
:1083F00010330020F0B51F46234B89B006461A60A3
:108400000C4600293DD08A8820480968FFF7ACFC5B
:10841000002834D1A289A1681D48FFF7A5FC0028D7
:108420002DD11C4D0FCD6C460FC495E80F0084E88C
:108430000F0073690693337C174A18488DF81C7037
:10844000003318BF01238DF81430737C002B14BF48
:108450000E2300238DF81530F3680293B36803935D
:108460003368019369467368009300F063FE30B986
:108470000B4B18703368013301D0FFF743FF09B08D
:10848000F0BD0720FBE700BFF8320020FC320020DF
:108490001033002028CD020055830200F02A00206E
:1084A0000C33002070B5084C014608482678FFF7C9
:1084B0007CFC054636B100232370FFF723FF08B18B
:1084C000FFF70CFC284670BD0C330020FC32002066
:1084D00010B501460E48FFF756FC0446A8B90D48F2
:1084E0000D4A0378D35C63B1043001F021FC60B91C
:1084F0000A490748FFF759FC38B9BDE81040FFF7B3
:1085000015BF0C3001F0BEF9F1E7204610BD00BFE9
:1085100010330020F02A00207C330020213300207B
:1085200070B5EFF3108672B60C4A946801239CB9BB
:1085300093600B4B0B4DD3F8801029401160C3F8AA
:108540008050D3F8841051604FF0FF32C3F884207C
:10855000047006B962B670BD0370FAE724330020D8
:1085600000E100E0FC06FFBD084B9A6810B55AB167
:1085700050B9EFF3108172B6054A1C6814605C684C
:108580005460986001B962B610BD00BF243300206A
:1085900000E100E037B550E8023F1FFAA3F5C488B8
:1085A000A54202BFBFF32F8F00220DE0C4892544EE
:1085B0008489A54228BF2D1BC3EA054540E8025423
:1085C000002CE8D14FF001028DF803200193019BAC
:1085D0009DF803200B6002F0FF0322B14B88006876
:1085E000184403B030BD1846FBE70A884B889A420E
:1085F00009D150E8022FC2EA224240E80223002BB0
:10860000F7D1012070470020704701F01F024B098D
:108610000121914000EB830000F01DB801F01F0321
:1086200001229A404B0900EB8300D14300F029B8A6
:108630004B0901F01F0150F82300C84000F0010071
:10864000704750E8002F0B4640E8003C9CF0000FBC
:10865000F7D11046704750E8003F43EA010240E876
:10866000002C9CF0000FF6D11046704750E8002F08
:1086700002EA010340E8003C9CF0000FF6D11046EE
:10868000704750E8003F03EA010240E8002C9CF0EC
:10869000000FF6D11046704750E8003F03EB01028F
:1086A00040E8002C9CF0000FF6D11046704750E8CF
:1086B000003FA3EB010240E8002C9CF0000FF6D134
:1086C000104670470121FFF7C6BF0021FFF7CEBF5C
:1086D00010B590B1D0E9012301689B1ADBB20A60A2
:1086E000013BDBB2FF2B026802D10020107110BDEC
:1086F00011684C1C14600B70F2E70E20F7E737B5D9
:10870000054600240DF107008DF80740FFF708FF2C
:108710002A686B68116899420ED9481E106011F8DA
:10872000014CEB68298A01FB0434AB6811791B1AF0
:10873000DBB2994238BF13719DF80700FFF714FFB1
:10874000204603B030BD37B5054600230DF10700C4
:108750000C468DF80730FFF7E3FE2A681368591CB2
:108760001160E968641A298AB4FBF1F41C709DF861
:108770000700FFF7F9FE03B030BD826810B504466C
:108780002AB143690168006998470023A36010BDBE
:108790000EB403B5039921B104AB01AA019300F013
:1087A0006DF802B05DF804EB03B07047826830B436
:1087B0000468551C8560A154D0E901329A4202D365
:1087C00030BCFFF7DABF30BC704700002DE9F84F2E
:1087D0009946DDE90A431746824688460A4601263D
:1087E000BA420FD24E4538BF4E4613F0010B01D1AD
:1087F00064B900240125B9F1010F1AD909F1FF3933
:108800007D43F8E7B2FBF7F20136E9E79B070ED5A7
:10881000B9F1000F0CBF30252025A642EAD2013C59
:1088200029465046FFF7C2FF002CF6D1E1E720258C
:10883000F3E7B8FBF5F39F42E2D9DFF83C90B8FBD1
:10884000F5F3504619F8031005FB1388FFF7AEFF48
:10885000B5FBF7F3BD4207D2BBF1000F02D00CB15C
:10886000A64203D3BDE8F88F1D46E8E72021504615
:10887000013CFFF79BFFF2E748CD02002DE9F74FDF
:10888000054617468846002900F0308118F8011B7C
:1088900049B92B7B002B00F02981284603B0BDE8A5
:1088A000F04FFFF76ABF252940F0C080002698F8F6
:1088B00000302D2B424608F1010823D0302B24D064
:1088C0002B2B25D000242A2B02F1010123D13B6858
:1088D0001A1D1B683A601C440A4613782E2B26D1B9
:1088E00001324FF00009104610F8011BA1F1300CC5
:1088F000BCF1090F1DD80A2303FB0913A3F13009AA
:108900000246F0E746F00106D1E746F00206CEE760
:1089100046F00406CBE711F8013CA3F1300009282A
:10892000DBD80A2202FB0434303C0A46CBE74FF086
:10893000000912F8011B01F0FB0068289046F8D0EE
:1089400069290ED04AD8582964D006D825296DD077
:1089500098F80030002B99D19BE7632962D06429F5
:10896000F6D13A68D2F800A0111D8AEAEA7239609D
:10897000A2EBEA724FF0010B092A5BDCCB4538BF52
:10898000CB462CB1BAF1000F01DB720700D5013CD8
:10899000B30702D5B9F1000F04D0F00702D4002CC0
:1089A0004ED10024BAF1000F52DACAF1000A2D218B
:1089B0002846FFF7FBFE06F00302022A05D1B9F1B3
:1089C000000F02D1002C47D10024CDE900464B46D0
:1089D0000A2251462846FFF7F9FEB9E773294CD021
:1089E00014D87029B4D13B681A1D3A60302128464A
:1089F0001C68FFF7DBFE78212846FFF7D7FE002230
:108A00000823CDE9003221461022E3E775292BD057
:108A100078299DD139680A1D3A60CDE900464B4658
:108A2000102228E03B681A1D19783A602846FFF7A3
:108A3000BDFE8DE70A230BF1010BB2FBF3F29BE7BE
:108A4000A345AFD220212846013CFFF7AFFEA6E7A1
:108A50007107B0D52B21ABE7A345B6D2302128460C
:108A6000013CFFF7A3FEADE73968CDE900460A1DDA
:108A70003A604B460A220968ACE73B681A1D3A6027
:108A800016F00106D3F800A020D1BAF1000F03D0F0
:108A9000504602F0DCFF0646B44200D9C4B90AF1E0
:108AA000FF3A1EE028460136FFF780FE1AF806104E
:108AB0000029F7D1A642BFF44BAF002C3FF448AFDA
:108AC00020212846013CFFF771FEF3E70026EDE781
:108AD00020212846013CFFF769FEDDE72846FFF725
:108AE00065FE1AF8011F0029F8D131E703B0BDE88F
:108AF000F08F29DF704728DF704770B503689D68E5
:108B000086B004460E466DB114220021684602F07C
:108B100049FFA3680593237901962BB1012B0DD052
:108B20006846A84706B070BD01238DF80030236960
:108B30000293E368039363690493F1E702238DF8DA
:108B40000030E3681B030293F5E70000034B187A3B
:108B50000122B0FA80F05A74400970474033002077
:108B600070B5244C244E237A25463BB9234924482A
:108B7000FFF710FD306008B9606070BD34680223F3
:108B80002B72237973B1012B24D020460321FFF7E8
:108B9000B4FF00232B726B6018491948BDE8704080
:108BA000FFF723BDD4E90523D21AB2F5805F28BFB1
:108BB0004FF48052D4E903109208012A38BF0122F1
:108BC00019441844FFF795FF50B11128DDD1012356
:108BD0002B72D2E7D4E903031844FFF78CFFF3E7C5
:108BE0002B7C002BC9D10146BDE87040022000F06B
:108BF00009B800BF40330020583300205433002010
:108C00003033002038B5831E012B45D8234C237AFE
:108C1000002B41D0022B09D1032830D0204B1B68F8
:108C20000022E2601A793AB1012A22D0637C7BBB30
:108C3000BDE83840FFF794BFD3E905128D1AB5F5AA
:108C4000805F94BF521902F580529A619142EDD132
:108C500002284FF0000308BF19462372104B18BFBB
:108C60000D211868FFF749FF0E490F48FFF7BDFCBB
:108C7000DCE71A6901321A615B699A42E7E7E36847
:108C80000133082B01D8E360D0E70023E360DFE77E
:108C9000BDE8384002F024BB38BD00BF403300209F
:108CA00058330020543300203033002000F0FD03FF
:108CB000012B08D1044B00225A74421E50425041ED
:108CC0001874FFF74DBF70474033002041DF7047F5
:108CD000064B10B500241C70054B1C60BFF35F8F62
:108CE0000449054800F030F8204610BD64330020E8
:108CF0006833002068CD02005C33002007B50023F4
:108D00000DF107008DF80730FFF70AFCF1EE103A7D
:108D100023F09F03E1EE103ABFF35F8F094B40222F
:108D2000C3F884219DF80700FFF71EFC02F0E8FA63
:108D300020B1FFF7CBFF03B05DF804FB20BF40BFBD
:108D400020BFF8E700E100E00B684A684360934207
:108D500008BF0023016008BF43607047436843B108
:108D60000268916852680B449342436004BF002339
:108D70004360704710B50446C0B2FFF7A9FB204618
:108D800010BD2DE9F047B0F806904479D2F800A064
:108D90009DF8208009FB04F4043C06460AEB03001E
:108DA000A0420F4688BFA4EB030A191DC2F800A019
:108DB000B1FBF9F509FB15114DB9A9EB01045445B7
:108DC00028BF5446BAF1000F04D1BDE8F0873668D9
:108DD000013DF1E704317B1970182246B8F1000F0C
:108DE0000ED001461846AAEB040A02F0B2FDD145A6
:108DF000254436684C464FF0000128BF5446E1E751
:108E00001946F0E7FFF764BCF8B546790146721ED3
:108E10000546002393422D6803D30024A64202D8BE
:108E2000F8BD0133F6E70F682846FFF78CFC0134E4
:108E30003946F3E72DE9F843068ACD1C0746FFF7CC
:108E40005EFC043E35440446B5FBF6F5F0B14FF444
:108E50008073EDB28380C680013D076081464FF08C
:108E60000008A84512D23846FFF749FC064648B12B
:108E700063790133637108F10108C9F800000760E4
:108E80008146EEE72046FFF7BFFF34462046BDE8A7
:108E9000F88301210430FFF7FFBB10B50121044620
:108EA0000430FFF704FC10F0FF0F04D12046BDE8AA
:108EB0001040FFF7A9BF10BD1FB50392002200921A
:108EC00003AAFFF75EFF05B05DF804FB1FB5039230
:108ED0000122009203AAFFF754FF05B05DF804FBDE
:108EE000836800225A609A60C3E90422DA601A603B
:108EF00070470000054B1B68082B01BF044B186826
:108F0000B0FA80F0400918BF00207047300100100F
:108F10003401001008B54FF080430022C3F80C2143
:108F2000C3F81021C3F838254FF0805203F54043B1
:108F3000D2F80414C3F82015D2F80814C3F8241585
:108F4000D2F80C14C3F82815D2F81014C3F82C1555
:108F5000D2F81414C3F83015D2F81814C3F8341525
:108F6000D2F81C14C3F84015D2F82014C3F84415E5
:108F7000D2F82414C3F84815D2F82814C3F84C15B5
:108F8000D2F82C14C3F85015D2F83014C3F8541585
:108F9000D2F83414C3F86015D2F83814C3F8641545
:108FA000D2F83C14C3F86815D2F84014C3F86C1515
:108FB000D2F84424C3F87025FFF79CFF10B1384B5A
:108FC000384A1A60FFF796FF18B1374BFB22C3F8F7
:108FD0001825FFF78FFF48B13449354B0A681B68E5
:108FE00022F00F0203F00F0313430B60FFF782FF21
:108FF00018B1304B4FF400721A604FF08043D3F831
:109000000024D20744BF6FF00102C3F800242A4AAB
:10901000D2F8883043F47003C2F88830BFF34F8F22
:10902000BFF36F8F4FF01023D3F80022002A03DB29
:10903000D3F80432002B2FDA204B0122C3F8042589
:10904000D3F80024002AFBD04FF010221221C2F8DE
:109050000012D3F80024002AFBD04FF01023122274
:10906000C3F80422154B1A46D3F800140029FBD08C
:109070000021C3F80415D2F80034002BFBD0BFF355
:109080004F8F0D490E4BCA6802F4E0621343CB6068
:10909000BFF34F8F00BFFDE70A4B0B4A1A6008BDB4
:1090A0008C5600404881030000F00040E40E004070
:1090B000580200104096024000ED00E000E0014040
:1090C0000400FA05042B00200090D0031FB503789C
:1090D0008DF800304368019383688DF80830C368C9
:1090E0000393054A054B684653F8213052F8211086
:1090F000984705B05DF804FB6C3300207433002002
:109100001FB503788DF800304368019383688DF8AC
:109110000830C3680393054A054B684653F821306D
:1091200052F82110984705B05DF804FB6C3300201D
:1091300074330020F0B5184B0778DFF86CE043F883
:109140002720164B16460A6943F827204B7F0EF856
:1091500007300C4684460FCC89B06D460FC594E8A5
:109160000F0085E80F001EF80730049753B1002E5A
:109170000B4A694608BF32460CF1040000F0AEFC11
:1091800009B0F0BD002E074A694608BF32460CF10F
:109190000C0000F059FAF3E7743300206C33002020
:1091A000CD900200019102007C330020154B07B5E1
:1091B0001A687AB100221A601B680093009B4FF076
:1091C00080430122C3F808230F4B587910B95A7114
:1091D0001B6898470D4B1A6882B100221A601B6801
:1091E0000193019B4FF080430222C3F80823064BF2
:1091F0001B68012003B05DF804EB184703B05DF86D
:1092000004FB00BF00010040803300200401004047
:1092100000F1804000F5C040002382B00360036885
:109220000193019B02B0704703681F2B83BF03F0BB
:109230001F03036001484FF0A04070470003005037
:1092400007B5019001A8FFF7EFFF019B00EB83003A
:10925000D0F8002722F44032C0F80027D0F80037B9
:1092600043EA0143C0F8003703B05DF804FB000097
:109270002DE9F04F002489B0CDE90244624D4FF44E
:109280008072012102F1804303F5C04390B21B6854
:10929000012B06D1D5F804330B4202D0FFF7B8FFFB
:1092A0000C430432B2F5907F4FEA4101EAD1574BAB
:1092B0001B68012B0ED14FF4BE70FFF7A9FF4FF0D2
:1092C000A04344F00044D3F810350293504BD3F838
:1092D0001035039314F0FF0F1AD04E4F00250126CE
:1092E000344210D0AB0003F1804303F5C043D3F800
:1092F0001005D3F8101557F8253023B1C1F30141FB
:10930000C0F3052098470135082D4FEA4606E7D1FE
:10931000002C75DA0DF1100800230493C8F804300E
:109320004FF0FF33CDE90633DFF8E8A0DFF8E8902F
:1093300000273D4619F9014B631C48D0E4B20123D4
:1093400024F0C00604F0070203FA02F2F00808ABAA
:10935000191811F8083C134239D00AEB0603A40986
:1093600093F930305AF823B0BBF1000F08D1032C29
:109370002DD118F800C04CEA020C08F800C001E03A
:10938000032CF6D001A80196FFF74EFF019B11F8C0
:10939000181C03F5E07C114250F82C00C0F301408A
:1093A00005D0022813D1032C0BD1214604E0032859
:1093B0000DD1032C05D102213046FFF741FF0135C5
:1093C000EDB2BBF1000F02D021463046D84701373D
:1093D000042FAFD1A5B14FF0A0430299D3F81025C7
:1093E00003F540739142D3F8103502D103999942A5
:1093F00006D002920393049A059B0692079395E781
:1094000009B0BDE8F08F00BF006000407C61004003
:109410000003005088330020E8330020014B1B6814
:10942000184700BFF43300200E4B984237B50D4665
:1094300002D0002003B030BD00230DF107008DF8ED
:109440000730FFF76DF8084B1C7914B901221D6035
:109450001A719DF80700FFF787F8002CE9D011205A
:10946000E8E700BF00200040F43300200023435011
:1094700082B043580193019B02B070470A4610B571
:109480004FF48E71FFF7F2FF136A9168C95C136A9B
:1094900001331362C0F81C1510BD024608B54FF425
:1094A00092710068FFF7E2FF4FF484711068FFF7D4
:1094B000DDFF136801221A6008BD8B690A4610B5EA
:1094C0004FF4847123B9FFF7D1FFD0F8183510BDE0
:1094D000FFF7CCFF536AD168D0F81805C854536A17
:1094E00001335362F3E700001FB501238DF800300C
:1094F000044BCDE90110D3E900126846904705B04E
:109500005DF804FBFC33002030B54D4AD2F804333B
:1095100013F4007F85B015464FD0D2F82431002BCC
:109520004BD04FF492711046FFF7A0FF4FF4017338
:10953000C2F80833434B93F8291009B9012151604F
:109540003F4902228DF80020D1F88024C1F8802400
:1095500003929A690292DA6801920022C3E9062214
:109560006846D3E9001290473548D0F81C315BB10A
:1095700034494A690B6A9A420A464BD991F8283015
:10958000002B47D1FFF77AFF2D4AD2F8443193B12F
:109590004FF4A2711046FFF769FF2A4B93F8291088
:1095A00009B1012111609A692AB100229A61586AB1
:1095B000D968FFF799FF05B030BDD5F804335B07D4
:1095C000D2D5D5F80831002BCED01E4C1C482146F0
:1095D000FFF773FF636AA2699A422346C4D1E26926
:1095E000E1684AB12369E3600023606AA261E36134
:1095F0006362FFF779FFB7E794F829200AB90122DF
:109600006A600F4A4FF40170C2F8080300229A61A1
:10961000586AEEE74FF48E710948FFF727FF536948
:10962000002BB1D051690291002391688DF8003070
:10963000019153616846D2E900139847A4E700BF3F
:1096400000200040FC3300202DE9F843624F0479EC
:1096500091462C2202FB0472064692F82A200D46FF
:10966000002A40F0B3805D490068FFF7DDFE8046C8
:10967000002840F0AE8029684A1C10D01F2987BFFF
:1096800001F01F03564A0B464FF0A04201209840BC
:1096900003F5E073C2F80805032042F82300686868
:1096A000431C0DD01F288BBF00F01F0303464C4AFC
:1096B0004FF0A04203F5E0734FF0000C42F823C0D6
:1096C0003368AA6995F814C0C3F824256A7DBCF1F3
:1096D000010F4CEA0202C3F86C25C3F81405C3F865
:1096E0000C152BD1A968481C0DD01F298BBF01F088
:1096F0001F020A463A484FF0A04002F5E0724FF0D0
:10970000000C40F822C0E868421C13D01F2887BF15
:1097100000F01F0C324A84464FF0A0424FF0010E79
:109720000EFA0CFE0CF5E07CC2F808E54FF0030ED3
:1097300042F82CE0C3F80805C3F810152C23634346
:10974000FA18C2F804902A69FA50B9F1000F2AD029
:109750004FF48E7130682D7FFFF788FE30684FF42C
:10976000A271FFF783FE32681E4BC2F80433120B5E
:1097700051B20029A8BF01F160404FEA4513BABFBA
:10978000194802F00F0500F56140DBB2B4BF435544
:1097900080F8003302F01F02012303FA02F24909A4
:1097A000124B43F8212033680422C3F800252C23F0
:1097B00003FB04730022C3E9062283F829205A61BF
:1097C000012283F82A204046BDE8F8834FF00808BC
:1097D000F9E74FF01108F6E7FC3300200995020085
:1097E000000300508000020014ED00E000E100E002
:1097F0002DE9F84F224F06794FF02C0909FB06742A
:1098000080466569002D38D16261A16025624FF400
:109810008E71006884F82850FFF728FED8F8000001
:10982000012383602146FFF729FE6368A1469BB9A7
:10983000D8F800A0D4F814B0236A9B4512D8D8F801
:109840000020D2F81C31002BFBD00123D3602C2345
:1098500003FB067300225A612846BDE8F88F94F88E
:10986000283043B9DAF81C31002BF8D0494650466D
:10987000FFF704FEE0E70F25E9E71125ECE700BF5D
:10988000FC3300200379044A2C2101FB032358698F
:10989000003018BF01207047FC3300202DE9F84349
:1098A000394E05792C2303FB056307465C6824B118
:1098B00003684FF40170C3F808032C2303FB05630E
:1098C000986950B1D86900283ED024B13B684FF464
:1098D0000172C3F80423112433E09A61D9605862FD
:1098E000D8612C2303FB056393F829301BB910B909
:1098F0003846FFF7D2FD4FF02C0909FB05683868A0
:10990000D8F80430002B34D14FF4A271FFF7AEFD2C
:10991000C1463868D0F82431D0F80821D0F8444145
:10992000B2B90CB9002BF4D02C2202FB0565002241
:10993000AA6123BB2CBB95F829103B680122B1B169
:109940001A602046BDE8F8831961DA610120C8E792
:10995000002BE9D1002CE7D14946FFF7AEFDD8F83E
:109960002430D8F818209A42D3D82346DCE75A602E
:10997000E7E74FF40173C0F804330024E1E7032460
:10998000DFE70F24DDE700BFFC3300200023435056
:1099900082B043580193019B02B070471FB5012369
:1099A0008DF80030044BCDE90110D3E90012684670
:1099B000904705B05DF804FB283400207FB5454A88
:1099C000D2F82461002E63D010464FF49271FFF755
:1099D000DDFF02238DF80030D2F88034C2F88034E5
:1099E0000393D2F83C3502933B4BDA680192002294
:1099F000C3E906226846D3E900129047354AD2F8F7
:109A000044317BB14FF4A2711046FFF7BFFF324BD8
:109A1000996939B10021C3E90611D968D2F83C052A
:109A2000FFF7BCFF2B4AD2F82031B3B14FF490714D
:109A30001046FFF7ABFF0123D360274B596961B193
:109A4000D2F84C150291002299688DF800200191FE
:109A50005A616846D3E9001290471E4AD2F858313D
:109A6000A3B14FF4AC711046FFF790FF1A4B596940
:109A700061B1D2F84C150291002299688DF800204E
:109A800001915A616846D3E90012904704B070BD55
:109A9000D2F81031002BB1D04FF488711046FFF787
:109AA00075FF0D4BD2F83C0599698842A6D1DC6957
:109AB000D96864B1D2F8005225F02005C2F80052EE
:109AC0001A699C61DA60DE61FFF768FF96E79C61C6
:109AD000FAE700BF00200040283400202DE9F843B9
:109AE000694F06799146242202FB0672044692F8D9
:109AF00020200D46002A40F0C08064490068FFF72E
:109B000093FC8046002840F0BB802868421C10D09F
:109B10001F2887BF00F01F035D4A03464FF0A04295
:109B20000121994003F5E073C2F80815032142F8BA
:109B3000231069684B1C0DD01F298BBF01F01F0338
:109B40000B46534A4FF0A04203F5E0734FF0000C70
:109B500042F823C02368AA6995F814C0C3F82425E5
:109B60006A7DBCF1010F4CEA0202C3F86C25C3F810
:109B70000C05C3F814152BD1A968481C0DD01F295A
:109B80008BBF01F01F020A4641484FF0A04002F58A
:109B9000E0724FF0000C40F822C0E868421C13D07D
:109BA0001F2887BF00F01F0C394A84464FF0A0429F
:109BB0004FF0010E0EFA0CFE0CF5E07CC2F808E541
:109BC0004FF0030E42F82CE0C3F80805C3F8101557
:109BD00024237343FA18C2F804902A69FA50B9F1A1
:109BE000000F39D04FF4887120682D7FFFF7CEFE2B
:109BF0004FF490712068FFF7C9FE4FF4927120680E
:109C0000FFF7C4FE4FF4A2712068FFF7BFFE206883
:109C10004FF4AC71FFF7BAFE22681E4BC2F8043352
:109C2000120B51B20029A8BF01F160404FEA451361
:109C3000BABF194802F00F0500F56140DBB2B4BFAE
:109C4000435580F8003302F01F02012303FA02F2A9
:109C50004909124B43F8212023680822C3F8002544
:109C6000242303FB06730022C3E906225A61012262
:109C700083F820204046BDE8F8834FF00808F9E754
:109C80004FF01108F6E700BF28340020BD9902000C
:109C9000000300501003420014ED00E000E100E07A
:109CA00001F06043B3F1005F2DE9F041074638D180
:109CB0001E4B0679242505FB063598466C69002C59
:109CC00031D16A61A96000684FF49071FFF75EFEC0
:109CD0004FF4AC713868FFF759FE3B686A69A968B0
:109CE000C3F84415C3F8482501229A606A68AAB9E6
:109CF000D3F82021D3F858411AB9002CF8D00F24FA
:109D000007E0002CFBD10122DA60D3F85821002AA9
:109D1000FBD0242303FB0686002373612046BDE8A5
:109D2000F0811024FAE71124F8E700BF283400205E
:109D30000379044A242101FB03235869003018BF2A
:109D40000120704728340020F8B501F06043B3F1DA
:109D5000005F04460F465ED10379304D242101FB9C
:109D60000351486820B121684FF40476C1F80863B4
:109D7000242101FB03539E6956B1D969002939D0CA
:109D800020B123684FF40472C3F80423112030E09B
:109D90009A61DF60DE614FF488712068FFF7F6FD9D
:109DA0004FF4A2712068FFF7F1FD2368C3F8347502
:109DB000C3F8382516BB01221A602179242202FB40
:109DC000015252680ABBD3F81041D3F84421D3F8AA
:109DD0002401144302D10028F5D02246242303FB9A
:109DE00001550023984218BF03209A42AB6118BF67
:109DF0000F20F8BD1F61DA610126CCE7D3F80022FD
:109E000042F02002C3F80022D7E74FF40472C3F8EF
:109E100004230020EDE71020EBE700BF28340020EA
:109E200013B500238DF8063080238DF807300DF12F
:109E3000070201236B21D02000F066FD47F230536A
:109E400000BF013BFCD18DF807300DF10702012363
:109E50006B21D02000F058FD01230DF10602752181
:109E6000D02000F077FD47F2305400BF013CFCD118
:109E70000DF1070201236B21D0208DF8074000F07F
:109E800043FD0DF1070201236C21D02000F062FD9B
:109E90009DF8073023F03F038DF807300DF10702DE
:109EA00001236C21D02000F02FFD0DF107020123CA
:109EB0001C21D0208DF8074000F026FD18238DF8D6
:109EC00007300DF1070201231B21D02000F01CFDFB
:109ED00002B010BD13B5002304460093ADF8043062
:109EE0006A4606233B21D02000F034FD9DF8022075
:109EF0009DF803309FED166A43EA02231BB29DF8DA
:109F0000042007EE103A9DF8053043EA02231BB205
:109F100007EE903A9DF800209DF8013043EA0223B5
:109F20001BB206EE903AB8EEC77AF8EEE66AF8EEA3
:109F3000E77A66EE866A27EE067A67EE867AC4EDE1
:109F4000006A84ED017AC4ED027A02B010BD00BF50
:109F5000D5E71C3A13B5002304460093ADF804304E
:109F60006A4606234321D02000F0F4FC9DF802202D
:109F70009DF803309FED166A43EA02231BB29DF859
:109F8000042007EE103A9DF8053043EA02231BB285
:109F900007EE903A9DF800209DF8013043EA022335
:109FA0001BB206EE903AB8EEC77AF8EEE66AF8EE23
:109FB000E77A66EE866A27EE067A67EE867AC4ED61
:109FC000006A84ED017AC4ED027A02B010BD00BFD0
:109FD000787D8B3A0023435082B043580193019B14
:109FE00002B070474B6B8A6A934208D24A6AD25CCD
:109FF000C0F81C2501334B6301231846704791F8C4
:10A000002C301BB10123C3610023F6E70A6A12F06A
:10A01000400F4FF0010215BFC261426181F82D204F
:10A020001346EAE791F82F20F8B504460D46002ABA
:10A0300060D1D0F824314E6B8F6AB3B14FF4927176
:10A04000FFF7C8FF0123636185F82F30BE424FD16F
:10A05000D4F80431002B4BD04FF482712046FFF727
:10A06000B9FF002285F82D2013E0D0F81C3193B100
:10A070004FF48E71FFF7AEFFD0F824311BB14FF4CF
:10A0800092712046DCE72946FFF7ACFF0246002824
:10A09000DCD11046F8BDD0F80831002BD6D04FF4F3
:10A0A0008471FFF797FFD0F82431002BE7D16B6B59
:10A0B000A96A8B42CAD2696AD0F81805C8546B6B7A
:10A0C000A96A0133481E83426B6308D1286A40069F
:10A0D0001DD40223C4F8003201232362B6E78B4269
:10A0E000FAD12B6A5B06B1D5022385F82D30D0E773
:10A0F0000122CEE74FF49271FFF76CFF4FF48E719F
:10A10000FFF768FF4FF48471FFF764FFA0E78B420D
:10A11000E2D1E9E737B5344B01930D464FF4827134
:10A120000446FFF757FF4FF49271FFF753FF4FF4C8
:10A130008E71FFF74FFF4FF48471FFF74BFF002341
:10A140006B6385F82F30AB6A012B18D12B6A5B0645
:10A1500015D4022395F82D20C4F80032022A4FF0BE
:10A160000103236218BF23602B6893B140F286235A
:10A17000AB60AB68C4F80433002003B030BD0123EA
:10A18000E8E729462046FFF74DFF28B1019B013B38
:10A190000193019B002BF4DC95F82F305BB9002074
:10A1A000019B002BE9DC0023C4F800350523C4F82B
:10A1B00000350320E1E7D4F8C434C4F8C434002BDC
:10A1C000EDD013F0010F14BF4FF40240032048F20A
:10A1D000012213F0020F18BF104613F0040F48F2CB
:10A1E000022318BF1846DBE7A086010037B5314BC4
:10A1F00001930D464FF482710446FFF7EBFE4FF4D6
:10A200009271FFF7E7FE4FF48E71FFF7E3FE4FF414
:10A210008471FFF7DFFE002395F82D20C0F800328F
:10A220006B6385F82F3001239A420362294618BFD9
:10A230008360FFF7D7FE2B6883B140F28623AB60C3
:10A24000AB68C4F80433002003B030BD2946204673
:10A25000FFF7E8FE28B1019B013B0193019B002B16
:10A26000F4DC95F82F305BB90020019B002BEBDC70
:10A270000023C4F800350523C4F800350320E3E7C4
:10A28000D4F8C434C4F8C434002BEDD013F0010F5B
:10A2900014BF4FF40240032048F2012213F0020FD2
:10A2A00018BF104613F0040F48F2022318BF1846D7
:10A2B000DBE700BFA0860100F0B5274C274887B038
:10A2C0002146FFF7AFFEA446D8B994F82F70266A4E
:10A2D000E7B9237B9A1E012A18D8616AA2699142C4
:10A2E00014D1E2696262C6F340166269A262032B6E
:10A2F00084F82C6084F82D702146184803D1FFF7AC
:10A3000075FF07B0F0BDFFF705FFFAE7144D0FCD5D
:10A3100001AC0FC42B682360DFB1104AD2F8C434FB
:10A32000C2F8C43498070CD501238DF800300023FF
:10A330008CF830307307E4D4DCE900316846984784
:10A34000DFE7590701D50223EFE7DA07EFD503234B
:10A35000EBE78DF80070EAE74C3400200030004055
:10A36000583400202DE9F84F06793D4D4FF03C0A56
:10A370000AFB06FA05EB0A049B4694F82E30804649
:10A380000F469146002B67D136490068FFF74CF81D
:10A39000002863D13A687B7B84F838301F2A8CBF51
:10A3A00002F01F031346A060C4F804B084F8300024
:10A3B00084F82D0084F8310003F5E07188BF2A4C41
:10A3C00045F80A9098BF4FF0A04440F20C6344F85F
:10A3D000213079681F291C468CBF01F01F030B46F2
:10A3E00003F5E0738CBFDFF880C04FF0A04C4CF851
:10A3F0002340D8F80030C3F80825BA68C3F80C1514
:10A40000C3F82425B9F1000F1ED01B0B59B2002947
:10A410003A7BB4BF154C01F16044DBB2B8BF03F026
:10A420000F074FEA4212A8BF04F56144D2B2B4BF8D
:10A43000E25584F8002303F01F03012202FA03F31C
:10A4400049090B4A42F821303C2303FB06550123FE
:10A4500085F82E30BDE8F88F0820FBE71120F9E7DA
:10A460004C340020B9A202000003005014ED00E0BB
:10A4700000E100E0026803790521C2F80015044AF2
:10A480003C2101FB0323022283F82E20704700BFEA
:10A490004C3400202DE9F047324D90F80480D0F87C
:10A4A00000903C2303FB08530E4693F82D30012BFC
:10A4B000964604D10B78012B06D1082011E0022B1F
:10A4C00002D10B78012BF8D13C24274BC9F8083373
:10A4D00004FB085494F830302BB1A368C9F8043356
:10A4E0001120BDE8F0878EF00403C3F3800384F8E5
:10A4F0003030C4F820E0B446BCE80F0004F10C078B
:10A500000FC7DCF800303B607368A362F3686362D6
:10A510007378C9F888353378C8EB081A012B05EB36
:10A520008A0A1AD0B3B9CEF3401E3C2303FB08536A
:10A53000514683F82CE04846FFF758FE3C2303FBC6
:10A5400008F805EB080255F80830002BC9D182F84D
:10A550003030C6E74FF0010EE7E751464846FFF7B7
:10A56000D9FDEBE74C3400208642040010B586B0DC
:10A570000024CDE902349DF820308DF80510A34267
:10A58000CDE9042401A914BF202222468DF80440FD
:10A59000FFF780FF06B010BD10B586B0012402930E
:10A5A00000238DF80510CDE9033201A91A468DF874
:10A5B00004400593FFF76EFF06B010BD1FB503788A
:10A5C0008DF800308388ADF8043083688DF806304C
:10A5D000C3688DF807300369029343690393054A02
:10A5E000054B684653F8213052F82110984705B0C2
:10A5F0005DF804FB8834002090340020024B4FF4B7
:10A60000807043F001031847A0CD02001F2886BFC9
:10A6100000F01F00044A4FF0A042012303FA00F0AB
:10A62000C2F80805704700BF000300502DE9F0474D
:10A6300016460778394A42F82760394A42F82730E7
:10A640004B7B80460C46A3B30868DFF8DC904FF0E4
:10A65000A04100F5E07340F20C6241F823206368EA
:10A6600003F5E073002541F82320FFF7CFFF606872
:10A67000FFF7CCFF236803F5E07340F20D6241F869
:10A680002320636803F5E0734FF0010A41F82320AB
:10A69000FFF7B4FF63681F2B8ABF4A464FF0A04202
:10A6A00003F01F03D2F8102522FA03F3DB070CD5C1
:10A6B0000DBB002E3B461B4A214608BF324608F11F
:10A6C0000400BDE8F047FFF74DBE23681F2B86BF8F
:10A6D00003F01F034A464FF0A0420AFA03F3C2F800
:10A6E0000C35FFF78BFF01352068FFF78FFFFFF771
:10A6F00085FF092DCED163681F2B86BF03F01F0392
:10A7000009494FF0A041012202FA03F3C1F80C35C8
:10A71000FFF774FF6068FFF779FFCAE79034002005
:10A7200088340020BDA5020000030050032813D880
:10A73000012A0BD1012908D100F10E02D2B200EB9F
:10A7400040000C4B1A540020704700220129F6D01B
:10A750004BB24BB1022901D007207047054B00EBEB
:10A76000400018444270EEE7024900EB4000084404
:10A770008270E8E79834002008B501220221002009
:10A78000FFF7D4FF08B1072810D1072202210120CA
:10A79000FFF7CCFF08B1072808D100210A2208469C
:10A7A000FFF7C4FF10B1072808BF002008BD000054
:10A7B0000388102B10B502D0112B1ED010BD1A4CDF
:10A7C0002168B1B901220846FFF7B0FF08B1072898
:10A7D00024D1072202210120FFF7A8FF08B1072892
:10A7E0001CD1042202210020FFF7A0FF08B1072896
:10A7F00014D1236801332360E0E70B4A1368013B5F
:10A800001360002BDAD1FFF7B7FF0028D6D0074B33
:10A810001B68002BD2D0BDE810401847034B1B68C3
:10A82000002BE6D09847E4E7A8340020A4340020A9
:10A830000378012B73B52ED01BB1022B2BD002B0A5
:10A8400070BD174C174D20782844FDF72BFE237858
:10A850000133DBB21D44237015F8012C0A2A01D004
:10A86000132BECD90F4D104E2378ADF806300DF1B7
:10A8700006024FF6FF732946304600F032FC0828E6
:10A8800006D01128F0D0052802D008B1FDF726FA2D
:10A8900000232370D3E74068FDF720FACFE700BF1D
:10A8A000B9350020C5340020082B002038B5054DEF
:10A8B000044645F001054FF47A40A847013CFAD11F
:10A8C00038BD00BFC0CD02001FB51B211A22CDE943
:10A8D00000124FF0CC7200230292022203936946C9
:10A8E0008DF80C2006481A46FFF7A0FE08B1FDF7C8
:10A8F000F5F90448FFF7BEFD05B05DF804FB00BFA5
:10A90000C8CD0200CCCD0200F0B503F1080483B03D
:10A9100004F4FC7402AFADEB040D02AC8DF808102A
:10A92000D5180DF10901AA420CD100220133009281
:10A930004108DBB222460648FFF718FE0120043723
:10A94000BD46F0BD12F8016B01F8016BEBE700BFEB
:10A95000CCCD02002DE9FF410C4D8DF80F104608BB
:10A960000124174698460DF10F0223463146009404
:10A970002846FFF7FBFD43463A4631462846FFF797
:10A980000BFE204604B0BDE8F08100BFCCCD020034
:10A9900080B54A4D0FCD8EB008AC0FC495E80300CA
:10A9A000474B484A04934FF4807384E80300CDE991
:10A9B00006230593444A072304A908A8FDF71AFDB6
:10A9C00008B1FDF78BF94FF400410020FCF76EFE53
:10A9D00008B1FDF783F9FCF79FFDFDF709FC08B10D
:10A9E000FDF77CF9FEF774F908B1FDF777F9FFF789
:10A9F0006BFF3220FFF75AFFFFF712FA3348DFF8F8
:10AA0000FC80334C334D00F073FF334B33483449F3
:10AA1000C01AC008000440F00300FDF70BF8314AEB
:10AA200000231370304A13804FF480720021404697
:10AA300000F0B8FF4FF4FA70FFF738FF2448FFF733
:10AA400049FA3220FFF732FF2248FFF783FA2068E5
:10AA500000F0C2FC024625480B460068244900F07D
:10AA60006DFE206800F0B8FC0646A0680F4600F0B6
:10AA7000B3FCCDE90201606800F0AEFC32463B4613
:10AA8000CDE900011B4800F033FF286800F0A4FC6A
:10AA90000646A8680F4600F09FFCCDE902016868F1
:10AAA00000F09AFC3246CDE900013B46124800F026
:10AAB0001FFFFCF755FEFEF721F9B5E7A8CD020010
:10AAC000C0360020C037002031A80200D8CD0200D7
:10AAD000AC340020B83400202CCB02005CCB020048
:10AAE000EACD0200C4340020BA350020C03800206E
:10AAF00013CE020016CE020034CE0200C035002074
:10AB00000369C1688B429DBF8268D21802F1FF328F
:10AB100003F1FF3394BF501A581A70472DE9F041E2
:10AB2000D0E9027405463E1B4068964220448846A0
:10AB3000144404D900F00DFFEC60BDE8F08132460A
:10AB4000E41B00F006FF224608EB06016868F1E707
:10AB50002DE9F843C5680646894617464FF00008B8
:10AB60003469B3687068A54228BFE418013C621BD1
:10AB70005C1BBC4228BF3C46944228BF1446494651
:10AB80002844224600F0E5FEB3682544AB4208BFE6
:10AB900000253F1BA044A144F560E1D14046BDE83B
:10ABA000F883000010B5114C114AA2610223C4E9D8
:10ABB0000433104BE361A2644FF400730E4A236226
:10ABC000E264002310220D49A362E01D6362E36288
:10ABD000A3656365E365226500F017FF0849204619
:10ABE00000F013FF2023A37110BD00BFC438002064
:10ABF00054CE02004C3900203C3900205DCE0200CA
:10AC000061CE0200F8B5184C182300FB033503FB96
:10AC100000402544C46A012C0F46164611D024B1C9
:10AC2000022C1BD000242046F8BD2846FFF768FF01
:10AC3000B042F8D3324639462846FFF76FFF344614
:10AC4000F1E72846FFF75CFF8642344628BF0446FA
:10AC5000224639462846FFF761FFE4E72846BDE86B
:10AC6000F840FFF775BF00BFC4380020FFF79ABF58
:10AC7000034B1A8882420CBF18460020704700BF61
:10AC8000683B0020024B9B6903B11847704700BF27
:10AC90004C3B002013B50B46497A0F4C024669B96C
:10ACA000D4E901101C7A002C18BF01465868FDF742
:10ACB000CFFA08B1FFF7E6FF02B010BD002119720C
:10ACC0006369002BF8D00121ADF806008DF804105F
:10ACD00001A89847F0E700BF4C3B00204B88028852
:10ACE0009A4213D842889A4210D380888A8840F2C8
:10ACF000F313984294BF031AC31A934206D800F282
:10AD0000F310904234BF00200120704700207047AC
:10AD10000388112B70B5014648D002D8102B1ED0E5
:10AD200070BD122B52D0502BFAD12F4BC288DB8929
:10AD30009A42F5D1038A022BF2D186883046FFF77A
:10AD400097FF05460028EBD001F1120000F028F92A
:10AD500030BB6868FDF7C6FA0028E1D009E0C37B84
:10AD6000012BDDD14FF6FF70FFF782FF054620B9BA
:10AD70000420BDE87040FFF785BF1C4A8E8806801E
:10AD8000002303721368C5F80A300A305368436021
:10AD90001031FFF7A3FF144B6872DB89002BBFD182
:10ADA00029463046BDE87040FFF774BF8088FFF742
:10ADB0005FFF04460028B3D04068FDF793FA08B15E
:10ADC000FFF760FF4FF6FF732380A9E786883046C0
:10ADD000FFF74EFF05460028A2D008310A30FFF7E2
:10ADE0007DFF6872DCE700BF4C3B00207C3B00200D
:10ADF0000AB1FDF70ABCFDF711BC73B50191019CC6
:10AE000006466CB100252C46294601A8FDF710FC2A
:10AE100018B106EB440301349D800135142DF3D1A4
:10AE20003046346002B070BD2DE9F0470388848855
:10AE3000103B8CB005460A2B1FD8DFE803F0063F15
:10AE40001E1E1E1E1E1E1E5F4400314EB368DB43D5
:10AE5000009371686846FDF714FC009901A8FFF79C
:10AE6000CCFF0DF108094FF00008019B984507D36E
:10AE7000132C13D90420FCF731FF0CB0BDE8F08788
:10AE800039F802AB00270137514606EB8700FDF782
:10AE9000C5FB1E2FF7D108F10108E6E721461D4842
:10AEA000FDF7B3FB21461C48FDF7AFFBEB7B012B05
:10AEB000E3D021461948FDF7A8FBDEE721461548F7
:10AEC000FDF7ACFBD9E7057A15482D09032D94BF92
:10AED000002201222146FFF78BFF022D94BF0022A2
:10AEE000012221460F48FFF783FF012D0E4894BF32
:10AEF000002201222146FFF77BFFBEE7037A002BE9
:10AF0000BBD1427A0648C2F3C0022146F3E700BF34
:10AF1000843B00208C3B0020883B0020903B00209D
:10AF20009C3B0020983B0020943B002013280146C6
:10AF300002D80248FDF77CBB00207047883B002008
:10AF400010B50446FFF7F2FF002814BF2046142076
:10AF500010BD70B5054616460AB90E2070BD002317
:10AF600013600028F9D00368002BF6D0C38813F0D3
:10AF700003040FD10846FFF7E3FFC0B214280BD03B
:10AF80002B7983420AD9EB882A6800FB03233360BC
:10AF90002046E3E70720E1E70520DFE70420DDE7BF
:10AFA000007800F001007047ADDF7047AEDF7047FA
:10AFB00070B505468AB00C46002962D0002860D0E2
:10AFC0000388502B37D0572B72D0102B59D1818842
:10AFD0006069002601AA0196FFF7BBFF08223146EF
:10AFE0000DEB020000F0DEFC022302AA2189A888F2
:10AFF000CDF80CD00293FFF7D7FF002841D1A36909
:10B00000002B3ED00398FFF7CBFF002839D0019BDF
:10B010000BB101221A701822002104A800F0C2FC12
:10B0200002238DF81030AB88ADF81830019B0594E1
:10B030000793A36923E08188606902AAFFF789FF6B
:10B040001822002104A800F0ADFCAB88ADF8183040
:10B050002189EB88029A05949942079218D12E8A89
:10B06000022E15D16AB105F11200FFF799FF029B7C
:10B0700048B101221A708DF81060A3690BB104A8C1
:10B0800098470AB070BD187003238DF81030F4E7AC
:10B09000A2899A42F5D1A369002BF2D000228DF843
:10B0A000102005F1120208922A8AADF82420E6E762
:10B0B0008188606902AAFFF74CFF01460028E0D1B1
:10B0C000029B1B78002BDCD0182204A800F06AFC3D
:10B0D00001238DF81030AB88ADF818300594029B31
:10B0E000A6E7F0B50F4687B016461C46054618B3CE
:10B0F00001AA19464069FFF72CFFD8B94FF6FF7334
:10B100009C421BD0019BCBB11B78CBB13388F42B75
:10B1100018D80146102202A800F044FCAB88ADF814
:10B12000083002A901232046CDE904678DF80A30D2
:10B13000FFF73CFF07B0F0BD0E20FBE70520F9E765
:10B140000820F7E70720F5E710DF704711DF7047A9
:10B1500013B5044609496846FDF7F6FD019808B99C
:10B1600002B010BDD0E900312046984718B16846BA
:10B17000FDF7F4FDF2E71120F2E700BF84CE0200F4
:10B1800013B5044607496846FDF7DEFD019B0BB980
:10B1900002B010BD2046D3E9002190476846FDF774
:10B1A000DDFDF3E79CCE0200064B9A6822B11A68D7
:10B1B00022F480021A607047034B4FF48002C3F8F8
:10B1C000802070472433002000E100E00B4991F813
:10B1D00016335A09EC231341DB0706D5084B9A684E
:10B1E0003AB94FF480030B60704742F20200FCF75B
:10B1F00075BD1A6842F480021A60704700E100E0F1
:10B2000024330020F7B5194F3C7864BB184E012554
:10B2100020463570FFF79CFF112821D02046FFF70C
:10B22000AFFF144B8DF80340186801900DF1030037
:10B23000FDF776F9104901A8FFF786FF0446B0FA3A
:10B2400080F0400938709DF80300FDF78DF93CB996
:10B250000A4B34701C70FFF7B9FF2846FFF790FFC8
:10B26000204603B0F0BD0824FAE700BF013C0020EF
:10B27000003C00207DCE0200F97C0200023C002050
:10B28000F7B5154F3B781BB3144E01203070FFF714
:10B290005FFF11284FF000051CD00220FFF770FF60
:10B2A0000DF107008DF80750FDF73AF9FFF74EFF53
:10B2B00004469DF807003D70FDF756F92CB934702F
:10B2C000FFF772FF0320FFF75BFF204603B0F0BDDE
:10B2D0000824FAE72C46F8E7013C0020003C002057
:10B2E000054B1B7833B1054B1B780BB1FFF7C8BF7B
:10B2F000FFF788BF08207047003C0020013C002079
:10B30000014B1878704700BF013C002007B5084981
:10B310006846FDF719FD019B13B903B05DF804FB06
:10B32000D3E9002090476846FDF718FDF3E700BF1A
:10B3300090CE0200FFF7EABF61DF704730B5114DD4
:10B34000ADF5017D4FF4FA740DF1020103A8ADF8DB
:10B350000240FFF7F1FF70B9294601A8FDF7F4FCA0
:10B36000029B002BF0D003A8D3E90021904701A84D
:10B37000FDF7F4FCF4E7052801D0FCF7AFFC0DF570
:10B38000017D30BDB0CE0200024B1B780BB1FFF740
:10B39000D5BF7047033C00204BDF70471FB50D4CF5
:10B3A00001A8FFF7F9FF70B9214602A8FDF7CCFC10
:10B3B000039B002BF4D00198D3E90021904702A809
:10B3C000FDF7CCFCF4E7052801D0FCF787FC04B0BE
:10B3D00010BD00BFC8CE0200C0F3C75191B14200FA
:10B3E0004FEA40704FEAD2014FEA310101F160515A
:10B3F000B2F17F4F38BF704701F1605118BF41F47F
:10B400000021704710F000410020704701F0004219
:10B410008B1AA3F16051B1F5801F0ADBB1F17F6F88
:10B4200009D242EAC102C10071F1004142EB507001
:10B4300070471046704701285B4113F5001F04D880
:10B4400042F0FE4040F400007047C90041EA5070ED
:10B4500040EA020040F4800040F08040704700BFA6
:10B4600010EE100A4FEA4000B0F17F4F0CBF0120F0
:10B470000020704710EE100A41000020B1F17F4F0C
:10B4800018BF50EB0000704710EE100A00F00040AB
:10B49000704700BFB0EEC00A704700BF00B510EEA5
:10B4A000100A00F003F800EE100A00BD4FF07F43D1
:10B4B000B3EB400F22D9410008BF704703EA4002B6
:10B4C000120E7F3A14DB172AA8BF70474FF6FF739E
:10B4D000C0F27F03D340184220EA030018BF10F0E7
:10B4E000004F08BF70474FF40001D140401870472B
:10B4F00010F0004F0CBF00200248704718BF0248F0
:10B5000070470000000080BF0000C07F00B501460A
:10B5100010EE100A00F003F800EE100A00BD4FF024
:10B520007F43B3EB400F98BF704713EA400207D048
:10B53000120E7E3A0A6020EA530040F07C507047B9
:10B540000A6000F00040704700B5014610EE100A96
:10B5500000F003F800EE100A00BD4FF07F43B3EB9C
:10B56000400F98BF704713EA400204BF00F000404C
:10B57000704711EB1262DCBF00F000407047FF2AF9
:10B580003CBF00EBC150704740004FEA33007047AA
:10B590007F2805D8034B185C034B5B5C1840704751
:10B5A00000207047E0CE020060CF0200A0F16103EE
:10B5B000192B98BF20387047A0F14103192B98BF71
:10B5C000203070477F2805D8034B185C034B5B5C29
:10B5D0001840704700207047E0CE020060CF0200A4
:10B5E000A0F16103192B98BF20387047A0F14103E7
:10B5F000192B98BF203070477F299ABF0170012016
:10B600006FF02E0070475AB10A787F2A0AD800B12D
:10B610000260002119605960501A18BF012070475C
:10B62000002070476FF02E0070470000002816DBE6
:10B63000002817DD0022B7EE000A0C4B10F0010FB6
:10B640001CBFD3ED007A20EE270A401004330028F7
:10B65000F4DC4AB1F7EE007A87EE800A7047404288
:10B660000122E8E7B7EE000A704700BF44D10200AC
:10B6700038B504460846A26842B1236861685D1C7B
:10B680008D4208BF00208B4208D2D054E3682BB112
:10B6900021686268914201D22146984723680133AC
:10B6A000236038BD70B54C1E09D41646C5B2294674
:10B6B0003046FFF7DDFF013CB4F1FF3FF7D170BD2D
:10B6C00010F0100F09D108B500F40070002814BF65
:10B6D00030202020FFF7E6FF08BD70470028B8BFE4
:10B6E0004042704708B5034B5B689B681B689847EE
:10B6F00008BD00BF2C2B002008B50921FFF7F2FF81
:10B7000008BD000000B5FBF763FE024B18445DF86E
:10B7100004FB00BF0800000008B5064B03EB001057
:10B72000002383606FF000434360034BC36000F06D
:10B73000D1F908BD083C002065B802000EB400B580
:10B7400082B003AA52F8041B0192FFF7E5FF02B092
:10B750005DF804EB03B0704738B5214B214A9B1AC2
:10B76000102B2CD9044600F0A2F904F1130020F0AC
:10B770000F021D4B1968F1B14B689A422AD04FF065
:10B78000FF34002505E0086850B14368934218D0A3
:10B7900001469A42F7D2A3423CBF1C460D46F2E74F
:10B7A0004DB16B689B1A6B60A31AEC18EA5000F05D
:10B7B0007FF904340CE000F07BF9002408E0002459
:10B7C00006E003680B60044644F8042B00F070F9AF
:10B7D000204638BD0868044B18600846F3E700BFF0
:10B7E000945C0020943C0020402B002038B5044697
:10B7F00000EB40021A4B03EBC203586800B138BD9E
:10B80000174B03EBC2039D68002D08BF4FF48075F2
:10B810002846FFF7A1FF04EB4402114B03EBC203E0
:10B82000586080B113460E4A02EBC3039D601A7D37
:10B8300042F008021A7504EB4404094B4FF0FF3242
:10B8400043F83420DBE704EB4403054A02EBC3036F
:10B85000197D022565F30101197500229A60EAE756
:10B86000442B002010B582B001901F4C0C1B2411FA
:10B8700004EB44021D4B03EBC2031B7D03F00303E7
:10B88000022B29D02046FFF7B1FF014620B304EB7D
:10B890004403164A02EBC303DA6801988854013264
:10B8A000DA609B689A420CD004EB44030F4800EB2B
:10B8B000C3031B7D03F00303012B12D1019B0A2B51
:10B8C0000FD12046FBF788FD04EB4404074B03EB44
:10B8D000C4040023E36004E0012201A92046FBF731
:10B8E0007BFD019802B010BD083C0020442B0020D5
:10B8F0000FB410B586B008AB53F8044B0593002382
:10B9000003936FF000430293084B049300F0D1F8C7
:10B91000059A214601A800F0DDF8044600F0CAF8B7
:10B92000204606B0BDE8104004B07047758D020097
:10B93000037853B159B10144034613F8012F12B1F2
:10B940008B42FAD10B46181A70470346FBE70346B1
:10B95000F9E7844640EA010313F0030F18D1844647
:10B96000202A0BD32DE9F007B1E8F807A0E8F80783
:10B97000A2F12002202AF7D2BDE8F007042A07D35B
:10B9800051F8043B40F8043BA2F10402042AF7D228
:10B99000002A05D011F8013B00F8013B013AF9D12A
:10B9A000604670478446002A2DD010F0030F04D063
:10B9B00000F8011B013A26D0F7E7C9B241EA01219C
:10B9C00041EA0141202A12D3A2F120022DE9F0031D
:10B9D0000B460C460D460E460F4688468946A0E8A3
:10B9E000FA03203AFBD2BDE8F00320320BD0042A40
:10B9F00005D340F8041B043A05D0042AF9D200F814
:10BA0000011B013AFBD160467047024610F0030F5C
:10BA100016D111F0030F13D12DE9F0004FF00137CB
:10BA20004FF0803351F8044BA4EB070525EA0405D9
:10BA30001D4002D142F8044BF4E7A1F10401F0BC2F
:10BA400011F8013B02F8013B002BF9D1704700F1DE
:10BA5000010110F0030F11D010F8012B002A23D0A0
:10BA600010F0030F0AD010F8012B002A1CD010F0A0
:10BA7000030F03D010F8012B002A15D02DE9700018
:10BA80004FF001324FF0803350F8044BA4EB020525
:10BA900025EA04051D4000D1F6E7A0F1040070BCC2
:10BAA00010F8012B002AFBD1A0EB01007047704772
:10BAB00070477047704700B583B0009313460A463D
:10BAC0000146222000F068FF03B05DF804FB7047D8
:10BAD000704700002DE9F04F2DED048B8BB08346AD
:10BAE0000391059200230360DFED848A039E16F81C
:10BAF000011B002900F00C87252904D05846FFF7C8
:10BB0000B7FD0396F2E74FF0000802E048F0400866
:10BB10002646344614F8010BA0F120033E2B00F218
:10BB2000938001A252F823F00DBB020049BC020031
:10BB300049BC020025BC020049BC020049BC02000D
:10BB400049BC02002BBC020049BC020049BC0200F7
:10BB500049BC020037BC020049BC02003DBC0200E7
:10BB600049BC020049BC020043BC020049BC0200BF
:10BB700049BC020049BC020049BC020049BC0200A9
:10BB800049BC020049BC020049BC020049BC020099
:10BB900049BC020049BC020049BC020049BC020089
:10BBA00049BC020049BC020049BC020049BC020079
:10BBB00049BC020049BC020049BC020049BC020069
:10BBC00049BC020049BC020049BC020049BC020059
:10BBD00049BC020049BC020049BC020049BC020049
:10BBE00049BC020049BC020049BC020049BC020039
:10BBF00049BC020049BC020049BC020049BC020029
:10BC000049BC020049BC020049BC020049BC020018
:10BC100049BC020049BC020049BC020049BC020008
:10BC200031BC020048F0800872E748F400486FE732
:10BC300048F480586CE748F0200869E748F010089D
:10BC400066E748F4007863E72A281ED1059B1A1D91
:10BC500005921D68002DBCBF6D4248F01008207889
:10BC6000B41C25EAE5752E2824D00026742847D078
:10BC70007A2845D06C2800F0C5804C2800F0C98097
:10BC8000682800F0D88003943EE0A0F13003DBB2D6
:10BC9000092B88BF0025E4D8002505EB8505303841
:10BCA00000EB450514F8010BA0F13003DBB2092BC2
:10BCB000F3D9D6E720782A280AD1059B1A1D0592C8
:10BCC0001E6860780234002ED0DB48F48078CDE71F
:10BCD0000134A0F13003DBB2092B88BF0026F4D871
:10BCE000002606EB8606303800EB460614F8010BFA
:10BCF000A0F13003DBB2092BF3D9E4E70000C8421E
:10BD0000234613F8010B0393782800F2A280DFE8A2
:10BD100010F01106A000A000A000A000A000A0004C
:10BD2000A000A000A000A000A000A000A000A00013
:10BD3000A000A000A000A000A000A000A000A00003
:10BD4000A000A000A000A000A000A000A000A000F3
:10BD5000A000A000A000A000A000A000A200A000E1
:10BD6000A000A000A000A000A000A000A000A000D3
:10BD7000A000A000A000A000A000A000A000A000C3
:10BD8000A000A000A000A000A000A000A000A000B3
:10BD9000A000A000A000A000A000A000C201DF0140
:10BDA000E401A000A000A000A000A000A000A0004E
:10BDB000A000A000A000A000A000A000A000A00083
:10BDC000A0001A01A000A000A000A000A000A000F8
:10BDD000A000A000A000A000A7005001C401E10144
:10BDE000E601A0005001A000A000A000A000B60045
:10BDF0003D010001A000A000C900A0004901A00071
:10BE0000A0001C01234613F8010B039348F001081E
:10BE10007AE748F00108B34BD3F80090B9F1000F6E
:10BE200000F0738505AB019300962B4642465946B8
:10BE3000C84703945AE62078682804D0631C03930B
:10BE400048F0040860E748F00808A31C03936078F2
:10BE50005AE7039CDFE725215846FFF709FC45E632
:10BE6000059B1A1D05921C78013D5A4629464046FD
:10BE7000FFF726FC21465846FFF7FAFB3AE018F098
:10BE8000080F07D0DBF80020059B191D05911B68E2
:10BE90001A702BE6059B1A1D05921B68DBF8002023
:10BEA0001A6023E6059B1A1D0592D3F800A0C1462F
:10BEB0008D4BBAF1000F08BF9A4629F4007819F4A7
:10BEC000807F21D031465046FFF732FD0646AD1B3C
:10BED0005A4629464046FFF7F3FB771E56B15446B3
:10BEE000564414F8011B5846FFF7C2FBA642F8D18E
:10BEF0004FF0FF3718F0100F3FF4F8AD5A462946BF
:10BF00002020FFF7CFFBF1E55046FFF7A0FD0646E6
:10BF1000DDE7059B1A1D05921B6808F08002002AC8
:10BF20000CBF0027232748F4807808261A46002BE8
:10BF300000F0BC8406AB002408F40050DFF8ACC16C
:10BF4000AE4600F068BC48F4005818F0800F07D0E7
:10BF500043F2780743F25803782818BF1F4600E0E1
:10BF6000002718F4807F01D028F4007818F4804F5F
:10BF700032D0059B1A1D05921B6818F0040F1ED0C5
:10BF80001BB2002B1FDA5B422D272DE008F0800347
:10BF9000002B0CBF0027302718F4807FE6D028F450
:10BFA0000078E3E718F4807F07D028F400780027B2
:10BFB000DCE748F480480027D8E70027D6E718F0E8
:10BFC000080FDED0DBB218F0200F62D108F040027B
:10BFD000002A18BF202707E0059B1A1D05921B6841
:10BFE00018F0040F50D09BB218F4807F00F0EA8361
:10BFF00028F400785838202800F2568401A252F81C
:10C0000020F000BF2DBF0200A9C80200A9C802008D
:10C01000A9C80200A9C80200A9C80200A9C8020054
:10C02000A9C80200A9C80200A9C80200A9C8020044
:10C03000A9C80200E9C70200A9C80200A9C80200F5
:10C04000A9C80200A9C80200E9C70200A9C80200E5
:10C05000A9C80200A9C80200A9C80200A9C8020014
:10C06000C9C702002DBF0200A9C80200A9C802006A
:10C07000A9C80200A9C80200E9C70200A9C80200B5
:10C08000A9C802002DBF020018F0080FACD0DBB227
:10C09000AAE72B27A8E748F4005848F48069059BD5
:10C0A000073323F0070303F108020592D3E90001E7
:10C0B000FFF7ACF908EE100A19F4807F18D0C6B962
:10C0C00009F44066B6F5406F14BF0026012610E063
:10C0D00048F4005848F40069E1E748F4005848F48F
:10C0E0004069DCE7043C002084D1020030D102002A
:10C0F0000626B0EE480AFFF7B3F9002840F0BB80EF
:10C10000B0EE480AFFF7B6F98046002840F0D2802A
:10C11000B0EE480AFFF7B8F9002840F0D78018EED3
:10C12000103A08EE103A09A800EE103AFFF7EEF9BF
:10C13000099B03EB4303C84A82FB0312DB17C3EBE3
:10C14000A2030993B5EE408AF1EE10FA40F0C880E0
:10C1500009F44064B4F5806F0AD0B4F5406F40F044
:10C160008F81099BB34203DA13F1040F80F28881B7
:10C1700009984042FFF75AFA28EE008A8DED048AAA
:10C18000B5EE408AF1EE10FA36D0B0EE480AFFF76D
:10C1900067F9002840F0BA80F2EE047AB4EEE78A3C
:10C1A000F1EE10FA0FDB099B0133F2EE047A1A4626
:10C1B00088EE278A0133B4EEE78AF1EE10FAF6DA58
:10C1C0008DED048A0992DDED047AB7EE007AF4EE83
:10C1D000C77AF1EE10FA0FD5099B013BF2EE046A23
:10C1E0001A4667EEA67A013BF4EEC77AF1EE10FA32
:10C1F000F6D4CDED047A099226B1B4F5406F08BFAC
:10C2000006F1FF367042FFF711FAF6EE007A60EEA3
:10C21000277A9DED047A77EE877AB2EE047AF4EE0F
:10C22000C77AF1EE10FA80F28F80B0EE678A002EA6
:10C2300000F09F8009F40863B3F5006F00F08C8074
:10C2400029F4006A731DED1A013D19F4805F00F0B6
:10C25000CB80099A814B83FB0213A3EBE27303EBC0
:10C260004303D31A0233042B00F2BC80DFE803F04F
:10C27000A8B2A3A8B200B5EEC08AF1EE10FA10D4AD
:10C2800009F4005A764B774ABAF1000F14BF9A4668
:10C29000924619F0200F08BF0AF1010A29F48079AB
:10C2A00006E609F400537049704A002B14BF8A4611
:10C2B0009246F3E709F4005A6D4A6E4BBAF1000F4B
:10C2C00014BF92469A4629F48079F6E549F0600950
:10C2D000F1EE487A17EE903A23E7099B0133099370
:10C2E00009980130FFF7A2F9B4EEC08AF1EE10FA16
:10C2F000F3DC02E0099B013B09930998FFF796F9EB
:10C30000B4EEC08AF1EE10FAF4D421E7B5EEC08A9B
:10C31000F1EE10FA0FD409F40053DFF844A1514AAA
:10C32000002B08BF924619F0200F08BF0AF1010A3E
:10C3300029F48079BCE509F400534B494B4A002BA2
:10C3400014BF8A469246F3E7099B01330993B2EE84
:10C35000047A87EE878A6AE7092EA8BF0926304645
:10C36000FFF764F920EE080AFCEEC07A17EE902A77
:10C3700042B929F4006A053D19F080063FF465AF23
:10C38000464661E73C4BA3FB0213DB0803EB830348
:10C39000B2EB430F7FF454AF3749A1FB0232D2080E
:10C3A000013EE6D0A1FB0203DB0803EB8303B2EB03
:10C3B000430FF2D044E74FF0010826EAE67615E095
:10C3C000F2EE047A27EE888A013A0992013D4FF095
:10C3D0000208F2E728EE888A023A0992023D4FF0FD
:10C3E0000308EAE7B846E8E74FF0010819F0600FE4
:10C3F00018BF05F1FF350998FFF770F96328C8BF2A
:10C4000005F1FF35F0EE487ABCEEC87A17EE104A17
:10C41000B8EE478A37EEC88A25EAE5771AF4047F32
:10C4200000F0C8801AF0200F00F0D0800AF040031E
:10C43000002B14BF2D212B215846FFF719F91AF0B4
:10C44000100F00F0CC800D4B08F10055013D03EBBF
:10C45000C5059946D8E000BF6766666656555555CE
:10C460006CD1020074D102005CD1020064D10200E0
:10C470007CD1020080D10200CDCCCCCC90D1020086
:10C4800019F4806F29D0099B0E2B25DC0133F41A97
:10C49000092CA8BF092419F0800F01D026461CE002
:10C4A000B3426BD0F6EE009AB2EE049A2046FFF744
:10C4B000BDF828EE000A30EE290AFEF7EFFFF0EE95
:10C4C000490A00F0A1FAB5EE400AF1EE10FA57D190
:10C4D000013CEBD1264600E0464629F4806A099BE0
:10C4E0007042A3F108028242C8BFA3F10900FFF71E
:10C4F0009DF84FF0FF30FFF727F838EE008AB0EED6
:10C50000489A09980130FFF791F8B4EEC08AF1EE2D
:10C5100010FA02DD099B013309930998002841DBD9
:10C5200009282FDCFCEEC97A17EE904AB8EE678A2C
:10C5300039EE488A0023099320460021002908BFCC
:10C540000A2C34D3C34F4FF0010808F10108F7E972
:10C550000223994208BF9042F7D206EB0803099ADA
:10C560001344ED1A09F08003334318BF05F1FF357A
:10C5700019F0600F18BF05F1FF354DE72646ACE70F
:10C580002646AAE7A0F109030993C0F10900FFF7C5
:10C590004DF829EE000AFCEEC07A17EE904A08EE3C
:10C5A000108AC9E7002409944FF00108D5E74FF03D
:10C5B0000108D2E7002D7FF735AF2025013F29463E
:10C5C0005846FFF755F8002FF8D12BE71AF0400F27
:10C5D0003FF435AF20215846FFF74AF82FE7002FE8
:10C5E0003FF431AF3025013F29465846FFF740F868
:10C5F000002FF8D127E74FF0300C61465846FFF77F
:10C6000037F84D4515D04546A84678E80223002165
:10C61000994208BF9442EED34FF0300C0CF1010C5C
:10C620005FFA8CFCA41A0021994208BF9442F5D20B
:10C63000E3E71AF4006447D1002E53D11AF0800FBB
:10C6400040F07B811AF4806F31D00AF4005ABAF1BD
:10C65000000F14BF452165215846FFF709F8099BD3
:10C66000002BC0F291802B215846FFF701F8099961
:10C67000632900F391800999774C84FB0132C91733
:10C68000C1EBA2013031C9B25846FEF7F1FF099B58
:10C6900084FB0312D917C1EBA20101EB8101A3EBCB
:10C6A000410303F13001C9B25846FEF7E1FF002F04
:10C6B0003FF41CAA2024013F21465846FEF7D8FF2C
:10C6C000002FF8D1FFF712BA099B002BB4DD3025FB
:10C6D000013B099329465846FEF7CAFF099B002BE8
:10C6E000F6DCA9E72E215846FEF7C2FF3546092E93
:10C6F000A8BF092525EAE575761B8CB10998281A8B
:10C70000FEF794FF20EE088AFCEEC87A17EE904AF6
:10C710005DB305F10055013D504B03EBC5080AE040
:10C720002846FEF783FF20EE088AFCEEC87A17EE53
:10C73000904AEDE7A846454675E802230021994254
:10C7400008BF94421DD34FF0300C0CF1010C5FFA7E
:10C750008CFCA41A0021994208BF9442F5D261468C
:10C760005846FEF785FFC845E4D1002E3FF46AAF76
:10C770003024013E21465846FEF77AFF002EF8D1BC
:10C7800060E74FF0300CEAE72D215846FEF770FFC6
:10C79000099B5B4209936AE7314C84FB0132C9175C
:10C7A000C1EB62113031C9B25846FEF761FF099AF8
:10C7B00084FB0231D317C3EB6113642101FB132304
:10C7C000099358E7012615E41A4600245BB306A92D
:10C7D000002403F00703303301F8013B0134D20891
:10C7E0001346002AF5D11EE019460024DBB10024CF
:10C7F00008F4004E4FF02C09DFF86CC07346AE46CB
:10C800001D4643E002F00F01164D695C03F8011B61
:10C810000134120906D00028F4D002F00F011CF8F0
:10C820000110F3E77546361B26EAE676AD1B2D1B95
:10C83000FF2F3DD9023D18F4007F00F08880C7F338
:10C8400007215846FEF714FFF9B25846FEF710FFCD
:10C8500033E000BF98D102006766666690D102009F
:10C860001F85EB5120D10200CDCCCCCC0AAB1819DE
:10C87000ACFB0132D20802EB8203A1EB430330335D
:10C8800000F8103C013409290CD91146002DEDD0D7
:10C8900004F00303032BE9D10AAB234403F8109CF3
:10C8A0000134E3E77546BEE70024BCE70024BAE79D
:10C8B000002F48D118F4007F49D05A4629464046F7
:10C8C000FEF7FEFE5A4631463020FEF7EBFE671EAD
:10C8D00010D406AF661E3E4402E00025AFE72646B0
:10C8E000344614F801195846FEF7C2FEB742F6D195
:10C8F0004FF0FF3718F0100F3FF4F8A85A462946BA
:10C900002020FEF7CFFEFFF7F1B80394FFF7EEB853
:10C91000DBF808303BB1DBF80020DBF804108A427A
:10C920003CBF00219954DBF800000BB0BDEC048B38
:10C93000BDE8F08F4FF0FF30F7E72E215846FEF7A5
:10C9400097FE3546D8E6013D18F4007F08D15A46D7
:10C9500029464046FEF7B4FEFF2F98BF0025BCD8FD
:10C96000002FAAD070E700BF38B504460D46FFF788
:10C97000AEF8074B1D6044F08004064B1C601A465D
:10C980001368002BFCD1FFF7A3F8014B186838BDE2
:10C990008C3C0020883C00200FB408B502A951F857
:10C9A000040BFFF7E1FFBDE8084004B0704700004A
:10C9B000DFED137AB4EE670AF1EE10FA12D010EE42
:10C9C000102AC2F3C7537F3B11D4162B12DC0D493A
:10C9D00021FA03F322EA030207EE902A026030EE06
:10C9E000670A7047C0ED007AB0EE670A7047C0ED85
:10C9F000007A704780ED000AB0EE670A704700BF0A
:10CA000000000000FFFF7F0000B52DED028BF5EE6A
:10CA1000400AF1EE10FA83B04BD0B0EE608AF0EE2F
:10CA2000408AFEF727FD30B1B0EE680A03B0BDECD6
:10CA3000028B5DF804FBB0EE480AFEF71BFD0028F0
:10CA400043D1F5EE408AF1EE10FAEDD0B0EE680A6F
:10CA5000FEF706FD00283FD1B0EE480AFEF700FDC4
:10CA60000028E1D1B0EE480AFEF714FDB0EE408A8E
:10CA700001A888EE880AFFF79BFF9DED017AF5EE8D
:10CA8000C08AF1EE487AB0EE680AF1EE10FAA7EE2D
:10CA9000870A24DDB4EEC08AF1EE10FA98BF30EEBA
:10CAA000480AB5EEC00AF1EE10FABFD530EE080A1A
:10CAB000BCE7FEF727FE114B9FED110A1B680360D0
:10CAC00003B0BDEC028B5DF804FBB0EE480A03B086
:10CAD000BDEC028B5DF804FB9FED090AA6E7B4EEFE
