:020000040002F8
:10600000187D0020C1630200C9630200CB63020057
:10601000CD630200CF630200D163020000000000E4
:10602000000000000000000000000000D363020038
:10603000D563020000000000D7630200D9630200AC
:106040009D6D0200DB6302006D700200796E02003C
:10605000DB630200DB630200116A0200DB63020003
:10606000DB630200DB630200DB630200DB63020030
:10607000DB630200DB630200DB630200DB63020020
:10608000DB630200F56D0200DB630200DB630200EC
:10609000896E0200DB6302008D6E0200DB6302008A
:1060A000DB630200DB630200DB630200DB630200F0
:1060B000DB630200DB630200000000000000000060
:1060C000DB630200DB630200DB630200DB630200D0
:1060D000DB630200DB630200DB630200DB630200C0
:1060E000DB630200DB630200DB63020000000000F0
:1060F00000000000DB63020000000000DB63020020
:10610000000000000000000000000000000000008F
:10611000000000000000000000000000000000007F
:10612000000000000000000000000000000000006F
:10613000000000000000000000000000000000005F
:10614000000000000000000000000000000000004F
:10615000000000000000000000000000000000003F
:10616000000000000000000000000000000000002F
:10617000000000000000000000000000000000001F
:10618000000000000000000000000000000000000F
:1061900000000000000000000000000000000000FF
:1061A00000000000000000000000000000000000EF
:1061B00000000000000000000000000000000000DF
:1061C00000000000000000000000000000000000CF
:1061D00000000000000000000000000000000000BF
:1061E00000000000000000000000000000000000AF
:1061F000000000000000000000000000000000009F
:10620000DFF80CD000F058FB004800474D9C02001E
:10621000187D002030B450E8012F93B2C489234484
:106220008489A34228BF1B1B0489A34202BFBFF37A
:106230002F8F002007E0C3EA020340E80134002C5E
:10624000E9D14FF001000A6030BC704750E8012FDF
:10625000C2EA024240E801210029F7D1704730B478
:1062600050E8022F1FFAA2F3C488A34202BFBFF373
:106270002F8F00200DE0C48923448489A34228BFC6
:106280001B1BC2EA034340E80234002CE8D14FF064
:1062900001000A6030BC704750E8022FC2EA224277
:1062A00040E802210029F7D17047034653E8022F46
:1062B000D988B2EB324F4FF0000017BF92B241EADB
:1062C000014142EA014104E05A68B2EB324F08BF93
:1062D000012043E80212002AE8D1704730B4044696
:1062E00054E8000F0D4644E80053002BF8D1156028
:1062F00030BC704730B4044654E8000F40EA010552
:1063000044E80053002BF7D1156030BC704730B41F
:10631000044654E8000F00EA010544E80053002B4E
:10632000F7D1156030BC704730B4044654E8000F14
:1063300080EA010544E80053002BF7D1156030BC1A
:10634000704730B4044654E8000F00EB010544E800
:106350000053002BF7D1156030BC704730B40446B1
:1063600054E8000FA0EB010544E80053002BF7D1DF
:10637000156030BC704770B404464FF0000054E81C
:10638000006F0D68AE4207BF44E80023012044E8D7
:1063900000630E60002B1CBF0020F0E770BC70474C
:1063A00030B4044654E8000F88422CBF451A054615
:1063B00044E80053002BF5D1156030BC7047000055
:1063C0000648804706480047FEE7FEE7FEE7FEE78F
:1063D000FEE7FEE7FEE7FEE7FEE7FEE7916E02005E
:1063E000016202002DE9F05F0546002092469B46BF
:1063F00088460646814640241BE0284641464746DB
:10640000224600F090F853465A46C01A914110D3E4
:1064100011461846224600F016F82D1A67EB0108BF
:106420004F4622460120002100F00DF817EB00092D
:106430004E41201EA4F10104DFDC484631462A46C5
:106440004346BDE8F09F202A04DB203A00FA02F11F
:10645000002070479140C2F1200320FA03F3194352
:106460009040704700487047E0DD020040EA0103B9
:106470009B0703D009E008C9121F08C0042AFAD2FA
:1064800003E011F8013B00F8013B521EF9D27047BE
:10649000D2B201E000F8012B491EFBD27047002266
:1064A000F6E710B513460A4604461946FFF7F0FF13
:1064B000204610BD421C10F8011B0029FBD1801A98
:1064C0007047034611F8012B00F8012B002AF9D17F
:1064D0001846704700F0004230F000400AD0C10D6D
:1064E00001F56071C0F3160042EA0151C20840078D
:1064F0001143704700200146704730B50B460146F6
:1065000000202022012409E021FA02F59D4205D352
:1065100003FA02F5491B04FA02F52844151EA2F1FC
:106520000102F1DC30BD202A04DB203A21FA02F01E
:106530000021704721FA02F3D040C2F120029140BD
:106540000843194670472DE9FE4F804681EA030053
:10655000C00F0C46009021F0004123F00045B8EB3D
:106560000200A94105D24046214690461C460B46F2
:10657000024623F00040104347D0270DC7F30A001E
:10658000C3F30A510290401A019040286BDAC3F31A
:10659000130040F4801B0098924620B10023D2EBF8
:1065A000030A63EB0B0B01985946C0F140025046B9
:1065B000FFF749FF06460D4650465946019A00F03E
:1065C0008DF910EB08006141002487EA115284EA3A
:1065D000E7731A4340D0009A62B3019A012A4FEA46
:1065E000075215DC001B61EB02014FF0004202EA8A
:1065F0000752CDE90042001C41F5801132462B467E
:1066000000F08DF903B0BDE8F08F40462146F9E770
:10661000001B61EB0201001C41F5801300185B4177
:106620002018A2F5001747EB030140EAD570B61910
:106630006D4111E06D084FEA360645EAC0754FEA34
:106640000752001B61EB0201001C41F58011490853
:106650004FEA30000019514132462B4603B0BDE8E5
:10666000F04F00F04DB90098012240000023D0EB1C
:10667000020263EBE073009821464FEAE074B8EB46
:10668000000061EB0401E9E783F000435BE781F080
:10669000004158E72DE9FE4F81EA030404F000446D
:1066A00021F0004100944FF0000B23F0004350EA2A
:1066B00001045ED052EA03045BD0C3F30A54C1F371
:1066C0000A552C44A4F2F3340194A0FB0254C1F304
:1066D000130141F48011C3F3130343F4801301FB4E
:1066E000024400FB034E840A970A44EA815447EAB5
:1066F0008357A4FB076802958D0A05FB07854FEABF
:10670000932C04FB0C542705029D4FEA065847EAD8
:106710001637B5EB08056EEB070C870E920E47EAAD
:10672000811742EA8312A7FB0201B6EB0B0164EB6F
:1067300000042B0D43EA0C335E1844EB1C50DA4680
:106740005146E7FB0201C5F313044FEA0B3343EA5A
:1067500014534FEA0432019C43EA0603A4F10C04EB
:106760000294009CCDE900B400F0D9F803B0BDE874
:10677000F08F00200146F9E72DE9F04D81EA03048E
:1067800004F0004B21F0004514464FF0000A23F0BE
:10679000004150EA050220D054EA01021DD0C5F3A1
:1067A0000A570246C5F31303C1F31300C1F30A5697
:1067B00040F4801543F48013A7EB0608101BD6465F
:1067C00008F2FD3873EB050002D308F1010801E07F
:1067D00092185B41B8F1000F03DA00200146BDE8D2
:1067E000F08D00204FF48011064684460EE0171B02
:1067F00073EB050705D3121B63EB050306434CEA55
:10680000010C49084FEA300092185B4150EA010739
:10681000EDD152EA030012D082EA040083EA0501B6
:10682000084305D0101BAB4106D20122002306E02D
:1068300000224FF0004302E06FF0010253101AEB08
:1068400006004CEB085110EB0A0041EB0B01BDE8D0
:10685000F04D00F055B8C1F30A52C1F3130140F2F4
:10686000FF3341F480119A4202DA0020014670475A
:1068700040F233439A42A2F2334202DC5242FFF723
:1068800052BEFFF7E0BD000030B5041E71F10004F8
:1068900004DB4FF00044404264EB0101141E73F12D
:1068A000000405DB1C464FF00043524263EB040337
:1068B000994208BF904230BD064C074D06E0E068A3
:1068C00040F0010394E8070098471034AC42F6D337
:1068D000FFF79AFC58E5020078E50200202A06DB63
:1068E000CB17203A41FA02F043EAE07306E041FA9E
:1068F00002F3D040C2F1200291400843194670478C
:1069000010B5141E73F1000408DA401C41F10001B7
:1069100092185B411A4301D120F0010010BD2DE90E
:10692000F04D92469B4611B1B1FA81F202E0B0FA05
:1069300080F220329046FFF786FD04460F4640EA7B
:106940000A0041EA0B0153465A46084313D0114648
:1069500053EA010019D0C8F140025046FFF7E3FDA9
:1069600005460E46504659464246FFF76CFD084321
:1069700005D0012004E020463946BDE8F08D002016
:10698000054346EAE0762C4337430A986305E40A58
:10699000A0EB08000022FD0A44EA47540A3002D561
:1069A00000200146E9E7010510196941DDE90845C4
:1069B00000196941BDE8F04DA2E770B58C1810F8D8
:1069C000015B15F0070301D110F8013B2A1106D134
:1069D00010F8012B03E010F8016B01F8016B5B1E4E
:1069E000F9D12B0705D40023521E0DD401F8013B29
:1069F000FAE710F8013BCB1A921C03E013F8015B95
:106A000001F8015B521EF9D5A142D8D3002070BD18
:106A10002DE9F04F00268DB0DFF8A081B146049635
:106A20004FF48075012437460596284604F084F912
:106A300038B1D8F80403204203D0284604F072F994
:106A400026432D1D64007F1CADB2082FEDD34FF4FB
:106A5000BE74204604F070F948B1204604F062F993
:106A600046F0004604AA0221002004F045F9544CE7
:106A700016F0FF0F15D00127002537420DD008EB87
:106A80008501D1F81005D1F81015C0F3052054F890
:106A90002520C1F3014102B190477F006D1C082DF4
:106AA000EBD3002E7EDA0020CDF82890411E0DF1A8
:106AB000100B07AACDF82C9042F82010401C9146EC
:106AC0000228F9D300252E46A11911F8607F91F90B
:106AD000000027F0C008401C40D007A9404603F042
:106AE0000BFC40B34FEA971A404602F0AFFB54F854
:106AF00020701FB1BAF1030F03D006E0BAF1030F03
:106B00002CD10AA9404603F0FFFB02A8CDF808806B
:106B100004F07EF8029900EB8100D0F8000704A988
:106B2000C0F301400290404603F0E6FB00280298C3
:106B300002D0022802D011E003280FD1BAF1030FCE
:106B400008D10298022833D00221404604F030F8E0
:106B50006D1CEDB217B151464046B847761C042E65
:106B6000B2D3002D21D001AA0221002004F0C4F8E4
:106B700000205A460DF1040152F8206051F82030EF
:106B8000B34217D000200AAE4FEA090351F8207033
:106B900042F8207056F8207043F82070401C0228FC
:106BA000F4D300E001E0002D8CD10DB0BDE8F08FF2
:106BB0000321CAE7401C0228DED3F6E7006000404C
:106BC000783200201CB50446002000900190062376
:106BD0006A463B21D02002F01BFEBDF80000BDF844
:106BE000042040BA01B200EE101ABDF8020052BAF9
:106BF000F8EEC00A9FED0C0A40BA00B260EE800ABF
:106C000012B2C4ED000A00EE900AF8EEE00A60EE5F
:106C1000800AC4ED010A00EE902AF8EEE00A20EEA8
:106C2000800A84ED020A1CBDD5E71C3A1CB5044657
:106C300000200090019006236A464321D02002F0F4
:106C4000E7FDBDF80000BDF8042040BA01B200EE37
:106C5000101ABDF8020052BAF8EEC00A9FED0C0AF5
:106C600040BA00B260EE800A12B2C4ED000A00EE33
:106C7000900AF8EEE00A60EE800AC4ED010A00EE28
:106C8000902AF8EEE00A20EE800A84ED020A1CBD8C
:106C9000787D8B3A7CB5802000258DF800008DF83A
:106CA000045001236A466B21D02002F0CBFD002066
:106CB00047F2305400BF401CA042FBDB8DF800506F
:106CC00001236A466B21D02002F0BCFD012301AAFA
:106CD0007521D02002F09CFD002000BF401CA04286
:106CE000FBDB8DF8005001236A466B21D02002F0B7
:106CF000A9FD01236A466C21D02002F089FD9DF890
:106D00000000012320F03F008DF800006A466C214E
:106D1000D02002F097FD8DF8005001236A461C2117
:106D2000D02002F08FFD18208DF8000001236A4664
:106D30001B21D02002F086FD7CBD00F01F02012146
:106D400091404009800000F1E020C0F880127047B7
:106D500000F01F02012191404009800000F1E02075
:106D6000C0F80011704700F01F0201219140400956
:106D7000800000F1E020C0F8001270474907090EBA
:106D8000002806DA00F00F0000F1E02080F8141D62
:106D9000704700F1E02080F80014704770B54FF4A0
:106DA0008076304603F0F4FB114CB50560B13046F7
:106DB00003F0F5FB0120C5F80803607920B9012034
:106DC00060712168002088474FF48276304603F0D6
:106DD000DFFB00280AD0304603F0E1FB0220C5F8B3
:106DE00008032168BDE870400120084770BD00001D
:106DF000002B002007480021C0F84011C0F84411C2
:106E0000C0F84811C0F84C11C0F80011C0F80411C6
:106E100005F070BF0010014000F02EB970B50E46AD
:106E2000144900EB400001EBC0051446E86A183530
:106E300020B101280FD0022805D113E0284600F028
:106E40004FF9A04201D2002411E0224631462846E3
:106E500000F07EF90BE0284600F042F9A042F4D29F
:106E60000446F2E73146284600F045F9044620463C
:106E700070BD00008C3A00200149024805F0FCBFBB
:106E8000343300200030004005F082BE04F0CCBC5A
:106E900030B54FF0805000228300D0F83011C3F895
:106EA0000C21C3F81021624B1A60624B1B68624CC4
:106EB0002360604B1B1D1B68241D23605D4B083342
:106EC0001B68241D23605B4B0C331B68241D23604F
:106ED000584B10331B68241D2360564B14331B681A
:106EE000241D2360534B18331B68534C20342360FC
:106EF000504B1C331B68241D23604E4B20331B68F2
:106F0000241D23604B4B24331B68241D2360494BF5
:106F100028331B68241D2360464B2C331B68241D1B
:106F20002360444B30331B68434C40342360414B57
:106F300034331B68241D23603E4B38331B68241DEB
:106F400023603C4B3C331B68241D2360394B40338A
:106F50001B68241D23600124082902D1D0F8343194
:106F600013B1082904D006E0354B3449196005E017
:106F7000D0F8343113B1082904D006E0314BFB219D
:106F8000196005E0D0F8343113B1082908D00EE0BB
:106F900090F858322C48016863F30301016002E065
:106FA000D0F834311BB929494FF4007008602848E3
:106FB0000168C90702D06FF001010160254801682E
:106FC00041F470010160BFF34F8FBFF36F8F4FF03B
:106FD0001021D1F80002002803DBD1F804020028B8
:106FE00022DA1D4B1C601D480468002CFCD01224C2
:106FF000C1F800420568002DFCD0C1F804420168C8
:107000000029FCD01A6001680029FCD0BFF34F8F23
:1070100010487C380168124A01F4E06111430160B4
:10702000BFF34F8F00BFFDE70F490E48086030BD2A
:10703000380500400404001020C5004048810300CA
:107040008C56004018F50040E40E00404096024087
:107050000004004088ED00E004E5014000E4014048
:107060000400FA050090D003FC2B002001480068C2
:1070700000470000082B002010B5124C02202061B0
:10708000606111A0A06104F17800E0614FF400702C
:1070900020620020A06260620BA1A164E06204F59E
:1070A0001E71E1641021A065C4E91410E06509A116
:1070B000E01DFFF706FA08A12046FFF702FA20209C
:1070C000A07110BD8C3A00205465726D696E616CC0
:1070D00000000000525454005345474745520000F9
:1070E0000269C1688A4203D88068401A104400E0EF
:1070F000501A401E70472DE9F047C468174689466C
:1071000006464FF000083069A04201D9051B02E095
:10711000B168201A0D1AB0686D1E001BA84200D875
:107120000546BD4200D33D4670682A462044494684
:10713000FFF79CF9B0687F1B2C44A844A944A042E7
:1071400000D10024F460002FDDD14046BDE8F08777
:107150002DE9F04104468846D4E90207C51BE168E1
:10716000606816460844B54206D94146FFF77EF9E5
:10717000B819E060BDE8F0812A464146FFF776F98C
:10718000761B08EB050132466068FFF76FF9E66091
:10719000F0E700000FB4054B10B503A9044A0298AC
:1071A00000F004F910BC5DF814FB0000AB9602007F
:1071B000942B00200FB41CB50246002007AC002918
:1071C0000BD0491ECDE90021054B6A4621460698A1
:1071D00000F0ECF8009A002111701CBC5DF814FB63
:1071E000DB7A020002E008C8121F08C1002AFAD1A7
:1071F00070477047002001E001C1121F002AFBD137
:10720000704700000121202803DA81400548014031
:1072100003E0402802DA2038814009B1012070479C
:1072200000207047FC06FFBD2DE9FF5F82B0002102
:10723000DDE90430020DDDF840B0034318D044F618
:107240001050A2F2FF3242431514119801281FD0AA
:10725000A5EB0B00401C5FEA000A4FF000064E4F02
:10726000DFF83891B046504615D5CAF1000413E056
:10727000119801244AA3012801D16FEA0B01029859
:10728000119AC0E90031C0E9024206B0BDE8F09FA2
:10729000CBF10000DFE704460021404A491842EBE9
:1072A0000450CDE9001012E0E00707D032463B461B
:1072B00040464946FFF7EEF98046894632463B464E
:1072C00010461946FFF7E6F906460F466410002CF3
:1072D000EAD1DDE90401DDE90023BAF1000F06DAA5
:1072E000FFF7D8F942464B46FFF7D4F905E0FFF720
:1072F00043FA42464B46FFF73FFA04460E46002249
:10730000284BFFF7C1FA03D84FF0FF30014607E0E2
:107310000022254B20463146FFF715F9FFF79BFA6F
:10732000102409E0002C0ADB0A220023FFF75AF898
:10733000039B30321A55641E50EA0102F2D1641CDC
:10734000039AC4F111031444119A012A03D00122B3
:1073500008430DD10AE0084304D000204FF0110B80
:10736000119072E7A3EB0B056D1E0DE05B4504DD8C
:107370004FF0000205F1010504E003DA4FF00002CE
:10738000A5F10105002AECD002981199C0E902315B
:10739000C0E9004579E70000000014400000F03F1C
:1073A000300000000000F0430000E03F2DE9FF4FF7
:1073B00095B09B468946064600250FE2252877D1E1
:1073C00000242746F84A0121059400E0044316F8FA
:1073D000013F203B01FA03F01042F7D130782A2810
:1073E00011D06FF02F033078A0F13002092A16D89F
:1073F000059A44F0020402EB820203EB42021044BD
:10740000761C0590EFE759F8042B0592002A03DA61
:10741000504244F40054059044F00204761C307845
:107420002E2816D116F8010F44F004042A280DD096
:107430006FF02F023078A0F13003092B09D807EB49
:10744000870302EB4303C718761CF3E759F8047B64
:10745000761C30786C280FD006DC4C2817D06828B2
:107460000DD06A2814D104E0742810D07A280FD1E6
:107470000DE044F400140AE044F4801401E044F404
:1074800040147278824202D104F58014761C761C76
:10749000307866280BD013DC582877D009DC002818
:1074A00075D04528F6D04628F4D047281AD19DE15A
:1074B00018E0632835D0642879D0652812D195E189
:1074C000702873D008DC6728F1D069286FD06E2847
:1074D0000DD06F2806D1B5E073282CD0752875D053
:1074E000782874D05A46179990476D1C75E1C4F3FB
:1074F0000250022809D003280DD0D9F80010042822
:107500000DD00D6009F1040967E1D9F80010EA1700
:10751000C1E90052F6E7D9F800100D80F2E70D70CE
:10752000F0E719F8041B8DF8001000208DF8010019
:10753000EA46012003E059F804AB4FF0FF30610741
:107540004FF0000102D40DE008F101018846B94274
:107550000FDA8045F8DB1AF808100029F4D108E0AA
:1075600008F1010188468142FADB1AF80810002967
:10757000F6D105985B46A0EB080721463846179AD6
:1075800000F094FA284400EB080507E04DE029E1FB
:107590000DE01AF8010B5A4617999047B8F1010807
:1075A000F7D25B4621463846179A13E142E00A2299
:1075B0000092C4F302524FF0000A022A08D059F890
:1075C00004CB032A4FEAEC710AD00DE029E02AE04F
:1075D00009F1070121F00702F2E802C1914609E032
:1075E0000FFA8CFC4FEAEC71042A03D14FFA8CFCA1
:1075F0004FEAEC71002907DA0A460021DCF1000CA1
:1076000061EB02012D2202E0220504D52B228DF828
:107610000420012203E0E20701D02022F7E7904690
:1076200059E00A2102E010220DE010214FF0000A7B
:1076300000910BE010224FF0000A44F004040827E8
:10764000009203E008224FF0000A0092C4F30252B5
:10765000022A05D059F804CB0021032A08D009E0FA
:1076600009F1070121F00702F2E802C1914605E0A5
:107670001FFA8CFC042A01D10CF0FF0C4FF000081B
:10768000220728D5702806D0009B83F0100353EA08
:107690000A0305D00EE040228DF80420012208E004
:1076A0005CEA010206D030228DF804208DF8050036
:1076B00002229046009B83F0080353EA0A030AD192
:1076C0005CEA010201D1620705D530228DF8042061
:1076D0004FF001087F1E582804D034A003900EA854
:1076E00002900DE036A0F9E753466046009AFEF797
:1076F00079FE84460398825C0298401E02900270D4
:107700005CEA0100F0D1029806A9081A00F1200AEB
:10771000600702D524F4803400E00127574502DDDC
:10772000A7EB0A0000E0002000EB0A01009005989A
:107730004144401A0590E00306D45B462146179A5F
:10774000059800F0B3F90544002706E001A85A4661
:10775000C05D179990476D1C7F1C4745F6DBE00321
:107760000CD55B462146179A059800F09FF9054411
:1077700004E030205A46179990476D1C0099481E26
:1077800000900029F5DC08E0029802995A4600783A
:10779000491C0291179990476D1CBAF10001AAF19A
:1077A000010AF1DC65E100000928010030313233C3
:1077B000343536373839616263646566000000002D
:1077C0003031323334353637383941424344454617
:1077D0000000000000F058F90544761C30780028BD
:1077E0007FF4ECAD19B02846BDE8F08F620700D4F5
:1077F000062709F1070222F0070CFCE80223E14604
:1078000003F000485FEA080C02D00FF2702C0DE084
:107810005FEA045C02D50FF2682C07E05FEAC47CE3
:1078200002D00FF2602C01E0AFF2700C4FF0FF3885
:1078300023F00043CDF850C065280CD006DC452865
:1078400009D046281DD047283DD13DE0662818D0F4
:1078500067287ED138E00021112F01DB112000E0E4
:10786000781CCDE9000106A90EA8FFF7DDFCDDE9D3
:107870000F010E9A03910021009207F1010A049171
:107880004DE04FF000400097CDE9011006A90EA889
:10789000FFF7CAFCDDE90F0203920E9B119900224B
:1078A000DDF80CA00093049211B9791C00EB010AD9
:1078B000B7EB0A0004D4C0F1FF3007F1010A0490CD
:1078C000AAEB0700019044E0012F00DA0127002114
:1078D000112F01DD112000E03846CDE9000106A995
:1078E0000EA8FFF7A1FCDDE90F010E9A039100211C
:1078F00004910092BA4621070CD40399514500DA4D
:107900008A46BAF1010F05DD009AAAF10101515C26
:10791000302908D0B84202DA10F1040F06DA01214A
:10792000CDE9011015E0AAF10101E9E7002805DC25
:10793000049901440491AAEB000102E0411C514565
:1079400000DD8A460499401A401C01904FF0004027
:107950000290200704D40198504501DBCDF8048043
:1079600000208DF84F0002980DF14F07B0F1004F45
:1079700025D02B200E9002984FF0020800280CDA38
:10798000404202902D200E9007E00A210298FEF757
:10799000B4FD3031029007F8011DB8F10001A8F1E3
:1079A0000108F2DC02980028EFD1791E0E980870C9
:1079B000307800F0200040F0450007F8020D12A8D2
:1079C000C01B00F107081498007800B1012000EBFB
:1079D0000A01019801EBE07105984144401A401EEC
:1079E0000590E00306D45B462146179A059800F0FF
:1079F0005DF805441498007818B15A4617999047D5
:107A00006D1CE00324D55B462146179A059800F0CB
:107A10004DF805441CE00498002807DBDDE903016C
:107A2000884203DD0098405C179901E017993020E7
:107A30005A469047049805F10105401C04900198AE
:107A4000401E019004D12E205A46179990476D1C74
:107A5000BAF10001AAF1010ADDDC05E017F8010B1B
:107A60005A46179990476D1CB8F10001A8F101081A
:107A7000F4DC5B462146179A0598ABE62D00000022
:107A80002B000000200000002DE9F04104460025F5
:107A90001E461746880404D405E039462020B04726
:107AA0006D1C641EF9D52846BDE8F0812DE9F04132
:107AB000044600251E469046C80301D5302700E045
:107AC0002027880404D505E041463846B0476D1CA0
:107AD000641EF9D52846BDE8F0814A68002A06D020
:107AE0000A68531C0B6010704868401E486070475D
:107AF00010B501220221002001F0B8F908B10728D1
:107B000010D107220221012001F0B0F908B10728A5
:107B100008D100210A22084601F0A8F908B1072877
:107B200000D1002010BD022001F0A2B870B50024E1
:107B3000064D06E06868012110F8340003F072FF7A
:107B4000641C28788442F5D3002070BD202B0020CF
:107B5000F8B515460C460646052A01D20720F8BDA1
:107B600004F058F818B904F01BF80028F7D11249AE
:107B700000224E600C708D60C1E90422C1E906222A
:107B80000E4D0DE006EBC4002968009181788DF858
:107B9000011000780A4A694603F090FF0028DED100
:107BA000641EE4B2EED2BDE8F84004480021054A64
:107BB000001D00F07BB80000202B0020E0DA02005E
:107BC0008D9702001D95020072B603F03DFB00BFC9
:107BD00003F07CF90028FBD1104C0121208801EB37
:107BE00000400FA103F082FA10480068C00700D0DF
:107BF00000BE2088022101EB00400DA103F076FABF
:107C0000BFF34F8F0948E43801680D4A01F4E06181
:107C100011430160BFF34F8F00BFFDE73C2C0020F4
:107C2000466174616C206572726F7200F0ED00E065
:107C300053797374656D207265736574000000007C
:107C40000400FA050EB500210091CDE901106A4645
:107C500044F20100FFF7B8FF0EBD10B58268C3689B
:107C6000934203D001F0FAFC002010BD052010BDA6
:107C700029B112B1531E134203D0092070470E20C0
:107C800070470160838000218160C16008467047B1
:107C900010B58268C3689A1A83889A4203D801F0A3
:107CA000E7FC002010BD042010BD0000084B9B78AD
:107CB00023B12AB120B10068037C1BB108207047B2
:107CC00007207047002303744174426118467047CF
:107CD0008433002070B504F033FD104800240B21DC
:107CE000047044700E4D817014206C602C706C70A8
:107CF000FFF723F807211420FFF740F81420FFF7BF
:107D000027F80848046007211120FFF737F80548D5
:107D1000001F0068A860002070BD000084330020B0
:107D2000402B0020081501402DE9FC47DFF8789032
:107D300099F8023073B368B3052902D20720BDE871
:107D4000FC87436933B3437C012B25D000270446CD
:107D50000025884616468DF80050684600F0CEF89B
:107D600001A805F0A9FDC8B1012101700F494460C7
:107D70000968C0E90218C0E904769DF8040089F892
:107D800001009DF8000000F0DDF81420FEF7EBFF85
:107D90002846D4E70820D2E70F46D8E704259DF807
:107DA000000000F0CFF8F3E7843300200415014011
:107DB0000649897839B130B1416921B10021017496
:107DC000022104F073BF08207047000084330020B4
:107DD00070B50A4E01460A48B578FFF73EFF0446E3
:107DE0004DB10020B070711C0122C81D02F080FC52
:107DF00008B1FFF727FF204670BD0000542B00207C
:107E000090340020F0B5244E89B01F460D00044682
:107E100072603FD0A888296882B22048FFF728FF07
:107E2000002835D1A889A96882B21C481030FFF714
:107E30001FFF00282CD1202219496846FEF716FBA7
:107E400060690690207C00B101208DF814008DF847
:107E50001C70607C00B10E208DF81500E068029067
:107E6000A068039020680190606800900A480D4A5D
:107E70006946083002F008FC002809D1B07020687B
:107E8000401C05D004490122491CC81D02F030FCE9
:107E900009B0F0BD0720FBE7542B002090340020F0
:107EA000F8DA020039D4020010B501461048FFF795
:107EB000EFFE040019D10F480F4A0178515C19B147
:107EC000001D04F0EFF902E00C3004F0D3F860B9C3
:107ED000084907480839FFF7C0FE30B905490122B3
:107EE0000839044802F014FC0446204610BD000086
:107EF000A03400205C2B0020EC2A002030B5EFF3EA
:107F0000108172B60D4A9468012324B103700029D0
:107F100000D162B630BD93604FF0E023D3F88051BA
:107F2000074C25401560C3F88041D3F88441546064
:107F30005A17C3F8842100220270E8E7B034002009
:107F4000FC06FFBD0B498A68002A11D000280FD11A
:107F5000EFF3108072B60B684FF0E022C2F80031E8
:107F60004B68C2F8043100228A60002800D162B652
:107F700070470000B034002070B5054608680C4614
:107F8000411C04D002F087FE206802F0FDFD60680D
:107F9000411C02D0002102F0E5FD2968A069C1F86A
:107FA0002405607D227D29681043C1F86C05D4E961
:107FB00000122868C0F81425C0F80C15207D01288F
:107FC00014D1A068411C02D0002102F0CBFDE06872
:107FD000411C04D002F05FFEE06802F0D5FDD4E958
:107FE00002122868C0F80825C0F8101570BD70B5D9
:107FF000054608680C46411C04D002F056FE206875
:1080000002F0CCFD6068411C02D0002102F0B3FDFB
:108010002968A069C1F82405607D217D2A6808438C
:10802000C2F86C05D4E900122868C0F80C15C0F835
:108030001425207D012814D1A068411C02D0002104
:1080400002F099FDE068411C04D002F02EFEE068C9
:1080500002F0A4FDD4E902122868C0F80825C0F88F
:10806000101570BD70B51500044609D000202860B9
:1080700034B1206820B1A079800703D0072070BDFB
:108080000E2070BD084600F02FFBC0B2142804D0AB
:108090002179814203D8042070BD052070BDE2889B
:1080A000216800FB02102860002070BD2DE9FC470C
:1080B000002517880646158090F82D00144689463D
:1080C00030B13A462146484600F022FB051E09D150
:1080D000B0784FF00C0A18B32088C846001DB8428B
:1080E00002D95046BDE8FC87684679DF0028F9D1FF
:1080F0002088032108F8001020881921401C80B234
:10810000208008F800102088401C80B2208000EBFE
:108110000801BDF8000005F01DFB218808442080FF
:10812000F0780222C8B1218896F9033001F1030CDE
:108130004846BC45D5D8425421884FF0010C491C13
:1081400089B2218000F801C02188491C89B22180B0
:1081500009F801302088401C20807068B8B121885F
:1081600090F9003001F1030C4846BC45B9D842549F
:1081700021880A22491C89B2218042542188491C45
:1081800089B2218009F801302088401C2080308984
:1081900050B1CDE900474B460622022106F1080006
:1081A00005F0A2FB051E9DD1308A50B1CDE90047F4
:1081B0004B460722032106F1100005F095FB051E32
:1081C00090D1308B50B1CDE900474B461522142198
:1081D00006F1180005F088FB051E83D1306A30B126
:1081E0003B462246494601F0D0F8051EDBD1706AB5
:1081F00030B13B462246494601F0FAFE051ED2D177
:1082000096F82C0038B13B4622464946304604F0E9
:10821000CDFB051EC7D1307838B13B4622464946D2
:10822000304601F06BFF051EBDD128465AE718B550
:1082300004460020ADF8000013466A46204600F0D0
:1082400006F8002802D0BDF80000204418BD70B523
:1082500088B182B10024158803E0065D641C3444B3
:10826000A4B2A54203D8061976789E4201D08C426A
:10827000F3D38C4201D3002070BDA11C1180005D9E
:10828000401E80B270BD80F8301070472DE9F0417B
:108290000E00044606D02CB196F87A00002501287D
:1082A00003D006E00E20BDE8F08196F89800012882
:1082B00021D04FF00108A5702C2206F17801201D75
:1082C000FEF7D4F884F83050D6F8A4006063D6F8EE
:1082D000A800A0634FF6FF70A4F8A80004F1940072
:1082E000C4F8A400C4F8AA50A4F8AE5084F8B05062
:1082F000207810B104E00720D5E7FF2084F854006F
:1083000004F155011F27C4F89410A4F8987004F1E3
:1083100098023046FFF7CAFE0028C4D116F13C0F80
:108320000ED004F17401C4F89C10A4F8A07004F1FC
:10833000A00206F13C00FFF7B9FE0028B3D103E02C
:10834000C4F89C50A4F8A05084F85180208BA4F865
:10835000480084F83C80256484F85050606960646B
:10836000464604F13C02002104F1540072DF00286B
:1083700099D1267097E710B50288102A1BD0112AD0
:1083800020D0262A1DD1007A0C46012801D00228CF
:1083900017D1A0780521401CB0FBF1F201FB1201BE
:1083A000204600F052F800280BD0A16B002908D01D
:1083B000BDE810400847C27B012A02D18088A1F89D
:1083C000A80010BD0C46002184F8B2108088B4F8D3
:1083D000A8108842F5D120790028F2D10121DFE7E9
:1083E00010B50C46022801D0032810D1607800286F
:1083F0000DD000206070A178204600F026F80028FB
:1084000005D0A16B002902D0BDE81040084710BD7F
:1084100010B5044690F8540074DF012084F8B200CF
:10842000002084F8B40084F850000621204601F0B2
:1084300028F9002808D1A178204600F006F810B1EC
:10844000A16B01B18847002010BD2DE9F05F044603
:1084500000780F4638B1A770002002F06FFA0126AD
:1084600020B1667007E10820BDE8F09F0025C4F840
:10847000AA50A4F8AE5084F8B050A07910B1A078FA
:10848000012806D0E07968B1A078012801D002283F
:1084900008D1616B21B184F8B1600820884701E000
:1084A00084F8B15004F1AB0100200A5C0AB13046F7
:1084B00003E0401C0628F8D300204FF002084FF0DC
:1084C000030B012F06D0022F0CD0032F0FD0042F47
:1084D00015D110E0A17929B194F8241011B908B18F
:1084E00030460DE0E17911B108B1404608E0207A4C
:1084F00008B1584604E0607A08B1042000E028463C
:10850000A070616B41B1032801D0042804D16079C7
:1085100010B194F8B200A0B184F8B35004F13C005B
:1085200018210746FDF7BBFF04F12C0084F83C60DE
:10853000814604F011F858B194F82C0084F85100E9
:1085400008E084F8B45084F8B36007208847E5E772
:1085500084F8516094F8240050B1484603F0FCFFC1
:1085600020B194F8280084F8520001E084F85260A9
:1085700084F85050A27804F1AA0104F194094FF054
:10858000060A052A60D2DFE802F078030F223F00D6
:1085900084F83160C4F8A450C4E9101584F83C8014
:1085A0008020A4F8480051E084F8318094F8242019
:1085B000384612B10722027001E080F800B0228A2A
:1085C0008281C4F8A4504160E168B9603EE060690E
:1085D000B860208BB88194F824003D4610B184F82F
:1085E0003CA001E084F83C60204605F047F940B12A
:1085F00085F814800421204601F043F820BB0521B2
:108600001EE084F831B01DE0E069B860208CB881CC
:1086100094F824003D4610B184F83CA001E084F8B1
:108620003C60204605F02AF948B185F81480042101
:10863000204601F026F838B984F831A002E0042180
:1086400084F83110C4F8A490A07878B13A4604F1C7
:108650005400D4F8A41072DF00287FF405AF94F81A
:10866000301094F8540073DF0028F6D1616B11B11B
:1086700094F8310088470020F6E684F83150F5E799
:1086800070B5040012D001461C221448FDF7EEFE1E
:108690001248134D0560206850B17ADF002806D1DA
:1086A0002068016829604068686005E00E2070BDA0
:1086B0000B487BDF0028FAD108484FF6FF711438C9
:1086C000084A20F8041B0549343901600021FFF7EE
:1086D000EDFA0028EBD0032070BD0000D03100205F
:1086E000E42A002015D8020010B5044600F006F870
:1086F00008B1204610BD142010BD0000142801D37D
:10870000002070470146014801F067BDF0310020AC
:108710007CB5054608880C460930904201D90C20EA
:108720007CBD68466DDF0028FAD121880820685496
:1087300020881B21401C80B2208029542088401CA6
:1087400080B220802844DDF801100160BDF80510DA
:1087500081802088801D80B220809DF8001049080B
:1087600000D0012129542088401C208000207CBD9D
:10877000F8B5294D028804466E88212A37D011DCCD
:1087800026484FF00301102A008801EB004013D067
:10879000112A25D0132A29D100231A4685213046D3
:1087A0007FDF17E03B2A32D0522A2AD0562A1DD129
:1087B0008088132176DF0DE019A102F097FC0720D5
:1087C00000F076FB08B1FFF73DFAA18869801748F1
:1087D00001F066FE002809D0BDE8F840FFF732BA84
:1087E00013A102F083FC4FF6FF706880F8BD0020F3
:1087F0000090A08869468FDF0028F7D0FFF722FAA3
:10880000F8BD00231A4619463046B1DFE2E78088FA
:10881000132176DFDEE70000A02A00203C2C002098
:10882000436F6E6E65637465640000006C300020F9
:10883000446973636F6E6E65637465640000000065
:1088400010B51A4C0188606810290ED011292BD15F
:10885000401E606028D1FFF74BF9002824D0216822
:10886000002921D0BDE810400847D0B900210122DD
:10887000084600F0FBFA08B107280FD107220221B1
:10888000012000F0F3FA08B1072807D104220221E1
:10889000002000F0EBFA20B1072802D0216801B1D6
:1088A00088476068401C606010BD0000DC2A002022
:1088B0002DE9F04701883B4E40F2F3194FF6FF7562
:1088C00010291BD011293ED0122954D0502946D14D
:1088D000C188F289841D914241D1618902293ED12A
:1088E0008688304600F0D4FF050038D004F10C0033
:1088F00000F076F9A8B3294630464EE0C17B878860
:10890000044601292BD1A846284600F0C1FF0500E6
:1089100017D02F8000202872234843464A4601681A
:10892000C5F80A104068C5F80E0004F1100105F101
:108930000A0001F071F86872F08900280FD1294609
:108940002AE0042013E0808800F0A2FF040006D093
:108950006068FFF72DFA08B103F0F8FF2580BDE845
:10896000F087FFE76868FFF723FA0028F7D0BDE833
:10897000F04703F0EBBF87880646384600F088FFD3
:108980000400ECD02B464A4606F1080104F10A0027
:1089900001F042F8607221463846BDE8F04700F029
:1089A0003BBD0000D0310020E42A00202DE9F04F2B
:1089B0000746858802883D48012197B08346102AE2
:1089C00009D0112A49D01A2A6CD1387AB1EB101F7C
:1089D00045D2012244E0354C083CA068C0430B90CE
:1089E00061680BA801F01AFC0B990CA800F0AEFC12
:1089F0002C220CA96846FDF739FD0026E946A04661
:108A000010E000BF09EB46005FF00004B0F804A0DE
:108A100008EB84005146001D01F0D4FB641C1D2CA2
:108A2000F6D3761C0098B042ECD8142D05D317B0BD
:108A30000420BDE8F04FFFF705B92946584601F07C
:108A4000D7FB294608F1040001F0D2FBF87B01288E
:108A500028D016482946001D15E029461AE00022B4
:108A60000221B1EB101F01D2012600E000260F49C0
:108A7000083901F11000041D294682B101F0B8FB4C
:108A800036B12946204617B0BDE8F04F01F0B0BB23
:108A90002946204617B0BDE8F04F01F093BB01F026
:108AA00091FBF5E717B0BDE8F08F0000F43100202E
:108AB000F0B585B016460F4604001D4614D004AA32
:108AC00019466069FFF7CEFA00280BD1A5F57F4063
:108AD000FF380BD0049848B1007848B13088F428AA
:108AE00008D9072005B0F0BD0E20FBE70520F9E707
:108AF0000820F7E700200090019002900390A088E2
:108B0000ADF8000001208DF80200CDE9026769464A
:108B10002846AEDFE6E7000030B5144B0D460400F2
:108B20000FCB85B08DE80F001ED0EDB12868A06195
:108B30002146684662DF002814D120788DF81200A3
:108B40000120ADF81000A21C04A9A8DF002809D15B
:108B50002946204603F02BFE002803D12946204653
:108B600004F0B8FB05B030BD0E20FBE79CDA020034
:108B700070B588B00446002924D0002C22D00846C5
:108B80002188102920D0502924D057291AD10546F0
:108B9000A188406906AAFFF765FA002812D1069E4F
:108BA000307800280ED018216846FDF778FC0120A7
:108BB0008DF800000195A088ADF808000396A9691A
:108BC0006846884708B070BD08B02146BDE87040CF
:108BD00003F0A8BB08B02146BDE8704003F07ABCA2
:108BE000007800F0010070470149085C7047000000
:108BF00054DA0200084908B5085C0090684601F0A4
:108C0000F9FFD0F810050099C84010F0010000D01D
:108C1000012080F0010008BD54DA02002DE9FC417A
:108C20000646C0074FF000050ED0104F0024012269
:108C3000385D009500231146019501F015FF641C75
:108C4000042CF4D300F04EF8B0070DD5074E0024E5
:108C5000361D0022305D032300951146019501F079
:108C600003FF641C042CF4D3BDE8FC8150DA02003D
:108C7000094908B5085C0090684601F0BBFFD0F8D0
:108C80000425009B0121994021EA0203C0F8083520
:108C90001140C0F80C1508BD50DA02000249085C0A
:108CA000012102F016B8000050DA02000249085C07
:108CB000002102F00EB8000050DA0200084908B5A1
:108CC000085C0090684601F095FFD0F80405009913
:108CD000C84010F0010000D0012080F0010008BD64
:108CE00050DA020010B500242046FFF7D7FF641CBD
:108CF000042CF9D310BD10B500242046FFF7D6FF91
:108D0000641C042CF9D310BD10B50246064B4FF07D
:108D1000FF3000215C5C944201D1084610BD491C23
:108D20000429F7D310BD000054DA020070B50C4ED0
:108D30000C004FF0000530600BD0012000F06AF805
:108D400008B1022004E0002000F064F800B10B201C
:108D50002070706810B9FEF7CBFE0546284670BD3E
:108D6000DC2A002010B5002000F0D4F908B1062854
:108D700006D1012000F0CEF908B1062800D100206C
:108D800010BD00002DE9F0470D468146FFF7BCFFFE
:108D90000446042836D2DFF874801B481C4EA8F124
:108DA0000C0725B3012D0ED0022D2BD104EB44006E
:108DB00030444578002D25D0B968002922D02846B6
:108DC000BDE8F047084704EB4401755C0E44717838
:108DD00049B10E4A4FF40041093A8068FEF7A4FFFA
:108DE00008B987F80390B17808F80410E2E78068C2
:108DF000FEF7DEFF04EB4401314418F804008D78DF
:108E0000A842D7D0BDE8F08758DA0200D82A00205F
:108E100070310020042801D2FFF7ECBE002070471B
:108E20000146104810B54088042907D007290ED004
:108E30000A2915D1BDE8104003F0FCBD132176DFEF
:108E40000CE000280CD0BDE81040FEF7FBBEA0F5FA
:108E50007F41FF3904D10448FFF7DAFA0828F0D13E
:108E600010BD0000A02A00207830002070B500233B
:108E7000042810D20D4D00EB4004012A02D1012933
:108E80000CD00022094E00EB4000304461B10129B2
:108E900006D0022906D00723184670BD0E30C2B294
:108EA0002A55F9E74270F7E78270F5E77031002044
:108EB000044A014600201279D20702D0084600F089
:108EC0004DB87047CC2A002070B506461E480024D5
:108ED000C0E90161B00720D50025012211462846CE
:108EE000FFF7C4FF6D1C0446042D02D2002CF4D001
:108EF00013E094B940F2666204211448FEF728FE9C
:108F000004000AD1FEF712FE040006D10F48104AF1
:108F10000021001FFEF7CAFE0446F00712D0012010
:108F2000FFF77CFE74B909480A4A00210C38FEF7A5
:108F3000BDFE040006D10548074A01210838FEF7A6
:108F4000B5FE0446204670BDCC2A002064DA02003B
:108F5000E19102008D9A0200277B02002DE9F05F6B
:108F60006A4C054600266078B34618B184F801B013
:108F700000F074FD664F4FF47A694FF4C87A4FF0F1
:108F80000108182D62D2DFE805F0AC0C0C31404D21
:108F900062676B746B74BE7D7D7D7D7DACAFB2B559
:108FA000BEBE0020FFF78AFE00284FF0000008D068
:108FB000FFF774FE022D02D14FF4E16008E048464D
:108FC00006E0FFF773FE022D01D1C82000E05046F5
:108FD000410CC0034FF4FA72801841F10001257072
:108FE00052000023FDF7FEF901462AE00020FFF7BA
:108FF00065FE00284FF0000004D0FFF74FFE4FF44D
:109000004870E5E7FFF752FEDFE70020FFF756FE66
:1090100000284FF0000002D0FFF740FECFE7FFF737
:1090200045FED4E70020FFF749FE00284FF000007E
:1090300002D0FFF733FE01E0FFF738FE257041F65E
:109040009A1100223868FEF76FFE064646E00020BF
:10905000FFF70EFE257008E0002051E025703DE08E
:1090600084F801800120FFF703FE002240F6CD4185
:10907000E8E784F801800120FFF7FAFD00224FF4B1
:109080008041DFE77868FEF793FE0646D5F11100D0
:1090900000D02EB10220FFF701FE84F802B01DE0DF
:1090A000012816D980B2C8214843C117C90341EA33
:1090B0005041C0034FF4FA72801841F10001520090
:1090C0000023FDF78FF9014600227868FEF72CFE99
:1090D00006460220FFF7EAFD84F802803046BDE82C
:1090E000F09F00F0BBFCB9E700F0B8FCB4E700F07B
:1090F000B5FC04E000F0B2FC0020FFF7D7FD012032
:10910000FFF7D4FDAAE7FFF7F6FDA7E7CC2A00207A
:1091100058DA0200012104F04FBC00002DE9F843A9
:109120000546861C00208DF8000090460F464FF043
:1091300001096846FEF7E2FE1B4C20683860D4E95E
:109140000001401AA16804F21C47081A0EE0012130
:10915000384601F05DF800F02BFD0146384601F07D
:1091600057F8D4E90001401AA168081A401C864249
:10917000EDD8B8F1000F03D0052065F3891002E0A7
:10918000062065F39F50A2682168114004EB81011D
:10919000C8602068304420609DF80000FEF7D2FED1
:1091A0004846BDE8F88300006836002030B4826885
:1091B0000468531C8360A154D0E901128A4202D38F
:1091C00030BC01F0C2BA30BC70470000034803C88D
:1091D000814201D10120704700207047683600208D
:1091E00000780221FFF7CEBD05494FF0FF32082875
:1091F00041F8202002D3084480F85820704700002E
:1092000078320020F0B54FF0FF3512B10023082668
:1092100001E008230C260C4C05E000BF54F8237035
:109220007F1C04D05B1CB342F8D32846F0BD26183F
:109230005DB286F8305044F82310002AF5D1E118C9
:1092400081F85800F1E70000783200200249084414
:1092500090F93000704700007832002070B5084C5B
:10926000050009D010342168002907D00868206063
:10927000496828468847F6E70834F4E770BD0000DF
:1092800064320020054A012120B1012805D19170E6
:10929000FFF7E4BF51700020FAE770476432002006
:1092A0002DE9F05F26484168F1B3DFF898B00E6809
:1092B0008146DBF8004087688078E11B21F07F451C
:1092C000ED1CB0B9DFF880804FF48030C8F844035B
:1092D000C8F804031120FDF730FD1120FDF738FD1B
:1092E0004FF0010AC8F800A02F2002F093FB89F884
:1092F00002A0B54200D23546124BE8193C3320F0AB
:109300007F401860DBF800105A46091B21F07F41AE
:10931000001B20F07F40C91C81420FD910681860E3
:109320002F2002F077FB00E004E0BDE8F05F1120A1
:10933000FDF719BDBDE8F05F03F002BABDE8F09F8C
:10934000402B0020041501400010014073B58CB083
:109350000646002000900D9880B100246D462146FD
:109360000DA800F03AFF30B1009805EB4000848072
:109370000098401C0090641C142CF0D32C226946E9
:109380003046FDF773F80EB070BD2DE9F041178837
:109390000646B81D14460D46984202D90C20BDE879
:1093A000F0813188072206290AD34FF4486C4FF622
:1093B000FF73614501D9994202D17088062801D214
:1093C0001046ECE7604501D99842F9D1994203D0A3
:1093D000984201D08142F3D80520E8552088122117
:1093E000401C80B2208029542088401C80B22080FC
:1093F0004119308804F0AEF92188084480B22080F9
:109400004119708804F0A6F92188084420800020C2
:10941000C5E7FEF717BC000038B54A7A0F4B62B1BA
:1094200000220A725969002906D001228DF8002015
:10943000ADF802006846884738BD0A7A62B19B6879
:109440004C68024619462046FEF76EFC0028F3D011
:10945000BDE8384003F07ABA5B68F1E7D03100200C
:10946000F0B587B0074600200490ADF810100590C5
:10947000ADF812100190029001AA04A9384690DFBD
:10948000060022D002F058FA114C0346012520882C
:109490003A4605EB00400F4901F033FEBDF80420C9
:1094A00012B9BDF8060038B12088BDF8063005EBCA
:1094B000004009A101F025FEBDF808202AB120884E
:1094C000154905EB004001F015FE07B03046F0BD30
:1094D000082C0020E4DD0200546865207265717577
:1094E00065737465642054582F5258207061636B03
:1094F0006574206C656E67746820697320746F6F83
:10950000206C6F6E672062792025752F2575206F7E
:1095100063746574732E000030DE02002DE9F0479D
:109520000025DFF88C803CE06068002100EBC50678
:10953000012032789146FCF786FFD4E9062300EA41
:10954000020701EA030C57EA0C0728D082438B4339
:109550004846C4E9062302F01BFB32788246914656
:1095600001200021FCF76FFFD4E9042300EA020484
:1095700001EA03074A4650460021FCF764FF4440D5
:109580004F403C430BD17078012801D0012100E00D
:109590000021726881EA0A010AB1484690476D1CB1
:1095A000EDB298F8000044468542BDD3BDE8F0878F
:1095B000202B002010B50021024800F03AFE80F375
:1095C000100010BD843A00200E4910B50A784C787E
:1095D0000023A24212D0521CD2B20A70022A00D139
:1095E0000B70084A0B780C3252F82320026088680E
:1095F000104420F07F408860012010BD03600020EF
:1096000010BD0000402B002030B50446006887B034
:109610000D46806800281FD018216846FCF73FFFE0
:109620000195A0680590207910B1012810D107E0BC
:1096300001208DF8000020690290E068039005E0A9
:1096400002208DF80000E068000302906069049039
:10965000206881686846884707B030BD8268838883
:109660001A4003689A5C0A708168491C81607047DF
:10967000C26883881A4003689954C168491CC16054
:10968000704770B50D460446B0F89810D0F89400B5
:109690000122FEF7CCFD00B1057004F13C0204F19B
:1096A000940104F1540072DF70BD10B50446C0B2DD
:1096B000FEF7FAFB204610BD10B5002821D0114B53
:1096C0000022001F196803E0814203D80A46496856
:1096D0000029F9D152B11368841A9C4204D1006860
:1096E00018441060104602E0506000E0186039B184
:1096F00002680B1A934203D10B681A44026049684E
:10970000416010BD002C00200B484A8843889A42D3
:1097100011D10A88A2F52063773B0CD18988C91E34
:109720008AB28280054803211346008801EB00407D
:1097300003A101F0E6BC7047A02A00203C2C0020C9
:1097400044617461206C656E2069732073657420B8
:10975000746F2030782558282564290010B50949F0
:10976000094800F0E7FD08B1FEF76CFAF72106485A
:1097700000F0D4FD002803D0BDE81040FEF762BA27
:1097800010BD000009970200583000202DE9F0417B
:109790008046024601200021FCF755FE1A4F05467F
:1097A0000E467868FEF704FB00280CD1174CD4E96C
:1097B000062110462A4001EA06031A4305D0A843B1
:1097C000B143C4E90601BDE8F081404602F0E0F98A
:1097D00030B1D4E9040128433143C4E9040105E070
:1097E000D4E90410A943B043C4E90410D4E9060144
:1097F00028433143C4E90601A1687868BDE8F04117
:109800000022FEF791BA0000E0DA0200202B0020CF
:109810007FB582B001211D46440816460B460091D3
:1098200003AA2146064800F027FF05482146001DEF
:1098300032462B4602F09EFA06B0012070BD0000B1
:1098400018DA02002DE9F84380461C4616460F46FA
:10985000581C00F097FB05460770002004E0315CBF
:109860002A18401C5170C0B2A042F8D30020641CDA
:109870000090E3B24FEA58012A46044800F0FCFE8B
:109880002846FFF719FF0120BDE8F88318DA020027
:109890000146034802888A4200D000207047000039
:1098A000BC3100202DE9FC5F0E008346DDE90C474A
:1098B000C6F1000098469246814600D4084601252C
:1098C00003E000BF90FBFAF06D1C5045FADAA845A2
:1098D00000D9454624B1002E01DB780700D5641E6F
:1098E000B80702D5B8F1000F0AD0F80708D13CB18B
:1098F000A54205D220215846641EFFF757FCF6E723
:10990000002E02DA4E462D2102E0780703D52B21E6
:109910005846FFF74BFC07F0030002280BD1B8F1C3
:10992000000F08D13CB1A54205D230215846641E33
:10993000FFF73CFCF6E7CDE9004743465246314687
:10994000584603F00DFFBDE8FC9F000070B50D46C2
:10995000044600684FF4887102F019F84FF49071D2
:10996000206802F014F84FF49271206802F00FF8AA
:109970004FF4A271206802F00AF820681249C0F87A
:10998000041320686907000B40B2090E002806DAAC
:1099900000F00F0000F1E02080F8141D03E000F15A
:1099A000E02080F8001420680121000B40B200F094
:1099B0001F0291404009800000F1E020C0F88012B1
:1099C000C0F8001170BD0000100302000246002024
:1099D0001268930702D0530702D47047500714D57A
:1099E00002F00300012802D002280CD105E0C2F3E6
:1099F00083100B68801C184404E00223086803EB02
:109A000092521044086001207047086800EB92539E
:109A1000C2F38910401CEEE7F0B58488A518944283
:109A200000D82246A41AC288D6189A4200D81346F3
:109A3000D21A4B880788BB420CD34088834209D88E
:109A40008888A04206D3A84204D8C888904201D38F
:109A5000B04201D90020F0BD0120F0BD0A4810B588
:109A6000807860B1002401E0022C06D02046FFF788
:109A700015F9641C042CF7D310BD0324F6E7BDE8E8
:109A80001040FFF72FB90000CC2A002003480179CD
:109A9000C90702D00078FFF761BA7047CC2A0020CE
:109AA000F721018017214180002101714171FB21C3
:109AB00081711B21C17170472DE9F047394E002794
:109AC00080463D46DFF8E090D6F804A057E003D08A
:109AD0000446D0F81C8035E099F8002002EB4201E2
:109AE000521CD2B289F8002009EBC10199F802306A
:109AF000091D9A4201D189F8005048680A78044645
:109B0000012A12D0022A02D0032A3BD108E003F036
:109B10009DF800B10127257434E00574C06900E0A8
:109B200070680028F9D170602CE0207C50BB8868F8
:109B30006060C868A0600869E0604869A061F0786A
:109B400000B165606268B168184B501A20F07F4020
:109B5000984202D2A168084406E0881AA16820F061
:109B60007F40814202D9081A206000E025606560CC
:109B70000120A56020742046E56103F049F8B8F1A2
:109B80000000A4D199F8001099F801008142A3D1F6
:109B900017B97168514502D00120BDE8F087002057
:109BA000FBE70000402B002084330020FFFF7F00F4
:109BB0002DE9FF410026234800F027FB2148001F24
:109BC000074600F022FB204C60680090A56800E08A
:109BD00000986946284004EB80000C30FFF7F6FE41
:109BE0000028F5D101AA009901EA050304EB8303DB
:109BF000491CDB6842F82030401C00910228F2D357
:109C0000019800F0030001280BD0022810D1019820
:109C1000032101EB90500099BDF80A6001EB900020
:109C200005E00198BDF80A60C0F383100844009075
:109C3000384600F0E7FA08B10098606004B030469A
:109C4000BDE8F081803A002068360020ACB01822D0
:109C5000A1496846FCF70AFCA0484FF48075CDE99D
:109C6000060500F58070CDE9080507239C4A06A982
:109C70006846FEF7C7F808B1FDF7E4FF4FF400416E
:109C8000002001F09DFA08B1FDF7DCFF01F010F9AA
:109C9000FEF720F808B1FDF7D5FF92490320FFF742
:109CA00013F908B1FDF7CEFF69460020FFF73EF833
:109CB00008B1FDF7C7FF01F0A1FB08B1FDF7C2FF36
:109CC00001F078FD08B1FDF7BDFF002469460120D1
:109CD000009401F0D5FB08B1FDF7B4FF684601F030
:109CE00079FC08B1FDF7AEFF9DF808007EA120F0D9
:109CF0000F00401C20F0F00010308DF808000B22FF
:109D000002A87CDF08B1FDF79DFF00941020ADF89C
:109D100000003C200194ADF80200ADF804404FF47F
:109D2000C870ADF8060068467ADF08B1FDF78AFF13
:109D3000FFF714FD6F48019001A96F4800F0BBFBCD
:109D400008B1FDF77FFF6D48009069466C48FEF74B
:109D5000E3FE08B1FDF776FFAC216846FCF79FFBF8
:109D600002208DF800008DF8024005208DF80300D8
:109D70000120ADF84C0062498DF87C004020091F9D
:109D80002290149144F2506023905E4829905A48E2
:109D900069460C30FEF77AFA08B1FDF753FF5648D2
:109DA00001210C30FEF76FFA1C216846FCF777FBA7
:109DB0004FF42030CDE900404FF47020029052481B
:109DC0000590032651488DF80C600690ADF80E40C2
:109DD0008DF810406846FEF753FC08B1FDF732FFDE
:109DE00003F034F8322000F0E3FBFCF753FF48A007
:109DF000FDF7D0F94B484CA1008806EB004001F07C
:109E000075F93D4803210C30FEF71FFB08B1FDF743
:109E100019FF3B48AA460C3880464470C4804FF472
:109E2000FA7B51464B48FCF73AFB98F801000128B1
:109E300039D0DFF82491D9F80800FCF74BFB044631
:109E40000D46D9F80400FCF745FB06460F46D9F845
:109E50000000FCF73FFB8DE8C30040A214213D4801
:109E6000CDE90445FDF7A6F93A48FCF723FB244A5F
:109E7000A8F80600921FB8F802303649901DFEF788
:109E800017FE584600F094FB3348FCF79BFE322047
:109E900000F08EFB30480C30FCF7C8FE01F016F8DD
:109EA00001F0C0FABDE7DFF8B09009F10C09D9F86C
:109EB0000800FCF70FFB04460D46D9F80400FCF738
:109EC00009FB06460F46D9F80000FCF703FB0A46DB
:109ED0008DE8C50026A2C1E728DA0200582D00202F
:109EE000C9D30200218E02004E6F726469635F5510
:109EF0004152540069B402006C300020C1C202001B
:109F0000AC2A0020E5C2020009C30200139402003B
:109F10000D0A5541525420737461727465642E0D9C
:109F20000A0000003C2C00204465627567206C6FBD
:109F30006767696E6720666F722055415254206FC3
:109F40007665722052545420737461727465642E65
:109F500000000000582F00204C2C0020413A202502
:109F60002E31663B20252E31663B20252E316600A2
:109F7000473A20252E31663B20252E31663B202591
:109F80002E316600F0B50B30154D20F0070100248E
:109F9000144A0FE003688B420BD38B4205D95E1A3B
:109FA00043184768C3E9006700E04368136002C0D4
:109FB00004E0021D10680028ECD12046002802D1E0
:109FC000286808B10020F0BD064A07481060074A1B
:109FD000121A22F00702C0E9002401202860D7E706
:109FE000042C0020002C00201C3D0020185D0020C7
:109FF00070B5144682880E4605462088111D01441E
:10A00000921C994201D8FE2A01D90C2070BD521C25
:10A0100032542088FF21401C80B220803154208897
:10A02000401C80B220808119288803F093FB21888E
:10A03000084480B22080AA8842B1A96841B1304466
:10A04000FCF714FA2088A98808442080002070BDFD
:10A05000072070BD2DE9F047C7880446181D164635
:10A060008946B0FBF7F1B0FBF7F207FB12009A1933
:10A070003A44D21CB2FBF7F2DDF820A001E02468DC
:10A08000491E0029FBD13D1A8846B54216D818E072
:10A09000BAF1000F05D0211809EB08002A46091D66
:10A0A00004E0204409EB08012A46001DFCF7DEF914
:10A0B00000202468761BA844B74201D9354600E049
:10A0C0003D46002EE4D1BDE8F087000030B50246E1
:10A0D00059B101F0A1F80021074C09E004EB81031C
:10A0E00015685B88AB4202D11160002030BD491C6D
:10A0F0008142F3D3052030BD082C0020F8B50F466F
:10A10000017814460546012901D1687830B12088CC
:10A11000821C9A422DD8012902D006E00720F8BD02
:10A1200069780144891C994223D8181A801E86B286
:10A13000ADF800602188B81C084469467DDF00281E
:10A14000EDD12878022805D1BDF80010B14201D820
:10A1500009210AE00821012805D16878B04202D817
:10A16000ADF8000001E0ADF80060BDF80000FE2889
:10A1700001D90C20F8BD2288401CB8542088401C0E
:10A1800080B2208039542088401C2080BDF8001007
:10A19000084420800020F8BD10B50A8849888A420A
:10A1A00003D1FCF779F8012010BD002010BD70B577
:10A1B0000C460546FCF753F8002802D06188286851
:10A1C000084470BD01F01F0301229A40D24349099F
:10A1D00000EB8100114600F021B84A0950F8220036
:10A1E00001F01F0201219140084000D0012070477A
:10A1F00001F01F0301229A40490900EB810011463A
:10A2000000F01CB8002100F00FB8012100F016B8D2
:10A2100008B56A46FCF795F8009808BD08B56A4687
:10A22000FCF775F8009808BD08B56A46FCF76FF8AA
:10A2300008BD08B56A46FCF751F808BD08B56A467E
:10A24000FCF758F8009808BD08B56A46FCF786F890
:10A25000009808BD38B5044600258DF800506846C2
:10A26000FDF74CFE21686268086890420ED9401ED6
:10A2700008600178A38AE26801FB0325227A21683D
:10A28000101AC0B20A79824200D208719DF800000B
:10A29000FDF758FE284638BD38B5054600208DF834
:10A2A00000000C466846FDF729FEE868A98A201AD6
:10A2B000B0FBF1F12A681068431C136001709DF82F
:10A2C0000000FDF73FFE38BD10B530B1017A42689D
:10A2D0000368891AC9B21A6006E00E2010BD03682F
:10A2E0001A68541C1C601170491EC9B2F7D200686C
:10A2F00000210171084610BDC20800F007030120CB
:10A30000895C98400840704710B5C20800F0070308
:10A31000885C01249C402043885410BD28B1A1F1E1
:10A320001702E12A03D3072070470E2070470180EF
:10A330000020704710B560B10161F72120F8021BC1
:10A3400020F8021BFB2100F8021BFFF7A9FB0020ED
:10A3500010BD0E2010BD0000F0B5858893B00C46EE
:10A36000002D39D1018800263E4F24293BD006DC40
:10A37000102909D011290CD0232958D14FE03A29AE
:10A380000BD0552953D129E00146204602F000F8B0
:10A390004DE0A01DFFF784FB49E02246408934F8D8
:10A3A000061F814200D808466080172800D2172077
:10A3B0006080106970B1607960B1D7E90001CDE9C2
:10A3C0000301ADF80E506088ADF81000136903A9C1
:10A3D000104698476671267113B0F0BD01462046BD
:10A3E00002F026F823E0011D2C2206A8FCF73EF817
:10A3F000BDF81800BDF81C2004EBC0014A732269A7
:10A40000AAB1D7E90423CDE90423ADF81200487BB3
:10A410008DF814002269204604A9904707E0017ACC
:10A42000207B884200D201462846FFF719F8A07A1F
:10A430000028D1D0E1882846A5DF012570B1112878
:10A44000CAD001F079FA0246074808A1008813B083
:10A4500005EB0040BDE8F04000F04CBEA672E5728E
:10A46000BAE7000084DA0200082C002073645F62FF
:10A470006C655F67617474635F65786368616E675C
:10A48000655F6D74755F72657175657374282920D9
:10A4900072657475726E65642025732E000000006D
:10A4A00020B10278DE2A03D0082070470E207047C2
:10A4B00041800020704760B159B10278DE2A0AD08D
:10A4C00009684160DE2101704FF6FF714180002074
:10A4D00070470E207047082070477FB50546002959
:10A4E0004DD0002D4BD008780C46DE2847D1A888E7
:10A4F0006188884202D1204603F0CCF928880128DF
:10A5000025D002283BD011283AD0512837D135F830
:10A51000040F6188884232D1A978A81C02292ED163
:10A52000017A042903D0062901D0052927D1002169
:10A53000009102228DF8002001914FF4C072029127
:10A540000391ADF80420007A05280FD010E0297A95
:10A550002046012913D1A988428891420FD10121B7
:10A56000017204B0BDE8704003F094B9ADF8041076
:10A5700028886946B0DF002801D0616888477FBD20
:10A58000A88861888842FAD14FF6FF7060807FBD4D
:10A5900000F180400068002800D00120704708B515
:10A5A00000F18040002101600068009008BD0000BB
:10A5B0002DE9F041040007D0044E4FF47A47751C92
:10A5C0003846A847641EFAD1BDE8F08110DA0200CF
:10A5D00070B50B4C207808B185250FE00020A060F5
:10A5E00060602061E060074801F0EEF9054601F087
:10A5F0002DF908B901F0D2F901202070284670BD6C
:10A60000643200208592020038B500258DF8005094
:10A610006846FDF773FC074CE068401EE060E068A8
:10A6200010B901F0E1F9A5709DF80000FDF78AFC72
:10A6300038BD0000643200202DE9F0410646047860
:10A640000B4815460F4640F82420083040F82430C7
:10A65000487B10B1084602F087FB0DB1054A00E0C7
:10A66000002223463946301DBDE8F04101F012BBFF
:10A67000102B00200DCE020038B5001D049C009464
:10A6800001F090FB38BD0000F0B505460478154890
:10A6900089B0164640F82420124A08690832A2F10F
:10A6A0000C0742F82400487F385520226846FBF703
:10A6B000DDFE04942878385C48B10EB10A4A00E007
:10A6C00000226946281D01F0EDFC09B0F0BD0EB175
:10A6D000064A00E00022694605F10C0001F098FBF3
:10A6E000F3E70000F02A002031D60200D9D402009E
:10A6F00030B40378054CE35C1BB130BC001D01F0A5
:10A7000007BD30BC0C3001F0EDBB0000EC2A00208E
:10A7100030B40378054CE35C1BB130BC001D01F084
:10A7200079BD30BC0C3001F053BC0000EC2A002095
:10A730000FB408B50399002904D004AA00926A4610
:10A7400000F00FF801B05DF814FB10B58268044604
:10A75000002A05D0D4E90403216898470020A060AE
:10A7600010BD2DE9FC4791460C00804676D014F8C8
:10A77000011B39B125290ED04046FEF717FD207880
:10A780000028F4D198F80C00002867D04046BDE8B6
:10A79000FC47FFF7DABF0020012221782B291BD0CC
:10A7A0002D2902D0302908D102E040F0010001E05B
:10A7B00040F00200641C002AEFD100252A290ED0A7
:10A7C0002178A1F130020A2A11D205EB850201EBB2
:10A7D0004205641C303DF1E740F00400EAE7D9F897
:10A7E00000100B1DC9F800300968641C0D44217865
:10A7F00000232E290BD114F8011FA1F130020A2ADF
:10A8000005D203EB830201EB4203303BF3E76C29F3
:10A810000DD068290BD0692921D00BDC252918D04F
:10A82000582931D063290ED0642915D117E014F8C6
:10A83000011FECE7702969D0732932D075291BD02C
:10A84000782909D120E0D9F80000011DC9F80010CD
:10A8500001784046FEF7AAFC641C90E76CE0D9F84A
:10A8600000100A1DC9F800200968CDE900500A222D
:10A870004046FFF717F8EFE7D9F800100A1DC9F8AE
:10A88000002009680A2206E0D9F800100A1DC9F85C
:10A89000002009681022CDE90050404602F060FF18
:10A8A000DAE7D9F8001000270A1DC9F800200E6861
:10A8B000C00705D112E04046761C7F1CFEF776FCEF
:10A8C00031780029F7D104E0202140466D1EFEF7C3
:10A8D0006DFCBD42C0D9002DF6D1BDE74EB130466A
:10A8E000FBF7E8FD074604E0202140466D1EFEF719
:10A8F0005DFCBD4206D9002DF6D103E04046761C32
:10A90000FEF754FC31780029F8D1A5E7D9F800000A
:10A91000011DC9F80010056830214046FEF746FCCD
:10A9200078214046FEF742FC08200021CDE90001D5
:10A93000034610222946B0E7BDE8FC872DE9F04127
:10A9400028B1016819B1C969BDE8F04108470D4D4A
:10A950000D480024461B14270DE000BF04EB8400C3
:10A9600005EB8000016829B1C969884710B1012051
:10A97000BDE8F081641CB6FBF7F0A042EED80020E1
:10A98000F6E700000000000000000000044801217C
:10A990004174007A08B10020704701207047000020
:10A9A00048350020012801D0032808D1044900229D
:10A9B00001284A7400D00020087401F071BE70476D
:10A9C0004835002070B50246022801D0032A45D13F
:10A9D000234C207A002841D0012833D0022831D1DD
:10A9E00020480023022A006802D0032A2AD11BE053
:10A9F000E360017911B1012924D10DE0D0E90565A9
:10AA0000711B4FF48056B14200D331462944816115
:10AA10004569A9420ED015E00169491C01614269EE
:10AA200091420FD1237213E0E168491CE1600829CB
:10AA300008D9E3602372022A0AD00D21FEF7E4FD53
:10AA400001F024FE607C28B1BDE8704000F004BF36
:10AA50000021F3E7BDE8704001F022BE70BD0000A8
:10AA600048350020842B00202DE9FF411C46DDE9FC
:10AA70000A7815460E46684600F0BCF846EA4501DD
:10AA800041EA840141EA072242EA0841009A00EBC8
:10AA90008200C0F80017BDE8FF812DE9FF411C4688
:10AAA000DDE90A7815460E46684600F0B1F846EA38
:10AAB000450141EA840141EA072242EA0841009A3D
:10AAC00000EB8200C0F80017BDE8FF812DE9FF41CF
:10AAD0001C46DDE90A7815460E46684600F0A6F8E1
:10AAE00046EA450141EA840141EA072242EA084177
:10AAF000009A00EB8200C0F80017BDE8FF812DE945
:10AB0000FF411C46DDE90A7815460E46684600F00E
:10AB10009BF846EA450141EA840141EA072242EAFC
:10AB20000841009A00EB8200C0F80017BDE8FF81E1
:10AB300070B52028DDE9046502D24FF0A04402E0A0
:10AB4000074C00F01F0041EA420141EA830141EA5B
:10AB5000062104EB800041EA0541C0F8001770BDF2
:10AB6000000300501CB500220B46009211460192D2
:10AB7000FFF7ACFF1CBD1CB500220B46009211462E
:10AB80000192FFF7BCFF1CBD1CB5002100910B46D4
:10AB9000012201911146FFF799FF1CBD1CB5002150
:10ABA00000910B46012201911146FFF7A8FF1CBD41
:10ABB00013B50C46684600F02BF8009900EB8101B4
:10ABC000D1F8002722F44032C1F80027009900EBA9
:10ABD0008100D0F8001741EA0441C0F800171CBDFD
:10ABE00001B5684600F03EF8009A01219140C0F896
:10ABF0000C1508BD0168202902D24FF0A040704713
:10AC000001F01F010160014870470000000300507F
:10AC10000168202902D24FF0A040704701F01F01C7
:10AC200001600148704700000003005001682029BE
:10AC300002D24FF0A040704701F01F0101600148AF
:10AC400070470000000300500168202902D24FF035
:10AC5000A040704701F01F010160014870470000EB
:10AC6000000300500168202902D24FF0A040704735
:10AC700001F01F010160014870470000000300500F
:10AC800001B56846FFF7C4FFD0F810050099C84029
:10AC900000F0010008BD01B56846FFF7C7FF009A44
:10ACA00001219140C0F8081508BD01B56846FFF7BD
:10ACB000CBFF009A01219140C0F8081508BD01B5ED
:10ACC0006846FFF7CFFF009A01219140C0F80815B0
:10ACD00008BD38B501240090684631B1FFF78AFFFE
:10ACE00000998C40C0F8084538BDFFF783FF0099F4
:10ACF0008C40C0F80C4538BD1CB5094C0144D4E962
:10AD00000034CDE900346C4606E000BF54F8203032
:10AD1000D3F81035401C08C28142F7D81CBD000092
:10AD2000ACDA0200034908B508440021016000685C
:10AD3000009008BD0060004002494058012800D042
:10AD4000002070470060004030B5124B01460020E3
:10AD5000D3F81044224609E0157A854205D1401CFB
:10AD60000A28F7DB4FF0FF3030BD5268002AF3D1DC
:10AD7000421CF9D00872D3F810242AB152684A60F4
:10AD8000D3F81024516030BD0022C3F810144A607B
:10AD900030BD0000683600207047FCF73DB87047B2
:10ADA00008B5034A00924023024A00F005F808BDA6
:10ADB0005DC9020068350020F0B595B01C46154607
:10ADC0000F4608461A9E00F0F7FA182109A8FBF76B
:10ADD00066FB0E96CDE909540023082203A93846E4
:10ADE00000F0FFFA05980690BDF81000ADF81C00C1
:10ADF000BDF81200ADF81E0000208DF82100039868
:10AE0000082600F00300012802D0022818D032E002
:10AE100003983346850AC0F3C2008DF820000398DA
:10AE20000FA9C0F38314A200384600F0DAFA09A88B
:10AE3000009006AB22460FA9284600F019FA1AE046
:10AE40000398840DC0F3C2008DF82000082C01D2B5
:10AE5000254600E0082533462A460FA9384600F06B
:10AE6000C0FA2E44641B09AB06AA29460FA800F0BD
:10AE700051F9002CEAD1384600F0A4FA15B0F0BD23
:10AE80000A4A012902EBC00007D0022907D0032992
:10AE900007D0042907D00020704702207047042003
:10AEA00070470079704740797047000078E50200EC
:10AEB00010B5FFF772FF04210348FFF745FF024971
:10AEC0000120487210BD00009C2B00202DE9F04F9E
:10AED0008DB0FEF77BF918B100200DB0BDE8F08F02
:10AEE0007A4C4FF0000BC4F818B4BFF34F8F606872
:10AEF0000290A568D846284004EB800008E021684D
:10AF00000298814201D86160E6E7284004EB8000A6
:10AF10000C3002A9FEF75AFD0028F0D105AA0299CB
:10AF200001EA050304EB8303491CDB6842F8203087
:10AF3000401C02910228F2D3059800F00300022879
:10AF400002D001284ED0A9E005985022810D8946F3
:10AF5000B2EB905F00D850210E4666F39F500590EB
:10AF600008315B4800F0DFF9070079D000F024FADF
:10AF70004346082205A9384600F039FA029908F13B
:10AF8000080A2940681A8000001D864223D94F4DC7
:10AF90000C3530B1C2B204EB8101301A90460C314D
:10AFA00004E02946F2B2002590462846C6B2534630
:10AFB000384600F01CFA0AEB08032DB13246294648
:10AFC0004FEA070000F013FA029909F1030001EBC0
:10AFD000900002903BE004EB810153463246384634
:10AFE0000C31EFE70598C0F38310062800D3062044
:10AFF000059960F38911C1F38310801C05918100CC
:10B00000334800F090F9070048D000F0D5F94346E6
:10B01000082205A9384600F0EAF908F108080026D8
:10B020000FE00298434600EA0501401C04EB810151
:10B030000290042238460C3100F0D9F908F10408D6
:10B04000761C0598C0F38310B042EAD847B1D4F813
:10B050001054D4F8180468B1384600F0B3F92FE062
:10B060001CE0687A012804D12A682846394612680B
:10B0700090476D68002DF4D1384600F0A3F98DF8A3
:10B0800000B06846FCF73AFFD4F8180408B90298F3
:10B0900060609DF80000FCF755FF11E0D4F8104403
:10B0A00004E021682046896888476468002CF8D14C
:10B0B00008480221008801EB004007A100F016F8C3
:10B0C000FEF784F880F0010007E7000068360020F2
:10B0D00000E602003C2C00204261636B656E6473E5
:10B0E00020666C75736865640000000000231A46D2
:10B0F00001F008BD08B5012300926A4601F002FD87
:10B1000008BD1CB5CDE9002302236A4601F0FAFC14
:10B110001CBD00002DE9F0470E4680461C469246B5
:10B1200008293ED894F80C90002020731946104648
:10B1300001F054FA0025B54206D218F805201AA1EC
:10B140002046FFF7F5FA03E019A12046FFF7F0FAD1
:10B150006D1C082DEFD317A12046FFF7E9FA002553
:10B16000B54210D218F80570FBF77CF90068C05D95
:10B1700010F03E0F01D03A4600E02E220EA12046EC
:10B18000FFF7D6FA03E00DA12046FFF7D1FA6D1CB8
:10B19000082DE5D301222146504601F001FA84F83A
:10B1A0000C90BDE8F08700002025303278000000C8
:10B1B000202020007C00000025630000200000000B
:10B1C000104810B5FF218160002101604160C0F886
:10B1D0001814C0F8141480F820140B4800F0F0F88C
:10B1E00000280DD109480A490A4B401AC10800201D
:10B1F00003E000BF23F82000401C8842FAD300205F
:10B2000010BD00006836002000E6020000E60200E3
:10B2100078E50200082C002002480349401AC008C3
:10B220007047000000E6020078E5020013B56846AA
:10B23000FEF74CFF08B100201CBD0248009950F8F1
:10B2400031001CBD78E5020070B508480125D0F832
:10B25000104480F8205405E0657221682046496852
:10B2600088476468002CF7D170BD00006836002064
:10B270002DE9FF4781460C9D00200C462F7B28734B
:10B28000984616462946184601F0A8F9072E42D2DC
:10B29000DFE806F004090F161F2A36004946284643
:10B2A000FFF746FA37E0494628462268FFF740FA9A
:10B2B00031E0D4E9002349462846FFF739FA2AE06D
:10B2C000A0680090D4E9002349462846FFF730FAE9
:10B2D00021E0D4E90201CDE90001D4E90023494687
:10B2E0002846FFF725FA16E004F1080007C88DE8A4
:10B2F0000700D4E9002349462846FFF719FA0AE077
:10B3000004F108000FC88DE80F00D4E90023494676
:10B310002846FFF70DFA00222946404601F040F981
:10B320002F73BDE8FF872DE9F041858A80462D1FE8
:10B330004819C01CB0FBF5F0C6B24046FEF78AFFC4
:10B34000041E19D00020207101206071E5800027C3
:10B350002546761EC4F800800BE04046FEF77AFFD3
:10B3600060B16179491C6171286005467F1CC0F895
:10B370000080B742F1D32046BDE8F081204600F0BE
:10B3800002F80020F8E72DE9F041457901466B1EEF
:10B39000002201E00968521C9A42FBD30F68014663
:10B3A000002605E038460C68FEF776FF2146761C3D
:10B3B000AE42F7D3BDE8F0810121001DFEF728BFA2
:10B3C000FEF782BF10B504460121001DFEF73CFFC9
:10B3D00010F0FF0F04D12046BDE81040FFF7D3BFA7
:10B3E00010BD38B501240094FEF734FE38BD38B5E1
:10B3F00000240094FEF72EFE38BD0000064910B56B
:10B4000000204870091D0860BFF35F8F034904489E
:10B4100000F04EFA002010BD8C2B002050DB020003
:10B420005C35002008B500208DF800006846FCF768
:10B4300065FDF1EE100A20F09F00E1EE100ABFF367
:10B440005F8F08494020C1F880029DF80000FCF79A
:10B4500079FD00F0FBF908B141DF08BD20BF40BF16
:10B4600020BF08BD04E000E0FCF7ECBB20B10349BD
:10B4700009680160002070470E20704730DD02002F
:10B480002DE9FE4306460D460846FFF7EFFF00286C
:10B490007ED18046CDF80080CDF8048001240620BE
:10B4A0008DF80060ADF80400CDF808808DF80240FA
:10B4B000694620202A6869DF3F4F40B100F03CFA1E
:10B4C000024638883D4904EB0040FFF713FECDF8F3
:10B4D00000808DF801408DF80280CDF80480CDF811
:10B4E00008808DF80380694640202A6869DF40B1F2
:10B4F00000F022FA02463888314904EB0040FFF799
:10B50000F9FDCDF800808DF80060F720ADF802005D
:10B51000CDF80480CDF80880694623202A6869DFC9
:10B5200040B100F009FA02463888264904EB004091
:10B53000FFF7E0FDCDF80080CDF80480CDF808805D
:10B540008DF800404646694601202A6869DF40B10F
:10B5500000F0F2F9024638881B4904EB0040FFF77F
:10B56000C9FD4FF4B0600090019602966946A12093
:10B570002A6869DF40B100F0DFF9024638881349D4
:10B5800004EB0040FFF7B6FD00960196029600E03E
:10B5900010E08DF800606946A0202A6869DF40B19C
:10B5A00000F0CAF902463888094904EB0040FFF769
:10B5B000A1FD0020BDE8FE83442C0020D0E3020062
:10B5C00018E4020064E4020030E302007CE30200BD
:10B5D000DCE202002DE9F0410446D0F8008060DF93
:10B5E0002168194D074641451CD92888022606EBDB
:10B5F000004016A1FFF77AFD2888424606EB00407E
:10B600001EA12368FFF77DFDF006D0F80C0121682C
:10B61000800200F10050421A288825A106EB004064
:10B62000FFF768FD012467B1384600F085F902464E
:10B6300028882AA104EB0040FFF75CFD3846BDE8EE
:10B64000F0812E480470F9E7442C0020496E737590
:10B650006666696369656E742052414D20616C6C49
:10B660006F636174656420666F722074686520532F
:10B670006F66744465766963652E00004368616E89
:10B680006765207468652052414D2073746172743F
:10B69000206C6F636174696F6E2066726F6D20300D
:10B6A00078257820746F20307825782E00000000EF
:10B6B0004D6178696D756D2052414D2073697A65D1
:10B6C00020666F72206170706C69636174696F6E5F
:10B6D00020697320307825782E00000073645F6243
:10B6E0006C655F656E61626C652829207265747592
:10B6F000726E65642025732E00000000FB2B002075
:10B7000030B51548ADF5017D0078002821D04FF403
:10B71000FA7500BFADF8005280A9684661DF38B104
:10B72000052816D00DF5017DBDE83040FCF78ABA3A
:10B730006C460A497DA800F0BBF806E0D0E900217C
:10B74000204690477DA800F0CAF87F980028E1D0F5
:10B75000F4E70DF5017D30BDFB2B002034DD020048
:10B76000F8B5134C2078C0B10120A07001F0C0F8EA
:10B77000112814D0022001F0D3F800258DF80050D4
:10B780006846FCF7BBFB11DF064625709DF80000FC
:10B79000FCF7D8FB2EB13046F8BD0820F8BD0020DC
:10B7A000F8BDA57001F066F9032001F0B9F8F6E7DD
:10B7B000F82B00207CB5194C207808B108207CBDFE
:10B7C0000120A070002001F093F8112819D000206A
:10B7D00001F0A6F812480026006801908DF800607C
:10B7E0006846FCF78BFB0F4901A810DF05000AD063
:10B7F000002020709DF80000FCF7A4FB2DB1284626
:10B800007CBD00207CBD0120F3E7A670667001F0CE
:10B810004DF9012001F084F8F3E70000F82B002037
:10B82000C8DC0200C97B02000EB50749684600F07B
:10B830003FF805E0D0E900108847684600F04FF86F
:10B8400002980028F6D10EBDE4DC02000148007821
:10B8500070470000F82B00200548817819B1007866
:10B8600018B1FFF77DBF08207047FFF7A3BF0000A6
:10B87000F82B00201FB568464BDF30B1052814D0E7
:10B8800004B0BDE81040FCF7DDB9084901A800F09C
:10B890000FF806E0D0E900210098904701A800F0D9
:10B8A0001EF803980028E6D0F4E71FBD50DD020023
:10B8B000016009684160AFF3008010B5D0E9002154
:10B8C0005368994201D1002104E0D1E90034A34238
:10B8D00002D01946816010BD08314160F0E78168EF
:10B8E00000290BD0026892680A44826041684B6864
:10B8F0009A4203D108314160FFF7DFBF7047000073
:10B900000C4A10B502F594730EE0991AC91001EBB8
:10B91000D171491002EBC1010C68844201D90B4678
:10B9200002E005D201F108029A42EED3002010BDD8
:10B93000486810BD70DB020000B5FFF7E1FF00288A
:10B9400000D1014800BD00005CDB02004058002827
:10B9500000D00120704708B50022425040580090A6
:10B9600008BD4058002800D00120704708B50022CB
:10B9700042504058009008BDD0F80403084000D061
:10B98000012070474058002800D00120704708B5BA
:10B99000002242504058009008BD0000084800684E
:10B9A000012110F0010F08D14FF0E020E02280F8D3
:10B9B0000024C0F88012C0F80011024801607047EE
:10B9C00000E100E0180500400649024600200B791E
:10B9D0000BB1852070470A6001220A7100224A716A
:10B9E00070470000002B0020044901200860044833
:10B9F0000168C1F300410029FAD170470C000040F2
:10BA000018040040002802D001498001084770470F
:10BA1000C1DA0200002802D00149800108477047BE
:10BA2000F1DA02002DE9F0410E46804600F0A0FD5B
:10BA3000204D0028404616D0FDF708FC284490F819
:10BA400058008009032802D001280AD003E04046AC
:10BA5000FFF716F928B103214046BDE8F041FFF792
:10BA6000A7B80221F8E700F08FFD002820D040465B
:10BA7000FDF7ECFB0446104F4FF4807007EB840198
:10BA800000EB8400D1F8102580B242F00102C1F829
:10BA90001025FFF747F9002E0AD04046FDF7D6FBE8
:10BAA00055F82000002803D00120A040C7F8040367
:10BAB000BDE8F08178320020006000402DE9FC41B3
:10BAC000DFF8C080044608EB0400002790F930003E
:10BAD0001346C0170E46401C01D008274FE0B0782F
